:020000040800F2
:1000000000000524891A00080518000807180008D0
:10001000091800080B1800080D180008000000005F
:100020000000000000000000000000003163000834
:100030000F18000800000000D163000835640008B4
:10004000D91A0008D91A0008D91A0008D91A0008C4
:10005000D91A0008D91A0008D91A0008D91A0008B4
:10006000D91A0008D91A0008D91A0008111800086E
:1000700021180008D91A0008D91A0008D91A00084E
:10008000D91A0008D91A0008D91A0008311800082E
:1000900041180008D91A0008D91A0008D91A00080E
:1000A000D91A0008D91A0008D91A0008D91A000864
:1000B00051180008D91A0008D91A0008D91A0008DE
:1000C000D91A0008D91A0008D91A0008D91A000844
:1000D00061180008D91A0008D91A0008D91A0008AE
:1000E000D91A0008D91A000800000000D91A00081F
:1000F000D91A0008D91A0008D91A0008D91A000814
:10010000D91A0008D91A0008D91A0008D91A000803
:10011000D91A0008D91A0008D91A0008D91A0008F3
:10012000D91A0008D91A0008D91A0008D91A0008E3
:10013000D91A0008D91A0008D91A0008D91A0008D3
:1001400000000000000000000000000000000000AF
:10015000D91A0008D91A0008D91A0008D91A0008B3
:10016000D91A0008D91A0008D91A0008D91A0008A3
:10017000D91A0008D91A0008D91A0008000000008E
:10018000D91A0008D91A0008D91A0008D91A000883
:10019000D91A0008D91A0008D91A0008D91A000873
:1001A000D91A0008D91A0008D91A0008000000005E
:1001B000D91A0008D91A0008D91A0008D91A000853
:1001C000D91A0008D91A0008000000000000000039
:1001D0000000000000000000D91A00080000000024
:1001E000000000000000000000000000000000000F
:1001F0000000000000000000D91A0008D91A000809
:10020000D91A0008D91A000800000000D91A0008FD
:10021000D91A0008D91A0008D91A0008D91A0008F2
:10022000D91A000800000000D91A000800000000D8
:10023000D91A0008D91A000800000000D91A0008CD
:10024000D91A0008D91A0008D91A0008D91A0008C2
:10025000D91A0008D91A0008D91A0008D91A0008B2
:10026000D91A0008D91A0008D91A0008D91A0008A2
:10027000D91A0008D91A0008D91A0008000000008D
:10028000D91A0008D91A0008D91A0008D91A000882
:1002900000000000D91A0008D91A00080000000068
:1002A00000000000D91A0008D91A0008D91A00085D
:1002B000D91A0008D91A0008D91A000871180008BC
:0C02C000D91A0008D91A0008D91A000841
:1002D00081F0004102E000BF83F0004330B54FEAF7
:1002E00041044FEA430594EA050F08BF90EA020F64
:1002F0001FBF54EA000C55EA020C7FEA645C7FEAF7
:10030000655C00F0E2804FEA5454D4EB5555B8BF19
:100310006D420CDD2C4480EA020281EA030382EA8A
:10032000000083EA010180EA020281EA0303362D1C
:1003300088BF30BD11F0004F4FEA01314FF4801CEF
:100340004CEA113102D0404261EB410113F0004F01
:100350004FEA03334CEA133302D0524263EB4303B8
:1003600094EA050F00F0A780A4F10104D5F1200E56
:100370000DDB02FA0EFC22FA05F2801841F10001B1
:1003800003FA0EF2801843FA05F359410EE0A5F185
:1003900020050EF1200E012A03FA0EFC28BF4CF0B6
:1003A000020C43FA05F3C01851EBE37101F000456C
:1003B00007D54FF0000EDCF1000C7EEB00006EEB79
:1003C0000101B1F5801F1BD3B1F5001F0CD3490803
:1003D0005FEA30004FEA3C0C04F101044FEA44525A
:1003E00012F5800F80F09A80BCF1004F08BF5FEAE1
:1003F000500C50F1000041EB045141EA050130BDC1
:100400005FEA4C0C404141EB0101013C28BFB1F5D2
:10041000801FE9D291F0000F04BF01460020B1FA1D
:1004200081F308BF2033A3F10B03B3F120020CDAF0
:100430000C3208DD02F1140CC2F10C0201FA0CF0CE
:1004400021FA02F10CE002F11402D8BFC2F1200C33
:1004500001FA02F120FA0CFCDCBF41EA0C019040E9
:10046000E41AA2BF01EB0451294330BD6FEA040432
:100470001F3C1CDA0C340EDC04F11404C4F120021D
:1004800020FA04F001FA02F340EA030021FA04F32F
:1004900045EA030130BDC4F10C04C4F1200220FA86
:1004A00002F001FA04F340EA0300294630BD21FAC4
:1004B00004F0294630BD94F0000F83F4801306BF8A
:1004C00081F480110134013D4EE77FEA645C18BF7E
:1004D0007FEA655C29D094EA050F08BF90EA020F15
:1004E00005D054EA000C04BF1946104630BD91EA0D
:1004F000030F1EBF0021002030BD5FEA545C05D110
:100500004000494128BF41F0004130BD14F580044E
:100510003CBF01F5801130BD01F0004545F0FE41C2
:1005200041F470014FF0000030BD7FEA645C1ABFF7
:10053000194610467FEA655C1CBF0B46024650EA2E
:10054000013406BF52EA033591EA030F41F400215A
:1005500030BD00BF90F0000F04BF0021704730B5E0
:100560004FF4806404F132044FF000054FF00001B5
:1005700050E700BF90F0000F04BF0021704730B576
:100580004FF4806404F1320410F0004548BF40424B
:100590004FF000013EE700BF42004FEAE2014FEAA0
:1005A00031014FEA02701FBF12F07F4393F07F4F7B
:1005B00081F06051704732F07F4208BF704793F07E
:1005C0007F4F04BF41F40021704730B54FF4607491
:1005D00001F0004521F000411CE700BF50EA010294
:1005E00008BF704730B54FF000050AE050EA01023D
:1005F00008BF704730B511F0004502D5404261EBAD
:1006000041014FF4806404F132045FEA915C3FF4ED
:10061000D8AE4FF003025FEADC0C18BF03325FEA8A
:10062000DC0C18BF033202EBDC02C2F1200300FA3B
:1006300003FC20FA02F001FA03FE40EA0E0021FA60
:1006400002F11444BDE600BF70B54FF0FF0C4CF44E
:10065000E06C1CEA11541DBF1CEA135594EA0C0F00
:1006600095EA0C0F00F0DEF82C4481EA030621EA3B
:100670004C5123EA4C5350EA013518BF52EA033576
:1006800041F4801143F4801338D0A0FB02CE4FF028
:100690000005E1FB02E506F00042E0FB03E54FF058
:1006A0000006E1FB03569CF0000F18BF4EF0010E50
:1006B000A4F1FF04B6F5007F64F5407404D25FEA4C
:1006C0004E0E6D4146EB060642EAC62141EA5551FF
:1006D0004FEAC52040EA5E504FEACE2EB4F1FD0C41
:1006E00088BFBCF5E06F1ED8BEF1004F08BF5FEABF
:1006F000500E50F1000041EB045170BD06F0004671
:1007000046EA010140EA020081EA0301B4EB5C041D
:10071000C2BFD4EB0C0541EA045170BD41F4801115
:100720004FF0000E013C00F3AB8014F1360FDEBF3A
:10073000002001F0004170BDC4F10004203C35DA16
:100740000C341BDC04F11404C4F1200500FA05F399
:1007500020FA04F001FA05F240EA020001F000423A
:1007600021F0004110EBD37021FA04F642EB0601B0
:100770005EEA430E08BF20EAD37070BDC4F10C04DA
:10078000C4F1200500FA04F320FA05F001FA04F29E
:1007900040EA020001F0004110EBD37041F100018A
:1007A0005EEA430E08BF20EAD37070BDC4F1200595
:1007B00000FA05F24EEA020E20FA04F301FA05F2FD
:1007C00043EA020321FA04F001F0004121FA04F2A5
:1007D00020EA020000EBD3705EEA430E08BF20EA75
:1007E000D37070BD94F0000F0FD101F000464000AF
:1007F00041EB010111F4801F08BF013CF7D041EA31
:10080000060195F0000F18BF704703F00046520034
:1008100043EB030313F4801F08BF013DF7D043EA05
:100820000603704794EA0C0F0CEA135518BF95EABB
:100830000C0F0CD050EA410618BF52EA4306D1D142
:1008400081EA030101F000414FF0000070BD50EA61
:10085000410606BF1046194652EA430619D094EAEB
:100860000C0F02D150EA013613D195EA0C0F05D1D5
:1008700052EA03361CBF104619460AD181EA030129
:1008800001F0004141F0FE4141F470014FF00000E1
:1008900070BD41F0FE4141F4780170BD70B54FF07C
:1008A000FF0C4CF4E06C1CEA11541DBF1CEA1355FC
:1008B00094EA0C0F95EA0C0F00F0A7F8A4EB0504DE
:1008C00081EA030E52EA03354FEA013100F08880D5
:1008D0004FEA03334FF0805545EA131343EA12639E
:1008E0004FEA022245EA111545EA10654FEA002653
:1008F0000EF000419D4208BF964244F1FD0404F50C
:10090000407402D25B084FEA3202B61A65EB030567
:100910005B084FEA32024FF480104FF4002CB6EB24
:10092000020E75EB030E22BFB61A754640EA0C00A4
:100930005B084FEA3202B6EB020E75EB030E22BFE4
:10094000B61A754640EA5C005B084FEA3202B6EB25
:10095000020E75EB030E22BFB61A754640EA9C00E4
:100960005B084FEA3202B6EB020E75EB030E22BFB4
:10097000B61A754640EADC0055EA060E18D04FEA72
:10098000051545EA16754FEA06164FEAC30343EA12
:1009900052734FEAC2025FEA1C1CC0D111F4801FDF
:1009A0000BD141EA00014FF000004FF0004CB6E7D8
:1009B00011F4801F04BF01430020B4F1FD0C88BF77
:1009C000BCF5E06F3FF6AFAEB5EB030C04BFB6EB82
:1009D000020C5FEA500C50F1000041EB045170BD75
:1009E0000EF0004E4EEA113114EB5C04C2BFD4EBA2
:1009F0000C0541EA045170BD41F480114FF0000E26
:100A0000013C90E645EA060E8DE60CEA135594EAA1
:100A10000C0F08BF95EA0C0F3FF43BAF94EA0C0FA4
:100A20000AD150EA01347FF434AF95EA0C0F7FF419
:100A300025AF104619462CE795EA0C0F06D152EA6D
:100A400003353FF4FDAE1046194622E750EA410651
:100A500018BF52EA43067FF4C5AE50EA41047FF462
:100A60000DAF52EA43057FF4EBAE12E74FEA4102C5
:100A7000B2F1E04324BFB3F5001CDCF1FE5C0DD9FC
:100A800001F0004C4FEAC0024CEA5070B2F1004F46
:100A900040EB830008BF20F00100704711F0804F49
:100AA00021D113F13872BCBF01F00040704741F40E
:100AB00080114FEA5252C2F11802C2F1200C10FA12
:100AC0000CF320FA02F018BF40F001004FEAC123F6
:100AD0004FEAD32303FA0CFC40EA0C0023FA02F39A
:100AE0004FEA4303CCE77FEA625307D150EA013370
:100AF0001EBF4FF0FE4040F44000704701F0004040
:100B000040F0FE4040F40000704700BF844641EAD8
:100B1000000313F003036DD1403A41D351F8043B75
:100B200040F8043B51F8043B40F8043B51F8043BC7
:100B300040F8043B51F8043B40F8043B51F8043BB7
:100B400040F8043B51F8043B40F8043B51F8043BA7
:100B500040F8043B51F8043B40F8043B51F8043B97
:100B600040F8043B51F8043B40F8043B51F8043B87
:100B700040F8043B51F8043B40F8043B51F8043B77
:100B800040F8043B51F8043B40F8043B51F8043B67
:100B900040F8043B51F8043B40F8043B403ABDD2D6
:100BA000303211D351F8043B40F8043B51F8043B78
:100BB00040F8043B51F8043B40F8043B51F8043B37
:100BC00040F8043B103AEDD20C3205D351F8043B07
:100BD00040F8043B043AF9D2043208D0D2071CBFD3
:100BE00011F8013B00F8013B01D30B8803806046FC
:100BF000704700BF082A13D38B078DD010F0030372
:100C00008AD0C3F10403D21ADB071CBF11F8013BE1
:100C100000F8013B80D331F8023B20F8023B7BE730
:100C2000043AD9D3013A11F8013B00F8013BF9D25B
:100C30000B7803704B7843708B78837060467047F5
:100C400070B4840746D04C1E002941D0D5B203466B
:100C500002E0611EE4B30C4603F8015B9907F8D18A
:100C6000032C2ED9D5B245EA05250F2C45EA0545BA
:100C700019D9264603F11001103E0F2E41F8105CE1
:100C800041F80C5C41F8085C41F8045C01F110018A
:100C9000F2D8A4F1100121F00F0104F00F0410317B
:100CA000032C0B440DD91E4621460439032946F86E
:100CB000045BFAD8211F21F0030104310B4404F036
:100CC00003042CB1D2B21C4403F8012BA342FBD184
:100CD00070BC70470C460346C2E700004FF0FF3C73
:100CE00006E000BF4FF0010C02E000BF4FF0010C26
:100CF0004DF804CD4FEA410C7FEA6C5C4FEA430C9F
:100D000018BF7FEA6C5C1BD001B050EA410C0CBFED
:100D100052EA430C91EA030F02BF90EA020F00204F
:100D2000704710F1000F91EA030F58BF994208BFB6
:100D300090422CBFD8176FEAE37040F00100704773
:100D40004FEA410C7FEA6C5C02D150EA013C07D1CA
:100D50004FEA430C7FEA6C5CD6D152EA033CD3D015
:100D60005DF8040B704700BF8446104662468C460F
:100D70001946634600E000BF01B5FFF7B7FF002842
:100D800048BF10F1000F01BD4DF808EDFFF7F4FF6B
:100D90000CBF012000205DF808FB00BF4DF808EDF6
:100DA000FFF7EAFF34BF012000205DF808FB00BF19
:100DB0004DF808EDFFF7E0FF94BF012000205DF83B
:100DC00008FB00BF4DF808EDFFF7CEFF94BF0120F0
:100DD00000205DF808FB00BF4DF808EDFFF7C4FFE9
:100DE00034BF012000205DF808FB00BF4FEA410C32
:100DF0007FEA6C5C02D150EA013C0AD14FEA430C15
:100E00007FEA6C5C02D152EA033C02D14FF0000051
:100E100070474FF0010070470348044B834202D0F3
:100E2000034B03B118477047100700241007002434
:100E3000000000000548064B1B1AD90F01EBA30167
:100E4000491002D0034B03B1184770471007002424
:100E5000100700240000000010B5064C237843B9A9
:100E6000FFF7DAFF044B13B10448AFF3008001230E
:100E7000237010BD100700240000000048C00008C7
:100E800008B5054B1BB105490548AFF30080BDE827
:100E90000840FFF7CFBF00BF000000001407002488
:100EA00048C0000800B583B00F4BD3F8D82042F0FB
:100EB0000102C3F8D820D3F8D83003F0010301931E
:100EC000019B002206210B2000F09AFE0B2000F06F
:100ED000A7FE002206210C2000F092FE0C2000F05C
:100EE0009FFE03B05DF804FB0044025838B5154876
:100EF000154B036000238360C360037443748374E1
:100F000004214161012585611324C4610522026227
:100F100041628562C462026343638263C2630164A7
:100F2000082242648364C264036541658365C365C6
:100F300002664366826601F07BFF00B938BD00F0AF
:100F400084FAFBE77008002400A0004010B51748A1
:100F5000174B036000238360C3600374437483747E
:100F600005224261012484610E21C1610262426254
:100F70008462C162026340F2563141638263C2639C
:100F800003640422426482640821C16403654265EB
:100F90008365C365026643660623836601F048FFE6
:100FA00000B910BD00F051FAFBE700BFD0070024E4
:100FB00000A4004010B51748174B0360002383605E
:100FC000C360037443748374052242610124846105
:100FD0000E21C161026242628462C162026340F218
:100FE000AD6141638263C2630222026404224264EF
:100FF0008364C264036542658365C365032101663A
:101000004366826601F014FF00B910BD00F01DFABE
:10101000FBE700BF3007002400D4004010B58CB0BF
:1010200000230793089309930A930B930368544A88
:10103000934207D0534A934238D0534A934269D0DF
:101040000CB010BD514A136801331360012B1FD03F
:101050004F4BD3F8E02042F00802C3F8E020D3F869
:10106000E03003F008030293029B0323079302235B
:10107000089309230B9307A9464802F0EBFA0022D4
:101080000621132000F0BCFD132000F0C9FDD7E7B6
:101090003F4BD3F8EC2042F48072C3F8EC20D3F835
:1010A000EC3003F480730193019BD1E7374A136856
:1010B00001331360012B1FD0354BD3F8E02042F0F1
:1010C0000202C3F8E020D3F8E03003F002030493F7
:1010D000049B602307930223089309230B9307A91A
:1010E0002D4802F0B7FA00220521142000F088FDF7
:1010F000142000F095FDA3E7254BD3F8EC2042F433
:101100008072C3F8EC20D3F8EC3003F480730393BF
:10111000039BD1E71D4A136801331360012B20D0D4
:101120001B4BD3F8E02042F00802C3F8E020D3F8CC
:10113000E03003F008030693069B4FF440530793F7
:101140000223089305240B9407A9124802F082FA9F
:10115000002221469F2000F053FD9F2000F060FDFB
:101160006EE70B4BD3F8EC2042F48072C3F8EC200E
:10117000D3F8EC3003F480730593059BD0E700BFF0
:1011800000A0004000A4004000D400402C07002430
:1011900000440258000C02580004025808B501200F
:1011A00005F022F8FBE708B505F0CCFFFCE708B531
:1011B00006F09EFDFCE708B506F0B0FAFCE708B5BE
:1011C00006F0A2FEFCE708B507F07CFAFCE7000099
:1011D00010B59EB0364C0DF1640CA646BEE80F006B
:1011E000ACE80F00DEF80030CCF80030002119A880
:1011F00004F0E0FF2F4B18600DF1500C04F1140EB9
:10120000BEE80F00ACE80F00DEF80030CCF800308C
:10121000002114A804F0CEFF274B18600DF13C0C00
:1012200004F1280EBEE80F00ACE80F00DEF8003035
:10123000CCF8003000210FA804F0BCFF1F4B186051
:101240000DF1280C04F13C0EBEE80F00ACE80F00D5
:10125000DEF80030CCF8003000210AA804F0AAFF24
:10126000174B18600DF1140C04F1500EBEE80F007E
:10127000ACE80F00DEF80030CCF80030002105A803
:1012800004F098FF0F4B1860EE4604F1640CBCE8C4
:101290000F00AEE80F00DCF80030CEF8003000217F
:1012A000684604F087FF084B18601EB010BD00BFF1
:1012B00060C0000824090024200900241C0900241F
:1012C0001809002414090024100900242DE9F04312
:1012D0008DB000240794089409940A940B94524BFF
:1012E000D3F8E02042F00402C3F8E020D3F8E02075
:1012F00002F004020192019AD3F8E02042F0800249
:10130000C3F8E020D3F8E02002F080020292029AB3
:10131000D3F8E02042F00102C3F8E020D3F8E02047
:1013200002F001020392039AD3F8E02042F0020295
:10133000C3F8E020D3F8E02002F002020492049AFD
:10134000D3F8E02042F01002C3F8E020D3F8E02008
:1013500002F010020592059AD3F8E02042F008024C
:10136000C3F8E020D3F8E03003F008030693069BAF
:101370002E4E22464FF4C041304602F07CFA012244
:101380000921304602F077FADFF8A8900122042103
:10139000484602F070FA264F01224FF408513846B1
:1013A00002F069FA4FF4C0430793012508950994A8
:1013B0000A9407A9304602F04DF9092307930895CE
:1013C00009944FF00308CDF8288007A9304602F0B1
:1013D00041F907950894099507A9484602F03AF99A
:1013E0000423079308950995CDF8288007A9484656
:1013F00002F030F94FF40853079308950995CDF89A
:10140000288007A9384602F025F94FF4A053079326
:101410004FF488130893099407A9384602F01AF983
:101420000DB0BDE8F08300BF004402580008025828
:10143000001002580000025808B50368B3F1804F4D
:1014400000D008BD00F078FBFBE772B6FEE70000B5
:1014500000B59DB04C22002109A809F0A5FF20226B
:10146000002101A809F0A0FF022002F00BFA0023DE
:101470000093204B9A6922F440429A619B6903F4DD
:1014800040430093009B1B4B9B6913F4005FFAD011
:10149000012209924FF480330A930223129313938B
:1014A0001493282115911692179318930C231993CE
:1014B00000231A931B9309A802F00EFAA8B93F2340
:1014C00001930321029100230393082304934023F3
:1014D000059306934FF480620792089301A802F0E7
:1014E000EBFD20B91DB05DF804FBFFF7AEFFFFF781
:1014F000ACFF00BF0048025800B5AFB0B8220021D1
:10150000684609F051FF4FF400420023CDE9002363
:1015100018230293C823039302230493059306938D
:10152000202308934FF000531B93684603F078F88C
:1015300010B92FB05DF804FBFFF787FF08B500F086
:10154000CDFAFFF785FFFFF7D7FFFFF7BFFEFFF7E5
:10155000A9FC00F00DF8FFF7C9FCFFF7F7FC00F05D
:101560004FFAFFF727FDFFF733FE04F01EFEFEE7FC
:1015700008B51548154B03604FF480034360002302
:1015800083600722C2604FF0007202614FF08072E8
:1015900042614FF0806282614FF08042C26103621B
:1015A00043628362C36242638363C36303644364CD
:1015B0008364C36403654365836503F0CBFD00B9B1
:1015C00008BDFFF742FFFBE7180A0024003800407F
:1015D0002DE9F041B8B004460021339134913591A2
:1015E00036913791B82204A809F0DEFE2268494BF3
:1015F0009A4202D038B0BDE8F0814FF48052002307
:10160000CDE9042304A803F00BF8002879D1424B5C
:10161000D3F8E82042F48042C3F8E820D3F8E82069
:1016200002F480420192019AD3F8E02042F00402D1
:10163000C3F8E020D3F8E02002F004020292029AFC
:10164000D3F8E02042F00202C3F8E020D3F8E03003
:1016500003F002030393039B062333934FF0020826
:10166000CDF8D08000253595032736970526379687
:1016700033A92A4801F0EEFF4FF400533393CDF81D
:10168000D08035953697379633A9254801F0E2FF8B
:101690002448254B0360272343608560C5604FF4D1
:1016A0008063036145618561C5614FF44033036226
:1016B000456200F0F1FB38BB1A4BE3679C631B48A3
:1016C0001B4B036028234360402383600023C360D7
:1016D0004FF48062026143618361C3614FF4003261
:1016E0000262436200F0D8FB88B9104BA3679C6389
:1016F00000220521242000F083FA242000F090FA33
:1017000078E7FFF7A2FE82E7FFF79FFED4E7FFF737
:101710009CFEEAE7003800400044025800080258E6
:1017200000040258A00900241000024028090024E7
:101730002800024000B583B00A4BD3F8F42042F0F1
:101740000202C3F8F420D3F8F43003F0020301934B
:10175000019B00220F216FF0010000F051FA03B04D
:101760005DF804FB004402580F2801D9012070479E
:1017700010B58AB00446002201461C2000F040FA51
:101780001C2000F04DFA1B4B1C601B4BD3F8E820CB
:1017900042F00102C3F8E820D3F8E83003F0010377
:1017A0000093009B01A902A802F004FE079BC3B9A5
:1017B00002F0EEFD0346114AA2FB03239B0C013B02
:1017C0000F484FF08042026040F2E732C26043604F
:1017D00000230361836004F03FFB30B101200AB0B5
:1017E00010BD02F0D5FD4300E5E7054804F082F99D
:1017F000F5E700BF0C0000240044025883DE1B43C1
:10180000A00A0024FEE7FEE7FEE7FEE7FEE77047DA
:1018100008B5024800F042FE08BD00BFA009002440
:1018200008B5024800F03AFE08BD00BF28090024B0
:1018300008B5024801F080FD08BD00BF7008002413
:1018400008B5024801F078FD08BD00BFD0070024AC
:1018500008B5024804F0A2F908BD00BFA00A0024A0
:1018600008B5024803F0DAFE08BD00BF180A0024DC
:1018700008B5024801F060FD08BD00BF3007002434
:1018800010B503460C4A0D490D48006840B10C489C
:1018900000680344521A934206D8094A136010BDE7
:1018A0000748084C0460F2E709F0E2FD0C230360EE
:1018B0004FF0FF30F3E700BF0000052400080000F0
:1018C000EC0A002408900024224AD2F8883043F41D
:1018D0007003C2F88830204B1B6803F00F03062BFF
:1018E00006D81D4A136823F00F0343F00703136063
:1018F0001A4B1A6842F001021A6000221A61196834
:10190000174A0A401A60144B1B6813F0080F06D0E0
:10191000114A136823F00F0343F0070313600F4BC2
:1019200000229A61DA611A620E4999620E49D962FF
:101930000E4919635A639963DA6319645A64196822
:1019400021F4802119601A66094B43F2D2021A6011
:10195000704700BF00ED00E0002000520044025834
:101960007FEDF6EA000202020000FF0180020101A1
:101970000040005202680A4B9A4200D0704782B081
:10198000084BD3F8E82042F00202C3F8E820D3F86D
:10199000E83003F002030193019B02B0704700BFDF
:1019A000000400400044025800B587B000230193B2
:1019B000029303930493059302680E4B9A4202D05C
:1019C00007B05DF804FB0C4BD3F8E02042F00202B4
:1019D000C3F8E020D3F8E03003F002030093009B4B
:1019E000022301930293059301A9044801F032FEFA
:1019F000E6E700BF0004004000440258000402581B
:101A000000B58BB0002307930893099300930193CB
:101A1000029303930493059306931948194A0260AD
:101A200017224260836042F20F72C260036180231A
:101A3000836104F041FAC8B900230793099307A909
:101A40000F4804F051FBA0B96023009300230193D9
:101A5000029304930C226946094804F0A7FA58B986
:101A60000748FFF7A1FF0BB05DF804FBFFF7EDFCA3
:101A7000E2E7FFF7EAFCE7E7FFF7E7FCF0E700BF84
:101A8000F00A002400040040DFF834D0FFF71CFF08
:101A90000C480D490D4A002302E0D458C4500433C9
:101AA000C4188C42F9D30A4A0A4C002301E013609F
:101AB0000432A242FBD309F0E1FCFFF73FFD70477F
:101AC00000000524000000241007002444CA000878
:101AD0001007002404900024FEE7000010B5032046
:101AE00000F07CF802F0EEF90F498B69C3F3032391
:101AF0000E4AD35C03F01F03D8408B6903F00F0339
:101B0000D35C03F01F0320FA03F3094A1360094B67
:101B100018600F20FFF728FE10B10124204610BDE9
:101B20000446FFF707FEF9E70044025878C10008B1
:101B30000000002404000024034B1B78034A1168B2
:101B40000B441360704700BF080000243C0B0024C6
:101B5000014B1868704700BF3C0B0024002807DBCE
:101B600000F01F02400901239340024A42F820304E
:101B7000704700BF00E100E0002804DB0901C9B2A2
:101B8000044B1954704700F00F000901C9B2024B11
:101B90001954704700E400E014ED00E000B500F0D7
:101BA0000700C0F1070CBCF1040F28BF4FF0040C74
:101BB000031D062B0FD9C31E4FF0FF3E0EFA0CF08B
:101BC00021EA000199400EFA03FE22EA0E0241EAE0
:101BD00002005DF804FB0023EEE700000649CB6835
:101BE00023F4E0631B041B0C000200F4E0600343D9
:101BF000024A1A43CA60704700ED00E00000FA058F
:101C000010B50446054BD868C0F30220FFF7C6FFA5
:101C100001462046FFF7B0FF10BD00BF00ED00E019
:101C200008B5FFF79BFF08BD03682749274A934281
:101C300018BF8B422FD0183293422CD018329342C7
:101C400029D01832934226D01832934223D018322A
:101C5000934220D0183293421DD002F5567293421F
:101C600019D01832934216D01832934213D018323A
:101C7000934210D0183293420DD0183293420AD0BA
:101C80001832934207D01832934204D023F0FF0356
:101C90008365806D704710B4D9B210390C4AA2FB2D
:101CA0000142C2F302120B4CA25CC2655F2907D944
:101CB000094A1A4004328265806D5DF8044B704712
:101CC000054A1A408265F7E71000024028000240EA
:101CD000ABAAAAAA88C1000800FCFFFF83699BB9D0
:101CE000836A012B0AD0022B02D00BB1002070476F
:101CF000C36A13F0807F2AD100207047C36AB3F112
:101D0000C07F26D000207047B3F5005F0AD0836AF9
:101D1000022B26D9032B26D1C36A13F0807F24D14E
:101D200000207047836A032B03D8DFE803F0140414
:101D3000140A00207047C36A13F0807F0DD1002081
:101D40007047C36AB3F1C07F09D0002070470120FB
:101D50007047012070470120704701207047012023
:101D60007047012070470020704701207047000035
:101D700003682149214A934218BF8B4227D014326D
:101D8000934224D01432934221D0143293421ED075
:101D9000143293421BD01432934218D0143293421F
:101DA00015D0DAB2103A1649A1FB021212091549F0
:101DB0001944A8291ED9144B13449B000366134BE6
:101DC000436602F01F020123934083667047DBB233
:101DD000083B0F4AA2FB03230E4A02EB13129200A8
:101DE00002660D4A4266C3F30413012202FA03F3AA
:101DF000836670470832DEE7085402581C540258C4
:101E0000ABAAAAAAF0FBFDBF008200108008024026
:101E1000CDCCCCCC009600168058025801794A1ED1
:101E2000072A2BD830B40368154D164CA34218BFAF
:101E3000AB4218D01434A34215D01434A34212D0AC
:101E40001434A3420FD01434A3420CD01434A34250
:101E500009D01434A34206D00B4B0B449B00C3663D
:101E60000A4B036705E00A4B0B449B00C366094B12
:101E7000036701239340436730BC7047704700BF3E
:101E8000085402581C5402583F8200104009024076
:101E90003F9600164059025870B50446FFF758FEA9
:101EA000002C00F0B381054623685349534A9342FE
:101EB00018BF8B420CBF0121002150D01832934231
:101EC0004DD0183293424AD01832934247D018323C
:101ED000934244D01832934241D0183293423ED0BC
:101EE00002F5567293423AD01832934237D01832E4
:101EF000934234D01832934231D0183293422ED0CC
:101F0000183293422BD01832934228D01832934281
:101F100025D03B493B4A934218BF8B4200F02E81AB
:101F2000394A934200F02A811432934200F026810C
:101F30001432934200F022811432934200F01E8149
:101F40001432934200F01A811432934200F0168149
:101F500040236365032384F8353001204AE00222E0
:101F600084F83520002284F8342079BB274A934234
:101F70002CD01832934229D01832934226D01832EE
:101F8000934223D01832934220D0183293421DD06E
:101F900002F55672934219D01832934216D0183275
:101FA000934213D01832934210D0183293420DD07E
:101FB000183293420AD01832934207D01832934213
:101FC00004D01A6822F001021A6003E01A6822F0B5
:101FD00001021A6023681A6812F0010F18D0FFF787
:101FE000B7FD431B052BF5D920236365032384F834
:101FF0003530012070BD00BF1000024028000240B3
:10200000085402581C5402583054025840000240F0
:102010001A687F491140A268E068024320690243C0
:1020200060690243A0690243E0690243206A0243F7
:102030000A43616A042900F096806168A1F12905CC
:10204000A1F13F00032888BF052D0AD9A1F147005F
:10205000012806D9A1F14F00032802D974390329B8
:1020600001D842F480121A602668756925F00705C8
:10207000636A1D43042B08D1A36A1D43E36A23B19D
:102080002046FFF72BFE002872D175612046FFF72E
:10209000CBFDE36D03F01F023F2393408360236871
:1020A0005C495D4A934218BF8B4242D0183293423A
:1020B0003FD0183293423CD01832934239D0183274
:1020C000934236D01832934233D01832934230D0F4
:1020D00002F5567293422CD01832934229D018320E
:1020E000934226D01832934223D01832934220D004
:1020F000183293421DD0183293421AD018329342AC
:1021000017D0464A934214D01432934211D014325D
:1021100093420ED0143293420BD01432934208D023
:102120001432934205D01432934202D014329342B7
:1021300013D12046FFF71CFEA368802B59D0236ED5
:1021400022791A60636EA26E5A606368013B072BA6
:1021500052D90023E366236763670020606501238B
:1021600084F8353046E7E16A206B01430A4364E7AF
:1021700040236365012084F835003BE7022284F8A0
:102180003520002284F834201A6825491140A268BD
:10219000402A2CD0802A27D00022E06842EAD002D0
:1021A000206942EAD002606942EAD002A06942EAAC
:1021B000D002E06942EAD002206A42EA10120A43E1
:1021C0001A602268174B1344174AA2FB03231B090A
:1021D0009B00E3652046FFF727FDE26D02F01F013B
:1021E00001228A4042605AE74FF48042D5E710222C
:1021F000D3E700236360A2E72046FFF70FFEE36EFC
:1022000000221A60236F626F5A60A6E70120F1E690
:102210003F8010FE1000024028000240085402587F
:102220000F00FEFFF8ABFDA7CDCCCCCC002800F012
:10223000288108B5024690F83530DBB2022B03D076
:1022400080234365012008BD0368904890498B4274
:1022500018BF83420CBF0120002065D018318B428B
:1022600062D018318B425FD018318B425CD018316C
:102270008B4259D018318B4256D018318B4253D0F3
:1022800001F556718B424FD018318B424CD018312A
:102290008B4249D018318B4246D018318B4243D003
:1022A00018318B4240D018318B423DD018318B42CF
:1022B0003AD0196821F00E01196013687348744907
:1022C0008B4218BF83426AD072498B4267D0183163
:1022D0008B4264D018318B4261D018318B425ED072
:1022E00018318B425BD018318B4258D001F55671B2
:1022F0008B4254D018318B4251D018318B424ED082
:1023000018318B424BD018318B4248D018318B4258
:1023100045D018318B4242D018318B423FD01968DA
:1023200021F0010119603EE0042182F8351080BBE4
:10233000584A93422DD0183293422AD018329342F1
:1023400027D01832934224D01832934221D0183229
:1023500093421ED002F5567293421AD0183293421D
:1023600017D01832934214D01832934211D0183239
:1023700093420ED0183293420BD01832934208D0B9
:102380001832934205D01A6822F001021A60002028
:1023900059E71A6822F001021A60002053E7196811
:1023A00021F0010119601368384839498B4218BF80
:1023B000834242D018318B423FD018318B423CD0FF
:1023C00018318B4239D018318B4236D018318B42BC
:1023D00033D018318B4230D001F556718B422CD05E
:1023E00018318B4229D018318B4226D018318B42BC
:1023F00023D018318B4220D018318B421DD0183198
:102400008B421AD018318B4217D023498B4214D0FB
:1024100014318B4211D014318B420ED014318B42C7
:102420000BD014318B4208D014318B4205D01431BB
:102430008B4202D014318B4217D1116E0B6823F4FA
:1024400080730B60906DD36D03F01F0101238B40EF
:102450004360536E916E5960D36E33B1196821F4A5
:1024600080711960136F516F5960012382F8353004
:10247000002382F83430136D2BB1104698470020AA
:10248000E1E6012070470020DDE600BF10000240B9
:10249000280002404000024008540258F0B583B0C2
:1024A0000446002301937D4B1D687D4BA3FB05353E
:1024B000AD0A876D3E68D7F800C0036879497A484D
:1024C000834218BF8B420CBF0120002061D0774AA5
:1024D00093425ED0183293425BD01832934258D068
:1024E0001832934255D01832934252D01832934248
:1024F0004FD002F5567293424BD01832934248D0D7
:102500001832934245D01832934242D01832934247
:102510003FD0183293423CD01832934239D018320F
:10252000934236D06249634A934218BF8B4212D01D
:10253000614A93420FD0143293420CD0143293422A
:1025400009D01432934206D01432934203D014328D
:10255000934240F061821A68E16D01F01F0104208E
:10256000884010EA0C0F00F0A78212F0040F00F070
:10257000A382786012F4004F00F05A8212F4803F78
:1025800040F05082A36C002B00F046822046984712
:1025900042E2E26D02F01F0108228A40324241D03D
:1025A00070BB424A93422BD01832934228D0183243
:1025B000934225D01832934222D0183293421FD032
:1025C000183293421CD002F55672934218D018323A
:1025D000934215D01832934212D0183293420FD042
:1025E000183293420CD01832934209D018329342D9
:1025F00006D01832934203D01A68C2F3C00202E038
:102600001A68C2F380026AB11A6822F004021A60E2
:10261000E36D03F01F0208239340BB60636D43F03A
:1026200001036365E26D02F01F0226FA02F313F064
:10263000010F47D023681B481B498B4218BF8342B8
:102640003CD018318B4239D018318B4236D01831FA
:102650008B4233D018318B4230D018318B422DD081
:1026600018318B422AD001F556718B4226D0183191
:102670008B4223D018318B4220D018318B421DD091
:1026800018318B421AD018318B4217D018318B4237
:1026900014D018318B4211D01B6813E004000024C1
:1026A000B5814E1B1000024028000240400002404D
:1026B000085402581C540258305402585B6913F0F5
:1026C000800F3BD1E36D03F01F03042202FA03F3F2
:1026D00033423FD02268964896498A4218BF8242C8
:1026E00034D018318A4231D018318A422ED0183174
:1026F0008A422BD018318A4228D018318A4225D0FC
:1027000018318A4222D001F556718A421ED0183102
:102710008A421BD018318A4218D018318A4215D00B
:1027200018318A4212D018318A420FD018318A42A9
:102730000CD018318A4209D013680BE00123934072
:10274000BB60636D43F002036365BBE7126812F080
:10275000020F3DD1E36D03F01F03102202FA03F3D1
:1027600033425FD02268724872498A4218BF82425F
:1027700034D018318A4231D018318A422ED01831E3
:102780008A422BD018318A4228D018318A4225D06B
:1027900018318A4222D001F556718A421ED0183172
:1027A0008A421BD018318A4218D018318A4215D07B
:1027B00018318A4212D018318A420FD018318A4219
:1027C0000CD018318A4209D01268C2F3800208E0A6
:1027D000BB60636D43F004036365BBE71268C2F33B
:1027E000C002FAB1BB6023681A6812F4802F0DD0C2
:1027F0001B6813F4002F04D1236C9BB1204698472B
:1028000010E0A36C73B1204698470BE01A6812F4ED
:10281000807F03D11A6822F008021A60236C0BB182
:1028200020469847E36D03F01F03202202FA03F3CA
:10283000334200F0938022683D483E498A4218BFE7
:1028400082422ED018318A422BD018318A4228D0A9
:1028500018318A4225D018318A4222D018318A4252
:102860001FD018318A421CD001F556718A4218D007
:1028700018318A4215D018318A4212D018318A4252
:102880000FD018318A420CD018318A4209D0183141
:102890008A4206D018318A4203D01268C2F340023D
:1028A00002E01268C2F30012002A57D0BB6094F80D
:1028B0003530DBB2042B0ED023681A6812F4802F57
:1028C0003AD01B6813F4002F2DD1636C002B45D038
:1028D0002046984742E02268136823F016031360ED
:1028E0002268536923F080035361236CBBB12268D3
:1028F000136823F008031360E36D03F01F023F2306
:102900009340BB60012384F83530002384F83430D1
:10291000236D002B00F08080204698477CE0A36C5C
:10292000002BE4D1E8E7E36BC3B12046984715E0FC
:1029300010000240280002401A6812F4807F09D17A
:102940001A6822F010021A60012384F8353000233F
:1029500084F83430E36B0BB120469847636D002B4D
:102960005AD0636D13F0010F52D0042384F8353030
:1029700023689649964A934218BF8B422FD018324B
:1029800093422CD01832934229D01832934226D049
:102990001832934223D01832934220D018329342F7
:1029A0001DD002F55672934219D01832934216D0B8
:1029B0001832934213D01832934210D018329342F7
:1029C0000DD0183293420AD01832934207D01832F1
:1029D000934204D01A6822F001021A6003E01A68D8
:1029E00022F001021A60019B01330193AB4204D82B
:1029F00023681B6813F0010FF5D123681B6813F0DF
:102A0000010F0BD0032384F83530002384F83430D1
:102A1000E36C0BB12046984703B0F0BD012384F866
:102A20003530F2E7236C002BF6D020469847F3E7C9
:102A300012F0200F3AD123686449654A934218BFC7
:102A40008B422FD0183293422CD01832934229D087
:102A50001832934226D01832934223D01832934230
:102A600020D0183293421DD002F55672934219D0ED
:102A70001832934216D01832934213D01832934230
:102A800010D0183293420DD0183293420AD0183227
:102A9000934207D01832934204D01A6822F00402FD
:102AA0001A6003E01A6822F008021A60236C002BF7
:102AB000B2D020469847AFE70220884010EA0C0FBA
:102AC00060D012F0020F5DD0786012F4004F0ED08B
:102AD00012F4803F05D1636C002B9DD020469847AF
:102AE0009AE7E36B002B97D02046984794E712F0C3
:102AF000200F40D123683549354A934218BF8B4295
:102B00002FD0183293422CD01832934229D0183249
:102B1000934226D01832934223D01832934220D0C9
:102B2000183293421DD002F55672934219D01832D2
:102B3000934216D01832934213D01832934210D0D9
:102B4000183293420DD0183293420AD01832934271
:102B500007D01832934204D01A6822F00A021A6091
:102B600003E01A6822F014021A60012384F8353059
:102B7000002384F83430E36B002B3FF44DAF204644
:102B8000984749E7082000FA01F111EA0C0F3FF4D9
:102B900043AF12F0080F3FF43FAF1A6822F00E0265
:102BA0001A60E36D03F01F03012202FA03F37B6056
:102BB000626584F83520002384F83430E36C002B00
:102BC0003FF42AAF2046984726E700BF1000024096
:102BD0002800024030B4416B0468D4F884306F4A56
:102BE000134043EA8103C4F884300468D4F8843085
:102BF00023F47F03856B43EA0543C4F88430836B79
:102C00000B440468D4F88810114041EA8301C4F8E9
:102C100088100468D4F8881021F4FE01C56B41EADD
:102C20000541C4F88810C16B03EB41030468D4F874
:102C3000A010114041EA8301C4F8A0100468D4F840
:102C4000A01021F4FE01056C41EA0541C4F8A01072
:102C5000016C446C04FB01330468D4F8B0101140DB
:102C600041EA8301C4F8B0100468D4F8B01021F42C
:102C7000FE01856C41EA0541C4F8B010816CC46C5A
:102C800004FB01330468D4F8AC10114041EA83011D
:102C9000C4F8AC10016D446D04FB01330468D4F832
:102CA000F010114041EA8301C4F8F0100468D4F830
:102CB000F01021F47C11856D41EA0541C4F8F01053
:102CC000816D03EB41030468D4F8C0100A4042EA66
:102CD0008303C4F8C0300268D2F8C03023F47C13F8
:102CE000C16D43EA0143C2F8C0300268D2F8C03077
:102CF00023F07C53016E43EA0163C2F8C030436B9A
:102D0000274A1A449200C266836B02EB830303676F
:102D1000C16B03EBC1034367016C446C04FB01F11D
:102D200003EB81038367816CC46C04FB01F103EB4B
:102D30008103C367016D446D04FB01F103EB810363
:102D4000C0F88030816D03EBC103C0F88430816E20
:102D5000C46D01FB04FC03EB8C03C0F88830046EE7
:102D600004FB01F103EB8103C0F890300D498B4265
:102D70000DD9D0F89C3043F02003C0F89C300323D9
:102D800080F89830012007E0002342F8043BD0F897
:102D900090309342F8D8002030BC70470300FFFF0A
:102DA000002B0010FCD3004070B54C68F4B90D69DD
:102DB0008C6825430C6845EA84450E6ACC6944EA70
:102DC00006648E6934434E693443CE683443D0F888
:102DD0008460806E00FB03F306EB830E46F82350FD
:102DE000CEF804400EF1080E002019E00C698D6841
:102DF00025430C68254345F08045DEE702EB000CD7
:102E00009CF803409CF802301B0443EA04639CF8DE
:102E1000014043EA0423145C23434EF8043B04308E
:102E2000CB89024CE35C8342E8D870BD90C10008B6
:102E300030B595B004464C22A04901A8FDF766FEC6
:102E4000002C00F0388123689D4A934220D094F8EA
:102E500098300BB32268936923F010039361FEF757
:102E600077FE054623689A6912F0080F1AD0FEF71C
:102E70006FFE431B0A2BF5D9D4F89C3043F00103B5
:102E8000C4F89C30032384F89830012015B030BD7D
:102E900003F580736360DAE784F899302046FEF723
:102EA000BDF8D7E79A6942F001029A61FEF750FE39
:102EB000054623689A6912F0010F0FD1FEF748FE0C
:102EC000401B0A28F5D9D4F89C3043F00103C4F81C
:102ED0009C30032384F898300120D7E79A6942F0A8
:102EE00002029A61237C012B40D02268936943F04F
:102EF00040039361637C012B3ED02268936923F4E5
:102F000080439361A37C012B3CD02268936943F4F6
:102F1000805393612268936923F44073A1680B4343
:102F200093612268936923F0A40393612268136973
:102F300023F010031361E368012B29D0002B2CD060
:102F4000022B00F09B802268936943F08003936119
:102F50002268136943F010031361E368032B1CD14B
:102F60002268936943F02003936116E02268936915
:102F700023F040039361BDE72268936943F48043E3
:102F80009361BFE72268936923F480539361C1E79B
:102F90002268936943F004039361A3695A1EE369AD
:102FA000013B1B0243EA4263226A013A134362690E
:102FB000013A216843EA0243CB61A368B3F5407F3D
:102FC00062D0236E33B12268D2F8C030616E0B43F9
:102FD000C2F8C030E36D226ED3420DD02168D1F823
:102FE000C83023F00703A26E14A800EB820252F847
:102FF0004C2C1343C1F8C830236C6BB12168D1F855
:10300000BC3023F00703626C14A800EB820252F874
:103010004C2C1343C1F8BC30A36C73B12168D1F8B8
:10302000BC3023F07003E26C14A800EB820252F86B
:103030004C2C43EA0213C1F8BC30236D73B12168F4
:10304000D1F8BC3023F4E063626D14A800EB820277
:1030500052F84C2C43EA0223C1F8BC302268184BCA
:103060009A4222D00023C4F89430C4F89C30012343
:1030700084F898302046FFF7ADFD07E72268936992
:1030800043F02003936188E7A36A013BE26A013AB7
:1030900043EA0223226B013A43EA0213626A013ACD
:1030A000216843EA0243CB608BE76268936823F0B0
:1030B00003039360D6E70120E8E600BFD8C000080C
:1030C00000A0004038B5044690F89830DBB2022BDF
:1030D0002BD10368D3F8C00010F07C5F0CD0D3F87C
:1030E000C40010F4001F0FD0D4F89C3043F40073D8
:1030F000C4F89C3001201FE0D4F89C3043F020033A
:10310000C4F89C30012017E0D3F8C450C5F304453F
:103110002B462046FFF748FE22680123AB40C2F849
:10312000D030C4F89430002006E0D0F89C3043F052
:103130000803C0F89C30012038BD000090F898C00A
:103140005FFA8CFCBCF1020F40F0DB8070B54029C7
:103150000CD041293BD0046D8C4269D8D0F89C300A
:1031600043F02003C0F89C300120BDE00468D4F88F
:10317000A05015F4FE0F0CD0D4F8A45015F07F0F1A
:103180000FD1D0F89C3043F48073C0F89C300120FC
:10319000AAE0D0F89C3043F02003C0F89C30012016
:1031A000A2E0D4F8A450C5F3006615F0807F02D0E9
:1031B000D4F8A0500026D4F8A440C4F30524264433
:1031C000456F446C06FB04F405EB840E37E004689D
:1031D000D4F8B05015F4FE0F0CD0D4F8B45015F05C
:1031E0007F0F0FD1D0F89C3043F48073C0F89C302F
:1031F000012079E0D0F89C3043F02003C0F89C30E7
:10320000012071E0D4F8B450C5F3006615F0807F5A
:1032100002D0D4F8B0500026D4F8B440C4F305244A
:103220002644856FC46C06FB04F405EB840E06E0AF
:10323000C56F446D01FB04F405EB840E0026DEF837
:10324000004004F08044546064BBDEF80040C4F3E6
:103250008A441460DEF8004004F000549460DEF804
:10326000004004F000441461BEF80440D461DEF86C
:10327000044004F47024D460DEF8044004F48014A4
:103280005461DEF8044004F4001494619EF8074091
:1032900004F07F041462DEF80440E40F54624FF03F
:1032A000000C0CE0DEF8004024F060441460D1E72C
:1032B0000EEB0C04247A03F80C400CF1010CD489B9
:1032C000144D2C5D6445F3D8402909D041290CD018
:1032D0001F290ED8026801238B40C2F8983002E003
:1032E0000368C3F8A860002070BD0368C3F8B86025
:1032F000F9E701F01F01026801238B40C2F89C30FE
:10330000F1E7D0F89C3043F00803C0F89C3001206E
:10331000704700BF90C10008704770477047704702
:1033200070477047704770477047704770477047E5
:1033300070477047704700002DE9F04F83B0044696
:10334000B04B1A695B699B0703EA827301930368B8
:103350001A6D02F4704A5A6D0AEA020A1A6D02F0F6
:103360000F095A6D09EA02091A6D02F0F0085A6D48
:1033700008EA02081E6D06F071565A6D16401F6D60
:1033800007F060775A6D17405D6DD3F850B015F4B3
:10339000807F02D01BF4807F64D115F4806F02D04F
:1033A0001BF4806F67D1019B002B74D1BAF1000F21
:1033B0007CD1B9F1000F40F08580B8F1000F40F0EA
:1033C0008D8015F4006F03D01BF4006F40F09280E5
:1033D00015F4007F03D01BF4007F40F0968015F4B5
:1033E000002F03D01BF4002F40F09F8015F4803F86
:1033F00003D01BF4803F40F0A38015F4802F03D04E
:103400001BF4802F40F0A78015F4003F0FD01BF471
:10341000003F0CD023684FF400321A65794B00222C
:103420001A61D4F89C3043F08003C4F89C30002F1C
:1034300040F09C804EB123681E65B20F714B1A613B
:10344000D4F89C303343C4F89C3022686E4B9A42C7
:1034500000F09680D4F89C30002B40F0F78003B049
:10346000BDE8F08F4FF480721A65664B00221A6136
:10347000FFF75AFF91E72368D3F8DC10D3F8E42074
:103480004FF4806018655F4B0020186111402046A2
:10349000FFF746FF87E7236800221A6501998A0F24
:1034A000584B1A612046FFF737FF7FE72368C3F8C0
:1034B00050A04FEA9A72534B1A6151462046FFF7CB
:1034C0002CFF76E72368C3F850904FEA99724D4B72
:1034D0001A614946204606F013FD6EE72368C3F8DB
:1034E00050804FEA9872474B1A614146204606F0D9
:1034F00049FD66E723684FF400621A65414B0022DC
:103500001A612046FFF70AFF62E72368D3F8D81054
:10351000D3F8E0204FF4007018653A4B0020186192
:1035200011402046FFF7FBFE59E723684FF40022C5
:103530001A65344B00221A612046FFF7F2FE55E768
:1035400023684FF480321A652E4B00221A61204600
:10355000FFF7E8FE51E723684FF480221A65294BF4
:1035600000221A612046FFF7DEFE4DE723681F6543
:10357000BA0F244B1A6139462046FFF7D7FE59E7A8
:1035800063689A6812F0030F3FF464AF196A01F0A0
:103590000F015A6A186A00F03008586A08EA0008F1
:1035A0001F6A07F4C077586A07401E6A06F4FC4693
:1035B000586A06401D6A05F4F025586A0540D3F89C
:1035C0002490D3F820A0114020D1B8F1000F22D1CF
:1035D00019F0400F02D01AF0400F24D17FBB36B152
:1035E00063681E62D4F89C303343C4F89C30002DCD
:1035F0003FF430AF63681D62D4F89C302B43C4F8AD
:103600009C3027E700A8004000A000401962204637
:10361000FFF78DFED9E76368C3F820804146204656
:10362000FFF786FED4E76368D96BDA6B4020186237
:1036300002F03F02090C2046FFF77BFECEE76368ED
:103640001F6239462046FFF775FEC8E72046FFF7A0
:103650006CFE04E7F0B583B000236BE085685E0084
:103660000324B44025EA0405CC68B4402C438460AC
:10367000456825EA0C054C68C4F300149C402C43B3
:10368000446069E0DD08083550F8254003F0070C78
:103690004FEA8C0C4FF00F0E0EFA0CFE24EA0E0EC1
:1036A0000C6904FA0CF444EA0E0440F825406BE07F
:1036B000092400E0002404FA0EF42C430CF1020C5F
:1036C000664D45F82C404FF0B0442568D44325EAB8
:1036D00002064F6817F4801F01D042EA05064FF03A
:1036E000B0452E606D6804EA05064F6817F4001FA8
:1036F00001D042EA05064FF0B0456E60D5F884501F
:1037000004EA05064F6817F4003F01D042EA0506B7
:103710004FF0B045C5F88460D5F880502C404E6815
:1037200016F4803F01D042EA05044FF0B042C2F8DF
:10373000804001330A6832FA03F400F08C804FF0C5
:10374000010C0CFA03FC1CEA0202F2D04C6804F0F3
:103750000304013C012C81D94C6804F00304032CC0
:103760000CD0C4685D004FF0030C0CFA05FC24EA91
:103770000C0C8C68AC4044EA0C04C4604C6804F047
:103780000304022C3FF47EAF04684FEA430E4FF06F
:10379000030C0CFA0EFC24EA0C0C4C6804F0030435
:1037A00004FA0EF444EA0C0404604C6814F4403F3C
:1037B000BFD02B4CD4F8F45045F00205C4F8F450B7
:1037C000D4F8F44004F002040194019C4FEA930CF5
:1037D0000CF10205214C54F8255003F0030E4FEA7A
:1037E0008E0E0F2404FA0EF425EA04051D4CA042A7
:1037F0003FF460AF04F58064A0421ED004F58064FD
:10380000A0421CD004F58064A0421AD004F5806464
:10381000A04218D004F58064A04216D004F580645C
:10382000A04214D004F58064A04212D004F50064D4
:10383000A0423FF43DAF0A243DE701243BE70224C8
:1038400039E7032437E7042435E7052433E7062462
:1038500031E707242FE703B0F0BD00BF0004005894
:1038600000440258000002580369194201D00120A7
:103870007047002070470AB1816170470904816177
:1038800070470000134BDB6813F0040F07D1114B96
:10389000DB6803F0070383421AD00120704710B59C
:1038A0000C4AD36823F007030343D360FEF750F9B3
:1038B0000446084B5B6813F4005F07D1FEF748F934
:1038C000001BB0F57A7FF4D9012000E0002010BD84
:1038D0000020704700480258002800F0D78238B511
:1038E0000446036813F0010F25D0A04A136903F0C2
:1038F0003803926A102B15D0182B0FD06368B3F5DC
:10390000803F3FD0002B53D1984B1A6822F480326D
:103910001A601A6822F480221A6038E002F003026A
:10392000022AEBD1914B1B6813F4003F03D063686C
:10393000002B00F0AD82236813F0020F00F08880A6
:103940008A4A1369926A13F038035AD0182B55D05B
:10395000E368002B00F0A98084490A6822F019026C
:1039600013430B60FEF7F4F80546804B1B6813F019
:10397000040F40F09180FEF7EBF8401B0228F4D9C9
:1039800003208CE2794A136843F480331360636840
:103990002BB3FEF7DDF80546744B1B6813F4003FAC
:1039A000C9D1FEF7D5F8401B6428F5D9032076E28B
:1039B000B3F5A02F09D06D4B1A6822F480321A603B
:1039C0001A6822F480221A60E1E7684B1A6842F410
:1039D00080221A601A6842F480321A60D7E7FEF734
:1039E000B7F80546614B1B6813F4003FA3D0FEF700
:1039F000AFF8401B6428F5D9032050E212F0030F02
:103A0000A6D15A4B1B6813F0040F03D0E368002BB8
:103A100000F04082554A136823F01903E1680B4314
:103A20001360FEF795F80546504B1B6813F0040F22
:103A300006D1FEF78DF8401B0228F5D903202EE2AF
:103A40004A4A536823F0FE43216943EA0163536005
:103A5000236813F0100F51D0444A136903F0380360
:103A6000926A082B39D0182B33D0E369002B69D028
:103A70003E4A136843F080031360FEF769F8054679
:103A80003A4B1B6813F4807F53D1FEF761F8401B5B
:103A90000228F5D9032002E2344A536823F0FE439A
:103AA000216943EA01635360D2E7304A136823F087
:103AB00001031360FEF74CF805462C4B1B6813F00E
:103AC000040FC5D0FEF744F8401B0228F5D90320A7
:103AD000E5E102F00302012AC7D1244B1B6813F46D
:103AE000807F03D0E369802B40F0D6811F4AD368E2
:103AF00023F07C53216A43EA0163D360236813F007
:103B0000080F49D06369002B32D0184A536F43F035
:103B100001035367FEF71CF80546144B5B6F13F067
:103B2000020F39D1FEF714F8401B0228F5D9032003
:103B3000B5E10E4AD36823F07C53216A43EA01635E
:103B4000D360DBE7094A136823F080031360FDF7B5
:103B5000FFFF0546054B1B6813F4807FCED0FDF7B1
:103B6000F7FF401B0228F5D9032098E100440258D2
:103B70009D4A536F23F001035367FDF7E9FF0546A4
:103B8000994B5B6F13F0020F06D0FDF7E1FF401B6E
:103B90000228F5D9032082E1236813F0200F29D0F1
:103BA000A3699BB1904A136843F480531360FDF7F7
:103BB000CFFF05468C4B1B6813F4005F1AD1FDF74D
:103BC000C7FF401B0228F5D9032068E1864A136825
:103BD00023F480531360FDF7BBFF0546824B1B683F
:103BE00013F4005F06D0FDF7B3FF401B0228F5D9A0
:103BF000032054E1236813F0040F21D1636A002BE2
:103C000000F04C81784A126902F03802182A00F05C
:103C1000F380022B75D0744A136823F0807313600D
:103C2000FDF796FF0446704B1B6813F0007F00F011
:103C3000D880FDF78DFF001B0228F4D903202EE168
:103C40006A4A136843F480731360FDF781FF0546E9
:103C5000664B1B6813F4807F06D1FDF779FF401B8C
:103C60006428F5D903201AE1A368012B0AD00BBB05
:103C70005D4B1A6F22F001021A671A6F22F00402DC
:103C80001A6704E0584A136F43F001031367A368EF
:103C900033B3FDF75DFF0546534B1B6F13F0020F67
:103CA000ACD1FDF755FF401B41F288339842F3D960
:103CB0000320F4E0052B09D04B4B1A6F22F00102D0
:103CC0001A671A6F22F004021A67E0E7464B1A6F70
:103CD00042F004021A671A6F42F001021A67D6E72F
:103CE000FDF736FF0546404B1B6F13F0020F85D0E2
:103CF000FDF72EFF401B41F288339842F3D9032091
:103D0000CDE0394A136823F080731360FDF720FF7C
:103D10000546354B1B6813F0007F06D0FDF718FFF2
:103D2000401B0228F5D90320B9E02F4B996A304A8D
:103D30000A40A16AE06A41EA00110A439A62226BD2
:103D4000013AC2F30802616B0139490289B20A43A0
:103D5000A16B0139090401F4FE010A43E16B013949
:103D6000090601F0FE410A431A63DA6A22F00102F1
:103D7000DA62596B1F4A0A40A16C42EAC1025A63D7
:103D8000DA6A22F00C02216C0A43DA62DA6A22F063
:103D90000202616C0A43DA62DA6A42F48032DA6261
:103DA000DA6A42F40032DA62DA6A42F48022DA62D3
:103DB000DA6A42F00102DA621A6842F080721A602E
:103DC000FDF7C6FE0446084B1B6813F0007F06D1C2
:103DD000FDF7BEFE001B0228F5D903205FE000209E
:103DE0005DE000205BE000BF00440258004802583C
:103DF0000CFCFFFF0700FFFF30498A6A086B012BAC
:103E00004ED002F00303A16A8B424BD1C2F30512DC
:103E1000E36A9A4248D1C0F30802236B013B9A42FD
:103E200044D1C0F34622636B013B9A4240D1C0F3B8
:103E30000642A36B013B9A423CD1C0F30660E36BA0
:103E4000013B984238D11D4B5B6BC3F3CC03A26C92
:103E50009A4201D1002022E0184AD36A23F00103DC
:103E6000D362FDF775FE0546FDF772FEA842FBD052
:103E7000124A516B124B0B40A16C43EAC1035363CE
:103E8000D36A43F00103D362002008E001207047A9
:103E9000012004E0012002E0012000E0002038BD04
:103EA0000120FCE70120FAE70120F8E70120F6E70E
:103EB0000120F4E70120F2E70120F0E70044025876
:103EC0000700FFFF744B1B6903F03803102B00F051
:103ED000DE80182B0FD00BB1704870476E4B1B68FB
:103EE00013F0200F00F0D5806B4B1B68C3F3C103A8
:103EF0006B48D840704710B4674B9A6A02F00302CF
:103F00009C6AC4F30510D96A01F001015B6BC3F32D
:103F1000CC0301FB03F307EE903AF8EE677A14F452
:103F20007C7F00F09480012A66D0022A00F0928003
:103F3000E2B107EE100AF8EE476A9FED5A6A86EE84
:103F4000267A554B1B6BC3F3080306EE903AF8EE46
:103F5000666A9FED556A67EE867A76EEA77AF7EE87
:103F6000006A77EEA67A27EE277A61E04A4B1B6853
:103F700013F0200F23D048490A68C2F3C102484B0E
:103F8000D34007EE103AF8EE476A07EE100AB8EE93
:103F9000476A86EE867A0B6BC3F3080306EE903A07
:103FA000F8EE666A9FED406A67EE867A76EEA77A4B
:103FB000F7EE006A77EEA67A27EE277A38E007EE6A
:103FC000100AF8EE476A9FED396A86EE267A324B80
:103FD0001B6BC3F3080306EE903AF8EE666A9FED9A
:103FE000326A67EE867A76EEA77AF7EE006A77EEA7
:103FF000A67A27EE277A1BE007EE100AF8EE476A4A
:104000009FED286A86EE267A234B1B6BC3F30803C9
:1040100006EE903AF8EE666A9FED236A67EE867ABE
:1040200076EEA77AF7EE006A77EEA67A27EE277A81
:10403000194B1B6BC3F34623013307EE903AF8EE9E
:10404000677AC7EE276AFCEEE67A17EE900A5DF80B
:10405000044B704707EE100AF8EE476A9FED146AAA
:1040600086EE267A0C4B1B6BC3F3080306EE903AE0
:10407000F8EE666A9FED0C6A67EE867A76EEA77AAE
:10408000F7EE006A77EEA67A27EE277AD0E709489E
:1040900070470348704700BF0044025800093D00C4
:1040A0000090D0030024744A000000390024744CAE
:1040B000001BB74B00366E01002800F0328170B54E
:1040C0000D4604469B4B1B6803F00F038B420BD23B
:1040D000984A136823F00F030B431360136803F02F
:1040E0000F038B4240F01F81236813F0040F0CD0A4
:1040F0002269914B9B6903F070039A4205D98E495E
:104100008B6923F070031A438A61236813F0080F48
:104110000CD06269884BDB6903F070039A4205D9C1
:104120008549CB6923F070031A43CA61236813F0F1
:10413000100F0CD0A269804BDB6903F4E0639A4254
:1041400005D97D49CB6923F4E0631A43CA6123682A
:1041500013F0200F0CD0E269774B1B6A03F0700359
:104160009A4205D974490B6A23F070031A430A6214
:10417000236813F0020F0CD0E2686F4B9B6903F0C9
:104180000F039A4205D96C498B6923F00F031A4338
:104190008A61236813F0010F41D0674A936923F4C1
:1041A0007063A1680B4393616368022B0AD0032BF1
:1041B00027D0012B2CD0604A126812F0040F06D1D0
:1041C0000120ADE0126812F4003F00F0AE805A49C1
:1041D0000A6922F0070213430B61FDF7B9FC06469A
:1041E000554B1B6903F038036268B3EBC20F16D05E
:1041F000FDF7AEFC801B41F288339842F0D90320D2
:104200008EE04D4A126812F0007FE0D1012087E075
:10421000494A126812F4807FD9D1012080E02368D6
:1042200013F0020F0CD0E268434B9B6903F00F03BD
:104230009A4205D240498B6923F00F031A438A61E1
:104240003C4B1B6803F00F03AB420AD9394A136891
:1042500023F00F032B431360136803F00F03AB42EB
:1042600065D1236813F0040F0CD02269324B9B698F
:1042700003F070039A4205D22F498B6923F0700333
:104280001A438A61236813F0080F0CD062692A4B25
:10429000DB6903F070039A4205D22749CB6923F00A
:1042A00070031A43CA61236813F0100F0CD0A2697F
:1042B000214BDB6903F4E0639A4205D21E49CB69C6
:1042C00023F4E0631A43CA61236813F0200F0CD073
:1042D000E269194B1B6A03F070039A4205D2164932
:1042E0000B6A23F070031A430A62FFF7EBFD1249D1
:1042F0008B69C3F30323114AD35C03F01F03D84037
:104300008B6903F00F03D35C03F01F0320FA03F360
:104310000B4A13600B4B18600B4B1868FDF724FA1F
:1043200070BD012070470120FAE70120F8E7012065
:10433000F6E700BF002000520044025878C1000890
:1043400000000024040000240C00002408B5FFF73E
:10435000B9FD0B4A9369C3F303230A49CB5C03F00D
:104360001F0320FA03F3926902F00F02885C00F049
:104370001F0023FA00F0044A1060044A136008BDCD
:104380000044025878C10008000000240400002402
:1043900008B5FFF7DBFF054BDB69C3F30213044AE3
:1043A000D35C03F01F03D84008BD00BF004402588F
:1043B00078C100083F230360114B1A6902F007021D
:1043C00042609A6902F4706282609A6902F00F0298
:1043D000C2609A6902F070020261DA6902F070024A
:1043E0004261DA6902F4E06282611B6A03F07003E1
:1043F000C361044B1B6803F00F030B60704700BFE1
:104400000044025800200052404B9B6A03F0030313
:10441000032B79D070B505460E463C4A136823F04D
:1044200080631360FDF794FB0446384B1B6813F060
:10443000006F06D0FDF78CFB031B022BF5D9032080
:1044400070BD324B9A6A22F47C32296842EA01320A
:104450009A626A68013AC2F30802A96801394902FE
:1044600089B20A43E9680139090401F4FE010A43EB
:1044700029690139090601F0FE410A439A63DA6AA3
:1044800022F0C00269690A43DA62DA6A22F0200285
:10449000A9690A43DA62DA6A22F01002DA62D96B99
:1044A0001B4A0A40E96942EAC102DA63DA6A42F069
:1044B0001002DA62C6B91A46DB6A43F40023D362FB
:1044C000124A136843F080631360FDF741FB044612
:1044D0000E4B1B6813F0006F14D1FDF739FB001B66
:1044E0000228F5D90320ABE7012E05D0074AD36A8D
:1044F00043F40013D362E3E7044AD36A43F480131E
:10450000D362DDE700209BE701207047004402589A
:104510000700FFFF404B9B6A03F00303032B79D096
:1045200070B505460E463C4A136823F0805313606D
:10453000FDF70EFB0446384B1B6813F0005F06D0F6
:10454000FDF706FB031B022BF5D9032070BD324B90
:104550009A6A22F07C72296842EA01529A626A6879
:10456000013AC2F30802A9680139490289B20A4333
:10457000E9680139090401F4FE010A432969013996
:10458000090601F0FE410A431A64DA6A22F4406225
:1045900069690A43DA62DA6A22F40072A9690A4395
:1045A000DA62DA6A22F48072DA62596C1B4A0A40D3
:1045B000E96942EAC1025A64DA6A42F48072DA6254
:1045C000C6B91A46DB6A43F48003D362124A136801
:1045D00043F080531360FDF7BBFA04460E4B1B6893
:1045E00013F0005F14D1FDF7B3FA001B0228F5D9D0
:1045F0000320ABE7012E05D0074AD36A43F080734E
:10460000D362E3E7044AD36A43F40003D362DDE7ED
:1046100000209BE701207047004402580700FFFF7D
:10462000F8B50446036813F0006F30D0436EB3F55D
:10463000001F26D00ED8EBB1B3F5801F07D10221A1
:104640000830FFF7E1FE054645B12E4621E0012680
:1046500035461EE0B3F5401F09D100259F4A136D72
:1046600023F44013616E0B431365002611E001260D
:1046700035460EE0994AD36A43F40033D3620025ED
:10468000ECE702212830FFF745FF0546DCE700266E
:104690003546236813F4807F27D0A36D042B20D8E0
:1046A000DFE803F00311180808008C4AD36A43F4CA
:1046B0000033D362C5B9894A136D23F00703A16D96
:1046C0000B43136511E0002104F10800FFF79CFE85
:1046D0000546EFE7002104F12800FFF71BFF054620
:1046E000E8E70126354600E02E46236813F4806F84
:1046F00022D0D4F8A430B3F5800F3FD00DD8BBB38F
:10470000B3F5001F06D1002104F10800FFF77CFE7D
:10471000054608E0012635460EE0B3F5000F02D04D
:10472000B3F5200F1ED185BB6C4A936D23F4600353
:10473000D4F8A4100B439365236813F4006F39D0A9
:10474000D4F8A830B3F1007F5AD023D8002B51D031
:10475000B3F1807F1BD1002104F10800FFF754FE64
:1047600005461DE0B3F5C00FDDD001263546E3E771
:104770005A4AD36A43F40033D362D4E7002104F1E8
:104780002800FFF7C7FE0546CDE72E46D4E70126F1
:1047900035460FE0B3F1806F02D0B3F1A06F23D1A3
:1047A000002D34D14D4A936D23F0E063D4F8A81066
:1047B0000B439365236813F0007F31D0E36C202B0B
:1047C00042D029D833B1102B23D1444AD36A43F4C1
:1047D0000033D362002D3ED1404AD36C23F0300326
:1047E000E16C0B43D3641BE0B3F1407FD8D00126CA
:1047F0003546DFE7394AD36A43F40033D362CFE763
:10480000002104F12800FFF785FE0546C8E72E4683
:10481000D0E70126354603E0302BDBD001263546B4
:10482000236813F4805F3BD0E36DB3F5005F2FD0B6
:1048300016D83BB3B3F5805F0FD1002104F1080017
:10484000FFF7E2FD054611E0022104F10800FFF741
:10485000DBFD0546BEE72E46E2E7012635461FE0B2
:10486000B3F5405F02D0B3F5804F08D1BDB91B4A04
:10487000136D23F4E043E16D0B43136510E0012653
:1048800035460DE0154AD36A43F40033D362EDE7B1
:10489000002104F12800FFF73DFE0546E6E72E461D
:1048A000236813F4005F29D0236EB3F5003F44D092
:1048B00019D843B1B3F5803F12D1012104F10800AA
:1048C000FFF7A2FD0546002D3ED1044A136D23F4E7
:1048D000E023216E0B43136510E000BF0044025833
:1048E000012635460AE0B3F5802FECD0B3F5A02FB2
:1048F000E9D0B3F5403FE6D001263546236813F4EE
:10490000804F31D0D4F8AC30B3F1005F45D020D81F
:1049100043B1B3F1805F19D1012104F10800FFF721
:1049200073FD0546002D3FD18F4A936D23F0E04380
:10493000D4F8AC100B43936516E0012104F1280074
:10494000FFF7E8FD0546BEE72E46D7E701263546C8
:104950000AE0B3F1804FE5D0B3F1A04FE2D0B3F15C
:10496000405FDFD001263546236813F4004F09D09D
:10497000E36EB3F1805F19D0B3F1005F24D0D3B1FF
:1049800001263546236813F0807F33D0A36C032BB8
:104990005BD8DFE803F027225327012104F1280028
:1049A000FFF7B8FD0546BDE72E46DDE76E4AD36A40
:1049B00043F40033D36275B96B4A136D23F040534F
:1049C000E16E0B431365DDE7012104F10800FFF7F9
:1049D0001BFD0546EFE72E46D4E7634AD36A43F44E
:1049E0000033D362A5BB604AD36C23F00303A16CF0
:1049F0000B43D364236813F4800F2BD1236813F087
:104A0000010F00F0A380A36F282B00F29D80DFE848
:104A100003F08B9B9B9B9B9B9B9B859B9B9B9B9B4F
:104A20009B9B949B9B9B9B9B9B9B8B9B9B9B9B9BED
:104A30009B9B8B9B9B9B9B9B9B9B8B00022104F1D5
:104A40000800FFF7E1FC0546CCE701263546D1E733
:104A50002E46CFE7454A136843F480731360FDF791
:104A600077F80746414B1B6813F4807F05D1FDF7AB
:104A70006FF8C01B6428F5D90325002D4AD13A4BA5
:104A80001B6FD4F8B020534013F4407F0CD0364B4A
:104A90001A6F22F44072196F41F480311967196F4F
:104AA00021F4803119671A67D4F8B030B3F5807FEC
:104AB00015D08DBBD4F8B03003F44072B2F5407F0E
:104AC0001ED0294A136923F47C53136126490B6FC6
:104AD000D4F8B020C2F30B0213430B678EE7FDF747
:104AE00037F80746204B1B6F13F0020FE1D1FDF79B
:104AF0002FF8C01B41F288339842F3D90325D8E739
:104B00001948026922F47C52194901EA131313432C
:104B10000361DBE72E4671E72E466FE7012104F1C2
:104B20000800FFF771FC0546E5B90F4A536D23F005
:104B30003803A16F0B43536508E0012104F12800FD
:104B4000FFF7E8FC0546EFE701263546236813F03A
:104B5000020F1DD0636F052B2ED8DFE803F0110B79
:104B6000261111112E46F1E7004402580048025860
:104B7000CFFFFF00012104F10800FFF745FC0546C7
:104B8000EDB9A94A536D23F00703616F0B435365D9
:104B9000236813F0040F23D0D4F89030052B45D8A8
:104BA000DFE803F0150F3D151515012104F128006C
:104BB000FFF7B0FC0546E3E701263546E8E72E4659
:104BC000E6E7012104F10800FFF71EFC054685BB5E
:104BD000954A936D23F00703D4F890100B43936527
:104BE000236813F0200F34D0D4F88C30B3F1005F79
:104BF0004ED023D843B1B3F1805F1CD1002104F122
:104C00000800FFF701FC0546002D48D1864A536D88
:104C100023F0E043D4F88C100B43536519E00121D5
:104C200004F12800FFF776FC0546D0E7012635465B
:104C3000D6E72E46D4E7012635460AE0B3F1804F89
:104C4000E2D0B3F1A04FDFD0B3F1405FDCD001265A
:104C50003546236813F0400F31D0D4F89830B3F5BF
:104C6000006F4DD020D843B1B3F5806F19D100212A
:104C700004F10800FFF7C8FB0546002D47D16A4A3A
:104C8000936D23F4E053D4F898100B43936516E02A
:104C9000022104F12800FFF73DFC0546B4E72E464B
:104CA000D7E7012635460AE0B3F5805FE5D0B3F5D6
:104CB000A05FE2D0B3F5406FDFD001263546236810
:104CC00013F0800F33D0D4F89C30B3F5804F00F050
:104CD000A18021D843B1B3F5005F1AD1002104F1BE
:104CE0000800FFF791FB0546002D40F09A804E4AE0
:104CF000936D23F46043D4F89C100B43936516E046
:104D0000022104F12800FFF705FC0546B5E72E4611
:104D1000D5E7012635460AE0B3F5004FE4D0B3F5F8
:104D2000204FE1D0B3F5C04FDED0012635462368D1
:104D300013F0080F0CD0D4F88030B3F5805F75D035
:104D4000394A536D23F44053D4F880100B43536514
:104D5000236813F0100F0CD0D4F89430B3F5807F93
:104D60006DD0314A936D23F44073D4F894100B4303
:104D70009365236813F4002F0BD0D4F8A030B3F55B
:104D8000803F75D0B3F5003F68D0002B60D001267E
:104D90003546236813F4802F0CD0D4F88430B3F553
:104DA000001F7DD0B3F5401F70D0B3F5801F68D0D1
:104DB00001263546236813F4803F08D0236D002B6D
:104DC00077D0B3F5803F00F0828001263546236816
:104DD00013F0005F40F08480236813F4003F00F07C
:104DE0008C80E36FB3F5807F00F0DF8040F282803B
:104DF000B3F5007F03D0B3F5407F40F0D480002DA1
:104E000040F0D980084A536D23F44073E16F0B439F
:104E1000536572E0022104F12800FFF77BFB054691
:104E200062E72E4683E700BF00440258022104F1E6
:104E30002800FFF76FFB002882D0012680E70221BF
:104E400004F12800FFF766FB00288AD0012688E7D6
:104E5000002104F10800FFF7D7FA05467DB9724A30
:104E6000936D23F44033D4F8A0100B43936590E77F
:104E7000022104F12800FFF74DFB0546EEE72E4620
:104E800087E7694AD36A43F40033D3627DB9664A3F
:104E9000536D23F44013D4F884100B43536589E712
:104EA000012104F12800FFF735FB0546EEE72E4609
:104EB00080E75D4AD36A43F40033D36275B95A4A36
:104EC000D36C23F48033216D0B43D3647FE702213D
:104ED00004F10800FFF798FA0546EFE72E4676E75B
:104EE000022104F12800FFF715FB00283FF474AFFE
:104EF000012671E7002B82D00126236813F4801F5E
:104F000006D0494A136D23F00043216F0B4313650C
:104F1000236813F4001F06D0434A136D23F08073F7
:104F2000A16E0B431365236813F0804F09D03E4BED
:104F30001A6922F400421A611A69D4F8B4100A43BB
:104F40001A612368002B06DA374AD36C23F04053EA
:104F5000616D0B43D364236813F4000F07D0324A0A
:104F6000536D23F44003D4F888100B4353656368F2
:104F700013F0010F21D1636813F0020F26D163688B
:104F800013F0040F2BD1636813F0080F30D163685E
:104F900013F0100F35D1636813F0200F3AD106B12A
:104FA00001263046F8BD0126A7E71F4AD36A43F41D
:104FB0000033D36223E72E469FE7002104F1080067
:104FC000FFF722FA0028D6D00646D4E7012104F1E3
:104FD0000800FFF719FA0028D1D00646CFE70221D2
:104FE00004F10800FFF710FA0028CCD00646CAE703
:104FF000002104F12800FFF78DFA0028C7D00646EB
:10500000C5E7012104F12800FFF784FA0028C2D087
:105010000646C0E7022104F12800FFF77BFA0028CA
:10502000BDD00126BDE700BF0044025810B402689D
:105030005369916941F00801916101688A6942F000
:1050400010028A6101680A6822F001020A600168A0
:105050000C69294A22400A6101688A6822F44042A8
:105060008A6090F88120D2B2042A0DD013F0200F6C
:105070000AD0D0F8842042F08002C0F88420016871
:105080008A6942F020028A6190F88120D2B2032A14
:105090000DD013F0400F0AD0D0F8842042F0040263
:1050A000C0F8842001688A6942F040028A6113F4E2
:1050B000007F0AD0D0F8842042F00102C0F884209A
:1050C00001688A6942F400728A6113F4807F0AD011
:1050D000D0F8843043F00803C0F884300268936944
:1050E00043F4807393610023A0F86230A0F86A3023
:1050F0005DF8044B704700BF90FCFFFFC36B5B097A
:10510000C0680830C00803FB000070472DE9F84371
:1051100080460F4616461D46DDF8209000E0BDB1E2
:10512000D8F800305C6937EA04040CBF012300237F
:10513000B3420AD1FCF70CFDA0EB0900A842EED364
:10514000B5F1FF3FEBD0032000E00020BDE8F8837D
:105150000320FBE7002800F0B78070B50446002369
:10516000836205685C4B5D4E9D4218BFB54214BF1B
:105170000126002607D0A3F574439D4203D0C368DF
:105180000F2B00F2A3802046FFF7B8FF2EB1544B3F
:105190009D4202D0082800F29B804F4A4F4B9D420F
:1051A00018BF954203D003F580639D4202D11028B9
:1051B00000F2908094F88130F3B1022384F88130BA
:1051C0002268136823F00103136023689A6802F4CD
:1051D000F812A169B1F1806F14D0636813F4800FE5
:1051E00023D0E368062B20D921680B6823F4807351
:1051F000206D03430B601DE084F880302046FCF7EF
:10520000E7F9DAE76168B1F5800F06D00029E4D14B
:10521000A16BB1F1805FE0D102E0A06B0028F5D175
:10522000196841F480511960D7E721680B6823F4AD
:1052300080730B60E369A16A0B431343E26B134372
:10524000E16822680B439360636B626A1343A26B4D
:105250001343A26913432269134362691343226A09
:10526000134362681343E26C1343A2681343A26CB6
:105270001343A16D22680B43D36063686BB9226846
:10528000936823F4C05343F40063936022689368E7
:1052900023F4C06343F4806393602268136D23F0AA
:1052A00001031365636813F4800F06D02268D36886
:1052B00023F00043616D0B43D3600020C4F88400E9
:1052C000012384F8813070BD012070470120FAE786
:1052D0000120F8E70120F6E70030014000380040E7
:1052E000003C00402DE9F04F83B01D460C9ED0F8E5
:1052F00000B090F88030012B00F078810446894698
:105300009246012380F88030FCF722FC074694F88F
:1053100081805FFA88F8B8F1010F37D1BAF1000F38
:1053200018BFB9F1000F37D0002D35D0052384F810
:1053300081300023C4F88430C4F864A0A4F86A5013
:10534000A4F86850C4F85C90A4F86250A4F86050C7
:10535000236763672268D36823F4C023D36022687D
:105360005168A44B0B402B4353602268136843F0F1
:10537000010313606368B3F5800F14D0E3680F2B4B
:105380006AD8072B00F2BE80A946C7E0002384F844
:1053900080304FF0020802E0002384F8803040465D
:1053A00003B0BDE8F08F2268136843F40073136004
:1053B000E4E7FCF7CDFBC01BB04202D3B6F1FF3FE0
:1053C00038D1002E36D045EA09039BB2002B00F0FD
:1053D000EE8023685A6912F0020F10D07DB1E26DA1
:1053E00012681A62E36D0433E365B4F862309BB26D
:1053F000013B9BB2A4F86230B4F86250ADB22368AE
:10540000596948F208021142D3D0B9F1000FD0D047
:10541000626E1B6B1360636E04336366B4F86A30AC
:105420009BB2013B9BB2A4F86A30B4F86A901FFAB1
:1054300089F9BEE72046FFF7F9FD002384F88030A4
:10544000D4F8843043F48073C4F88430012384F8A2
:1054500081304FF00308A2E7A946B4E7FCF778FBD8
:10546000C01BB04202D3B6F1FF3F39D1002E37D076
:1054700045EA09039BB2002B00F0998023685B6921
:1054800013F0020F11D085B1E36D1B88ABF820300B
:10549000E36D0233E365B4F862309BB2013B9BB22B
:1054A000A4F86230B4F86250ADB223685B6913F0BF
:1054B000010FD3D0B9F1000FD0D0636EBBF830200C
:1054C0001A80636E02336366B4F86A309BB2013BA4
:1054D0009BB2A4F86A30B4F86A901FFA89F9BDE764
:1054E0002046FFF7A3FD002384F88030D4F88430F1
:1054F00043F48073C4F88430012384F881304FF082
:1055000003084CE7A946B3E7FCF722FBC01BB042F7
:1055100002D3B6F1FF3F38D1002E36D045EA090359
:105520009BB2002B43D023685A6912F0020F11D0AE
:1055300085B1E26D127883F82020E36D0133E365D5
:10554000B4F862309BB2013B9BB2A4F86230B4F86D
:105550006250ADB223685A6912F0010FD4D0B9F18C
:10556000000FD1D0626E93F830301370636E013348
:105570006366B4F86A309BB2013B9BB2A4F86A3010
:10558000B4F86A901FFA89F9BEE72046FFF74EFD8E
:10559000002384F88030D4F8843043F48073C4F856
:1055A0008430012384F881304FF00308F7E6009738
:1055B0003346002208212046FFF7A8FD28B1D4F881
:1055C000843043F02003C4F884302046FFF72EFDDA
:1055D000002384F88030012384F88130D4F88430AB
:1055E000002B7FF4DCAE4FF00008D8E64FF0020845
:1055F000D5E600BF0000FFFF704770477047704757
:1056000008B5806B0023A0F86A30A0F8623001234F
:1056100080F88130FFF7F3FF08BD70472DE9F843AC
:10562000044606683269736902EA0305D6F80890F1
:1056300090F88170FFB213F4006F02D012F0080FDF
:105640003FD105F06403042B42D0002305F0450848
:10565000B8F1010F44D005F02602022A45D0002BF4
:1056600046D115F0080F79D02268936943F00803FA
:1056700093612268936943F01003936122689369F0
:1056800043F4006393612268136923F008031361F4
:1056900023689B6813F4404F3BD02046FFF7C6FCBD
:1056A000012384F88130D4F88430002B4AD1052FAF
:1056B0004CD0042F4ED0032F1AD12046FFF79CFF69
:1056C00016E0B36943F40063B361FFF7A6FF0FE090
:1056D000636F20469847236F204698470123B5E71C
:1056E000236F204698474346B5E7636F20469847A7
:1056F000BDE8F883072B1CD9636E328E1A80636E67
:1057000002336366B4F86A309BB2013B9BB2A4F8E3
:105710006A30B4F86A309BB2002BBED0E3680F2B1E
:10572000E8D92268636E126B1A60636E0433636695
:10573000E8E72268636E92F830201A70636E0133D6
:105740006366DFE72046FFF75AFFD1E72046FFF701
:1057500055FFCDE72046FFF750FFC9E715F4587F06
:10576000C6D015F0400F0AD0D4F8843043F00403BB
:10577000C4F884302268936943F04003936115F4C0
:10578000007F0AD0D4F8843043F00103C4F8843099
:105790002268936943F40073936115F4807F0AD003
:1057A000D4F8843043F00803C4F884302268936945
:1057B00043F48073936115F0200F0AD0D4F884303D
:1057C00043F08003C4F884302268936943F02003D7
:1057D0009361D4F88430002B8AD02268136823F0B8
:1057E00001031360226811691A4B0B40136109F41D
:1057F0004049B9F5404F25D12268936823F44043CE
:105800009360E36F5BB1144A1A65E06FFCF70EFD1D
:1058100028B1D4F8843043F04003C4F88430A36F37
:10582000002B3FF465AF0C4A1A65A06FFCF7FEFC35
:1058300000283FF45DAFD4F8843043F04003C4F84F
:10584000843055E7012384F881302046FFF7D7FEE6
:105850004EE700BF94FCFFFF01560008F0B4036A56
:1058600023F001030362026A466884691E4B2340E9
:105870000D681D4322F002028B6813431B4A1C4C27
:10588000A04218BF90420CBF012200220CD004F5A8
:105890008044A04214BF00240124164FB84203D014
:1058A00014B9154CA04205D123F00803CC6823435A
:1058B00023F004035AB9114A904214BF0022012276
:1058C0000C4CA04203D012B90B4A904205D126F4E9
:1058D00040764A6932438E691643466085614A685C
:1058E00042630362F0BC70478CFFFEFF0000014082
:1058F00000040140004001400048014000440140D4
:1059000070B4036A23F480730362036A4568C46950
:105910001A4A22400E68164323F400738A6843EA49
:105920000223174A174CA04218BF90420CBF012215
:10593000002206D123F40063CC6843EA042323F455
:1059400080635AB9104A904214BF002201220F4CC2
:10595000A04203D012B90E4A904207D125F440521A
:105960004C6942EA04128C6942EA04154560C6613A
:105970004A68C263036270BC704700BF8CFFFEFFC1
:10598000000001400004014000440140004001408B
:105990000048014070B4036A23F480530362036A31
:1059A0004468C569144A2A400D6842EA052223F476
:1059B00000538D6843EA0533104E114DA84218BFBD
:1059C000B0420DD005F58045A84214BF0025012541
:1059D00006F58046B04203D015B90A4DA84204D15D
:1059E00024F480444D6944EA85144460C2614A68E5
:1059F0000264036270BC7047FF8CFFFE0000014030
:105A0000000401400048014070B4036A23F480336D
:105A10000362036A4268456D144E2E400D682E43A2
:105A200023F400338C6843EA0443114D114CA04227
:105A300018BFA8420DD004F58044A04214BF002432
:105A4000012405F58045A84203D014B90A4CA042B0
:105A500004D122F480324C6942EA04224260466555
:105A60004A688265036270BC704700BF8FFFFEFF0B
:105A700000000140000401400048014070B4036A86
:105A800023F480130362036A4468456D144A2A4074
:105A90000D6842EA052223F400138D6843EA05539A
:105AA000104E114DA84218BFB0420DD005F58045EB
:105AB000A84214BF0025012506F58046B04203D058
:105AC00015B90A4DA84204D124F480244D6944EA52
:105AD0008524446042654A68C265036270BC7047B1
