:020000040800F2
:1000000000000524DD2500089D2300089F2300082B
:10001000A1230008A3230008A52300080000000076
:10002000000000000000000000000000516F000808
:10003000A723000800000000F16F000855700008B9
:100040002D2600082D2600082D2600082D26000844
:100050002D2600082D2600082D2600082D26000834
:100060002D2600082D2600082D260008A9230008AB
:10007000B92300082D2600082D2600082D2600088B
:100080002D2600082D2600082D260008C92300086B
:10009000D92300082D2600082D2600082D2600084B
:1000A0002D2600082D2600082D2600082D260008E4
:1000B000E92300082D2600082D2600082D2600081B
:1000C0002D2600082D2600082D2600082D260008C4
:1000D000F92300082D2600082D2600082D260008EB
:1000E0002D2600082D260008000000002D260008FF
:1000F0002D2600082D2600082D2600082D26000894
:100100002D2600082D2600082D2600082D26000883
:100110002D2600082D2600082D2600082D26000873
:100120002D2600082D2600082D2600082D26000863
:100130002D2600082D2600082D2600082D26000853
:1001400000000000000000000000000000000000AF
:100150002D2600082D2600082D2600082D26000833
:100160002D2600082D2600082D2600082D26000823
:100170002D2600082D2600082D260008000000006E
:100180002D2600082D2600082D2600082D26000803
:100190002D2600082D2600082D2600082D260008F3
:1001A0002D2600082D2600082D260008000000003E
:1001B0002D2600082D2600082D2600082D260008D3
:1001C0002D2600082D260008000000000000000079
:1001D00000000000000000002D26000800000000C4
:1001E000000000000000000000000000000000000F
:1001F00000000000000000002D2600082D26000849
:100200002D2600082D260008000000002D260008DD
:100210002D2600082D2600082D2600082D26000872
:100220002D260008000000002D2600080000000018
:100230002D2600082D260008000000002D260008AD
:100240002D2600082D2600082D2600082D26000842
:100250002D2600082D2600082D2600082D26000832
:100260002D2600082D2600082D2600082D26000822
:100270002D2600082D2600082D260008000000006D
:100280002D2600082D2600082D2600082D26000802
:10029000000000002D2600082D26000800000000A8
:1002A000000000002D2600082D2600082D2600083D
:1002B0002D2600082D2600082D26000809240008F8
:0C02C0002D2600082D2600082D26000821
:1002D0000348044B834202D0034B03B118477047D5
:1002E0006004002460040024000000000548064962
:1002F0000B1AD90F01EBA301491002D0034B03B134
:1003000018477047600400246004002400000000C7
:1003100010B5064C237843B9FFF7DAFF044B13B14D
:100320000448AFF300800123237010BD6004002453
:10033000000000007495000808B5044B1BB1044987
:100340000448AFF30080BDE80840CFE7000000009C
:10035000640400247495000881F0004102E000BFAD
:1003600083F0004330B54FEA41044FEA430594EA75
:10037000050F08BF90EA020F1FBF54EA000C55EAB0
:10038000020C7FEA645C7FEA655C00F0E2804FEA81
:100390005454D4EB5555B8BF6D420CDD2C4480EA63
:1003A000020281EA030382EA000083EA010180EA93
:1003B000020281EA0303362D88BF30BD11F0004FE1
:1003C0004FEA01314FF4801C4CEA113102D0404217
:1003D00061EB410113F0004F4FEA03334CEA133352
:1003E00002D0524263EB430394EA050F00F0A7806A
:1003F000A4F10104D5F1200E0DDB02FA0EFC22FA65
:1004000005F2801841F1000103FA0EF2801843FA58
:1004100005F359410EE0A5F120050EF1200E012A49
:1004200003FA0EFC28BF4CF0020C43FA05F3C01887
:1004300051EBE37101F0004507D54FF0000EDCF100
:10044000000C7EEB00006EEB0101B1F5801F1BD3A9
:10045000B1F5001F0CD349085FEA30004FEA3C0CAD
:1004600004F101044FEA445212F5800F80F09A80A3
:10047000BCF1004F08BF5FEA500C50F1000041EBA7
:10048000045141EA050130BD5FEA4C0C404141EBAB
:100490000101013C28BFB1F5801FE9D291F0000FA6
:1004A00004BF01460020B1FA81F308BF2033A3F155
:1004B0000B03B3F120020CDA0C3208DD02F1140C4C
:1004C000C2F10C0201FA0CF021FA02F10CE002F187
:1004D0001402D8BFC2F1200C01FA02F120FA0CFC80
:1004E000DCBF41EA0C019040E41AA2BF01EB0451C9
:1004F000294330BD6FEA04041F3C1CDA0C340EDCC7
:1005000004F11404C4F1200220FA04F001FA02F309
:1005100040EA030021FA04F345EA030130BDC4F1C7
:100520000C04C4F1200220FA02F001FA04F340EABC
:100530000300294630BD21FA04F0294630BD94F06D
:10054000000F83F4801306BF81F480110134013D54
:100550004EE77FEA645C18BF7FEA655C29D094EAC5
:10056000050F08BF90EA020F05D054EA000C04BF43
:100570001946104630BD91EA030F1EBF002100202E
:1005800030BD5FEA545C05D14000494128BF41F0CD
:10059000004130BD14F580043CBF01F5801130BD31
:1005A00001F0004545F0FE4141F470014FF00000BC
:1005B00030BD7FEA645C1ABF194610467FEA655C6D
:1005C0001CBF0B46024650EA013406BF52EA03350F
:1005D00091EA030F41F4002130BD00BF90F0000FFD
:1005E00004BF0021704730B54FF4806404F1320439
:1005F0004FF000054FF0000150E700BF90F0000FF2
:1006000004BF0021704730B54FF4806404F1320418
:1006100010F0004548BF40424FF000013EE700BFE8
:1006200042004FEAE2014FEA31014FEA02701FBF78
:1006300012F07F4393F07F4F81F06051704732F0AA
:100640007F4208BF704793F07F4F04BF41F4002101
:10065000704730B54FF4607401F0004521F000415F
:100660001CE700BF50EA010208BF704730B54FF0E9
:1006700000050AE050EA010208BF704730B511F0EA
:10068000004502D5404261EB41014FF4806404F122
:1006900032045FEA915C3FF4D8AE4FF003025FEAA8
:1006A000DC0C18BF03325FEADC0C18BF033202EB2C
:1006B000DC02C2F1200300FA03FC20FA02F001FA86
:1006C00003FE40EA0E0021FA02F11444BDE600BF29
:1006D00070B54FF0FF0C4CF4E06C1CEA11541DBFD8
:1006E0001CEA135594EA0C0F95EA0C0F00F0DEF8A3
:1006F0002C4481EA030621EA4C5123EA4C5350EA88
:10070000013518BF52EA033541F4801143F48013D8
:1007100038D0A0FB02CE4FF00005E1FB02E506F069
:100720000042E0FB03E54FF00006E1FB03569CF0BE
:10073000000F18BF4EF0010EA4F1FF04B6F5007FC4
:1007400064F5407404D25FEA4E0E6D4146EB060636
:1007500042EAC62141EA55514FEAC52040EA5E50BF
:100760004FEACE2EB4F1FD0C88BFBCF5E06F1ED869
:10077000BEF1004F08BF5FEA500E50F1000041EBA0
:10078000045170BD06F0004646EA010140EA02004D
:1007900081EA0301B4EB5C04C2BFD4EB0C0541EA6F
:1007A000045170BD41F480114FF0000E013C00F384
:1007B000AB8014F1360FDEBF002001F0004170BDA8
:1007C000C4F10004203C35DA0C341BDC04F11404C1
:1007D000C4F1200500FA05F320FA04F001FA05F24D
:1007E00040EA020001F0004221F0004110EBD3701A
:1007F00021FA04F642EB06015EEA430E08BF20EA46
:10080000D37070BDC4F10C04C4F1200500FA04F3E8
:1008100020FA05F001FA04F240EA020001F000417A
:1008200010EBD37041F100015EEA430E08BF20EAED
:10083000D37070BDC4F1200500FA05F24EEA020E35
:1008400020FA04F301FA05F243EA020321FA04F064
:1008500001F0004121FA04F220EA020000EBD3701B
:100860005EEA430E08BF20EAD37070BD94F0000F1B
:100870000FD101F00046400041EB010111F4801F4F
:1008800008BF013CF7D041EA060195F0000F18BF00
:10089000704703F00046520043EB030313F4801F3C
:1008A00008BF013DF7D043EA0603704794EA0C0FF6
:1008B0000CEA135518BF95EA0C0F0CD050EA41060C
:1008C00018BF52EA4306D1D181EA030101F0004189
:1008D0004FF0000070BD50EA410606BF10461946B1
:1008E00052EA430619D094EA0C0F02D150EA0136BD
:1008F00013D195EA0C0F05D152EA03361CBF1046FE
:1009000019460AD181EA030101F0004141F0FE419C
:1009100041F470014FF0000070BD41F0FE4141F420
:10092000780170BD70B54FF0FF0C4CF4E06C1CEA20
:1009300011541DBF1CEA135594EA0C0F95EA0C0FD5
:1009400000F0A7F8A4EB050481EA030E52EA033590
:100950004FEA013100F088804FEA03334FF08055B1
:1009600045EA131343EA12634FEA022245EA1115DE
:1009700045EA10654FEA00260EF000419D4208BF8F
:10098000964244F1FD0404F5407402D25B084FEA3C
:100990003202B61A65EB03055B084FEA32024FF4E8
:1009A00080104FF4002CB6EB020E75EB030E22BF45
:1009B000B61A754640EA0C005B084FEA3202B6EB05
:1009C000020E75EB030E22BFB61A754640EA5C00B4
:1009D0005B084FEA3202B6EB020E75EB030E22BF44
:1009E000B61A754640EA9C005B084FEA3202B6EB45
:1009F000020E75EB030E22BFB61A754640EADC0004
:100A000055EA060E18D04FEA051545EA16754FEA65
:100A100006164FEAC30343EA52734FEAC2025FEA83
:100A20001C1CC0D111F4801F0BD141EA00014FF012
:100A300000004FF0004CB6E711F4801F04BF0143E3
:100A40000020B4F1FD0C88BFBCF5E06F3FF6AFAEFF
:100A5000B5EB030C04BFB6EB020C5FEA500C50F18F
:100A6000000041EB045170BD0EF0004E4EEA113112
:100A700014EB5C04C2BFD4EB0C0541EA045170BD19
:100A800041F480114FF0000E013C90E645EA060E5D
:100A90008DE60CEA135594EA0C0F08BF95EA0C0F8B
:100AA0003FF43BAF94EA0C0F0AD150EA01347FF4D3
:100AB00034AF95EA0C0F7FF425AF104619462CE7AA
:100AC00095EA0C0F06D152EA03353FF4FDAE10460D
:100AD000194622E750EA410618BF52EA43067FF45E
:100AE000C5AE50EA41047FF40DAF52EA43057FF4EE
:100AF000EBAE12E74FEA4102B2F1E04324BFB3F597
:100B0000001CDCF1FE5C0DD901F0004C4FEAC00284
:100B10004CEA5070B2F1004F40EB830008BF20F068
:100B20000100704711F0804F21D113F13872BCBF22
:100B300001F00040704741F480114FEA5252C2F177
:100B40001802C2F1200C10FA0CF320FA02F018BFC0
:100B500040F001004FEAC1234FEAD32303FA0CFC13
:100B600040EA0C0023FA02F34FEA4303CCE77FEAA2
:100B7000625307D150EA01331EBF4FF0FE4040F4EC
:100B80004000704701F0004040F0FE4040F400009B
:100B9000704700BF53B94AB9002908BF00281CBFDD
:100BA0004FF0FF314FF0FF3000F06EB9ADF1080C9F
:100BB0006DE904CE00F006F8DDF804E0DDE902237B
:100BC00004B070472DE9F047089D04468C46002B81
:100BD00040F083808A42174647D9B2FA82F242B186
:100BE000C2F1200024FA00F09140974040EA010C45
:100BF00094404FEA1748230CBCFBF8F61FFA87FE17
:100C000008FB16C143EA014306FB0EF1994209D9DC
:100C1000FB1806F1FF3080F01981994240F21681ED
:100C2000023E3B445B1AA4B2B3FBF8F008FB10335E
:100C300044EA034400FB0EFEA64509D93C1900F125
:100C4000FF3380F00581A64540F2028102383C4422
:100C500040EA0640A4EB0E0400261DB1D440002358
:100C6000C5E900433146BDE8F08702B9FFDEB2FABC
:100C700082F2002A50D1CB1B4FEA174E1FFA87F899
:100C80000126B3FBFEFC210C0EFB1C3341EA0341A1
:100C900008FB0CF38B4207D979180CF1FF3002D214
:100CA0008B4200F2E9808446C91AA3B2B1FBFEF080
:100CB0000EFB101143EA014408FB00F8A04507D9D8
:100CC0003C1900F1FF3302D2A04500F2D98018464A
:100CD000A4EB080440EA0C40BFE78B4209D9002D81
:100CE00000F0B1800026C5E9000130463146BDE87C
:100CF000F087B3FA83F6002E4AD18B4202D38242A8
:100D000000F2B880841A61EB030101208C46002DAB
:100D1000A8D0C5E9004CA5E7C2F1200320FA03F6EC
:100D2000974001FA02F04FEA174ED9403043030CC6
:100D3000B1FBFEF61FFA87F80EFB161143EA0143DA
:100D400006FB08F1994204FA02F409D9FB1806F1EE
:100D5000FF3C80F08D80994240F28A80023E3B4405
:100D60005B1A81B2B3FBFEF00EFB103341EA034184
:100D700000FB08F38B4207D9791800F1FF3C73D2CE
:100D80008B4271D902383944CB1A40EA064678E7DB
:100D9000C6F1200C03FA06F422FA0CF31C4320FAE5
:100DA0000CF701FA06F34FEA144E21FA0CF11F4337
:100DB0003B0CB1FBFEF91FFA84F80EFB191143EA54
:100DC000014109FB08FA8A4502FA06F200FA06F325
:100DD00008D9611809F1FF3048D28A4546D9A9F1EE
:100DE00002092144A1EB0A01BFB2B1FBFEF00EFBE8
:100DF000101147EA014700FB08F8B84507D9E71981
:100E000000F1FF312ED2B8452CD90238274440EAF0
:100E10000940A7EB0807A0FB02894F45C646494693
:100E20001AD317D05DB1B3EB0E0267EB010707FAD7
:100E30000CFCF2404CEA0202F740C5E9002700260C
:100E40003146BDE8F0872E4628460BE70646E9E620
:100E50001846FDE64345E5D2B8EB020E69EB040106
:100E60000138DFE70846D2E760468DE78146B9E7FB
:100E7000664675E730464AE7ACF1020C394413E7A1
:100E800002383C4424E700BF704700BF00230146FE
:100E90001A46184600F02EB9014B1868704700BF7B
:100EA0000000002438B50A4C0A4D641BA4100AD077
:100EB00004F18043013B05EB8305013C55F80439FF
:100EC0009847002CF9D1BDE8384008F059BB00BF65
:100ED000D8960008D496000870B50D4E0D4D761BBF
:100EE000B61006D00024013455F8043B9847A642BA
:100EF000F9D1094E094D761B08F03CFBB61006D01F
:100F00000024013455F8043B9847A642F9D170BD3E
:100F1000CC960008CC960008D4960008CC96000821
:100F2000844641EA000313F003036DD1403A41D3F4
:100F300051F8043B40F8043B51F8043B40F8043BB3
:100F400051F8043B40F8043B51F8043B40F8043BA3
:100F500051F8043B40F8043B51F8043B40F8043B93
:100F600051F8043B40F8043B51F8043B40F8043B83
:100F700051F8043B40F8043B51F8043B40F8043B73
:100F800051F8043B40F8043B51F8043B40F8043B63
:100F900051F8043B40F8043B51F8043B40F8043B53
:100FA00051F8043B40F8043B51F8043B40F8043B43
:100FB000403ABDD2303211D351F8043B40F8043BE3
:100FC00051F8043B40F8043B51F8043B40F8043B23
:100FD00051F8043B40F8043B103AEDD20C3205D3F3
:100FE00051F8043B40F8043B043AF9D2043208D0EB
:100FF000D2071CBF11F8013B00F8013B01D30B885D
:1010000003806046704700BF082A13D38B078DD03A
:1010100010F003038AD0C3F10403D21ADB071CBF0C
:1010200011F8013B00F8013B80D331F8023B20F876
:10103000023B7BE7043AD9D3013A11F8013B00F8AF
:10104000013BF9D20B7803704B7843708B78837037
:1010500060467047F0B4860746D0541E002A3CD044
:10106000CAB2034602E014F1FF3436D303F8012B71
:101070009D07F8D1032C29D9CDB245EA05250F2CBF
:1010800045EA054533D9A4F11006360903F12007D6
:1010900007EB061703F1100242E9045542E9025535
:1010A0001032BA42F8D1721C14F00C0F03EB02128A
:1010B00004F00F0613D0331F23F00303043313444B
:1010C00042F8045B9342FBD106F003042CB1C9B291
:1010D0001C4403F8011B9C42FBD1F0BC7047344612
:1010E0001346002CF3D1F8E714460346C2E71A462C
:1010F0002646E0E7F0B4184C2568D5F8484114B30B
:1011000065681F2D24DC38B9AB1C0135656044F8D7
:1011100023100020F0BC704704EB85060127C6F8B9
:10112000882007FA05F2D4F88871022847EA0207F6
:10113000C4F88871C6F80831E6D1D4F88C311A4366
:10114000C4F88C21E0E705F5A674C5F84841D7E757
:101150004FF0FF30DEE700BF1C96000838B52DEDDC
:10116000028B55EC104B00F08FF8184BB0EE408A14
:10117000F0EE608A93F9003001330DD022462B4601
:101180002046294600F06EFC30B920462946002250
:10119000002300F03FFC30B9B0EE480AF0EE680AD8
:1011A000BDEC028B38BDFFF777FE00220023212122
:1011B000016010461946FFF7B5FB41EC180BB0EE85
:1011C000480AF0EE680ABDEC028B38BD30040024FA
:1011D00008B52DED028BB0EE408A00F021F9134BDB
:1011E00093F900300133F0EE408A0FD0B4EE488A14
:1011F000F1EE10FA0AD6B0EE480A00F09DFBF7EEC9
:10120000007AB4EEE70AF1EE10FA04DCB0EE680AF8
:10121000BDEC028B08BDFFF73FFEBDEC028B212326
:1012200003600348BDE8084000F08EBB3004002492
:101230009896000800F0F0B908B52DED028BB0EEDD
:10124000408A00F0A7FA0E4B93F9003001330BD01F
:10125000B4EE488AF1EE10FA06D6DFED0A8AB4EE53
:10126000E88AF1EE10FA02D4BDEC028B08BDFFF75C
:1012700013FE88EEA80ABDEC028B2123036008BD93
:1012800030040024000000002DE9F041634955ECD2
:10129000104BA94300F09F80002D2B4610EE102A22
:1012A00052DD5FEA255E00F0B180C3F31303AEF2B6
:1012B000FF3E43F48013D10F1EF0010F01EB4303F7
:1012C0004FEA420403D0E40F04EB430394004FF0D1
:1012D000000C4FEA6E0E664616254FF40012B11848
:1012E000994202DC5B1A8E1894445B00013D03EBCB
:1012F000D4734FEA52024FEA4404F0D12F46202023
:101300004FF0004209E041D0E10F01384FEA5202AC
:1013100001EB43034FEA440441D0B34202EB050121
:10132000F1DD002901EB020509DBB0469B1BA14260
:1013300088BF03F1FF33641A17444646E4E7002DE3
:10134000F3DB06F10108F1E725F00041214339D034
:10135000002D50D1D40A153B52052146002CF9D05E
:10136000E50256D4002000E028464900CC0200F1F6
:101370000105F9D50C461146AA40C5F1200521FA10
:1013800005F5A3EB000E45EA04038EE7A142BBD8A6
:10139000002901EB0205D2DB98460023CBE723436B
:1013A00012D178084FEA6C0101F17F511CF0010F56
:1013B00001F5001118BF40F0004001EB0E5302464A
:1013C00043EC102BBDE8F0817B1C16BF781C0CF1A0
:1013D000010C4008E6E710EE102A2B4610EE100A2A
:1013E0002946FFF775F922462B46FEF7BBFF41EC75
:1013F000100BBDE8F08120462946FEF7B1FF0246FA
:101400000B46FFF78FFA41EC100BDBE729467346DA
:10141000A8E7114620254FF0FF30B0E70000F07F2D
:1014200038B510EE105A25F00044B4F17E5F2DED72
:10143000048B00F0828079DCB4F17C5F0EDAB4F1C9
:10144000485F80F29680DFED647A70EE277AB7EE1F
:10145000007AF4EEC77AF1EE10FA64DC00F06CFA70
:10146000F7EE007A37EEC00AB6EE008A20EE088A60
:101470009FED5A3A9FED5A4ADFED5A3ADFED5A4A4C
:101480009FED5A5ADFED5A5A9FED5A6A9FED5A7AEC
:10149000DFED5A6ADFED5A8AA8EE034AE8EE234AE6
:1014A000A4EE085AE4EE885AA5EE086AA5EE887AFA
:1014B000E6EE086AE7EE087AE6EE888AB0EE480AB9
:1014C000B0EE679A00F066F94E4B9C4268EE888A4F
:1014D00040DC10EE103A23F47F6323F00F0307EE95
:1014E000903AB1EE676AA6EE278A70EE277AC8EEC8
:1014F000895A88EE275A9FED447ADFED447AF0EE60
:10150000006AA5EE667A30EE000AB0EE675AA6EEE3
:10151000265A90EE257A37EE450A37EEC00A002D9E
:10152000D8BFB1EE400ABDEC048B38BDBDEC048BD6
:1015300070EE407A87EEA70A38BDDFED337A9FED73
:10154000347A60EE277ABDEC048BE0EE077AB0EED9
:10155000670A38BDC8EE896A9FED2E7ADFED2C7AD6
:10156000A0EE260AF0EE006AA0EE267A37EEC70A51
:10157000D5E760EE007ADFED192ADFED193ADFEDED
:101580001B4A9FED183A9FED184ADFED1A6A9FED4E
:10159000185ADFED1A5A9FED186A9FED197AE7EE97
:1015A000A23ABDEC048BE3EEA74AA7EE834AE4EE31
:1015B000A76AA4EE275AE6EEA75AA5EE276AA5EE7B
:1015C000A77AF7EE006AE6EE276A67EE277A87EEDB
:1015D000A67AA0EE070A38BDCAF2497108EF1138A1
:1015E000047F4F3A2EC69D3D613330BF461124BD66
:1015F0002D570140A80A4E3E39D119C090B0A6BE61
:10160000ABAA2A3E9999793F2EBD3BB3DB0F493FE8
:10161000DB0FC93F2EBD3B3310B582B0CDED010AC3
:10162000019B23F00042B2F1FF4FF0EE407A19DC4B
:1016300010EE100A20F00041B1F1FF4F12DCB3F1BF
:101640007E5F51D09C1704F0020444EAD07479B94B
:10165000022C36D09FED440A032C18BFB0EE670A67
:1016600002B010BD9DED017A37EE270A02B010BD21
:10167000F2B1B2F1FF4F27D0B1F1FF4F52D08A1A29
:10168000D2153C2A35DC002B43DA3C3241DA9FED9F
:10169000370A012C58D0022C4DD0002CE6D0DFEDBB
:1016A000347A9FED347A70EE277A37EEC70ADDE799
:1016B0009FED310ADFED317A0028B8BFB0EE670A3E
:1016C000D4E79FED2C0AD1E7B1F1FF4F14D0022CE3
:1016D000F7D0032C3FD0DFED2A7A9FED240A012CAE
:1016E00008BFB0EE670AC1E702B0BDE8104000F0E5
:1016F00055B89FED210ACCE7022C32D0032C2DD017
:10170000DFED207A9FED200A012C08BFB0EE670ABA
:10171000ACE79DED010A87EE800A00F00DF900F0BC
:101720003DF8B6E7DFED147A9FED140A0028A8BF54
:10173000B0EE670A9AE7DFED0E7A9FED0E7A70EE53
:10174000277A37EE670A91E710EE103A03F100436B
:1017500000EE103A8AE79FED040A87E79FED0B0A37
:1017600084E79FED0B0A81E7DB0F49C00000000012
:101770002EBDBB33DB0F4940DB0FC93FDB0FC9BFB9
:1017800000000080DB0F49BFDB0F493FE4CB16C0F0
:10179000E4CB1640B1EEC00A704700BF38B510EE7A
:1017A000105A25F00044B4F1A14FF0EE407A0BDB63
:1017B000B4F1FF4F56DCDFED4E7A9FED4E0A002D5F
:1017C000C8BFB0EE670A38BD4B4B9C425CDCB4F13D
:1017D000445F4ADB4FF0FF3267EEA76ADFED471A3E
:1017E000DFED472A9FED472A9FED473ADFED473A65
:1017F0009FED474ADFED474A9FED475ADFED475AD5
:101800009FED470A9FED476A26EEA67A531CE7EE46
:10181000212AA7EE023AE2EE873AA3EE074AE3EE68
:10182000874AA4EE075AE4EE875AA5EE070AA5EE0A
:10183000876A20EE070AA6EE260A20EE270A20D0A5
:10184000394B03EB8203D3ED046A93ED007A30EE5B
:10185000660A002D70EE677A37EE670AB3DAB1EEEA
:10186000400A38BD30EE000A38BD9FED307A30EEC8
:10187000077AF7EE006AB4EEE67AF1EE10FAA9DD27
:1018800038BD37EEC00A38BD00F056F8284B9C42F0
:101890000FDCA3F5D0039C4220DCF0EE007ABFEE13
:1018A000007AA0EE277A002230EE270AC7EE007AEF
:1018B00092E7204B9C420BDCF7EE087AB7EE007AF9
:1018C000A0EE277A022230EE670AC0EE077A83E79D
:1018D000BFEE007AC7EE007A03227DE7F7EE007ACA
:1018E00030EE677A30EE270A0122C7EE007A73E7FE
:1018F000DB0FC93FDB0FC9BFFFFFDF3ED769853C68
:1019000059DA4B3D21A215BD6BF16EBD356B883D9B
:1019100095879DBD6E2EBA3D388EE3BD2549123E9A
:10192000CDCC4CBEABAAAA3E20960008CAF24971A3
:10193000FFFF973FFFFF1B4010EE103A23F00043DC
:1019400000EE103A704700BF9FED010A704700BFDC
:101950000000C07F4FF0FF3C06E000BF4FF0010CDD
:1019600002E000BF4FF0010C4DF804CD4FEA410CEE
:101970007FEA6C5C4FEA430C18BF7FEA6C5C1BD0BB
:1019800001B050EA410C0CBF52EA430C91EA030F3C
:1019900002BF90EA020F0020704710F1000F91EA99
:1019A000030F58BF994208BF90422CBFD8176FEA67
:1019B000E37040F0010070474FEA410C7FEA6C5C35
:1019C00002D150EA013C07D14FEA430C7FEA6C5C3C
:1019D000D6D152EA033CD3D05DF8040B704700BF68
:1019E0008446104662468C461946634600E000BFB6
:1019F00001B5FFF7B7FF002848BF10F1000F01BD88
:101A00004DF808EDFFF7F4FF0CBF012000205DF852
:101A100008FB00BF4DF808EDFFF7EAFF34BF0120D7
:101A200000205DF808FB00BF4DF808EDFFF7E0FF70
:101A300094BF012000205DF808FB00BF4DF808EDC1
:101A4000FFF7CEFF94BF012000205DF808FB00BF28
:101A50004DF808EDFFF7C4FF34BF012000205DF80A
:101A600008FB00BF4FEA410C7FEA6C5C02D150EAF0
:101A7000013C0AD14FEA430C7FEA6C5C02D152EA86
:101A8000033C02D14FF0000070474FF00100704757
:101A900000B583B00F4BD3F8D82042F00102C3F851
:101AA000D820D3F8D83003F001030193019B002222
:101AB00006210B2000F022FE0B2000F051FE002238
:101AC00006210C2000F01AFE0C2000F049FE03B0A5
:101AD0005DF804FB0044025838B51548154B036007
:101AE00000238360C36003744374837404214161E1
:101AF000012585611324C461052202624162856269
:101B0000C462026343638263C26301640822426465
:101B10008364C264036541658365C3650266436689
:101B2000826601F0E9FE00B938BD00F034FAFBE747
:101B30008004002400A0004010B51748174B036034
:101B400000238360C360037443748374052242617D
:101B5000012484610E21C161026242628462C16219
:101B6000026340F2563141638263C263036404221C
:101B7000426482640821C164036542658365C3656C
:101B8000026643660623836601F0B6FE00B910BD07
:101B900000F001FAFBE700BF2005002400A400408C
:101BA00010B51748174B036000238360C3600374AC
:101BB0004374837405224261012484610E21C16152
:101BC000026242628462C162026340F2AD614163BB
:101BD0008263C26302220264042242648364C26498
:101BE000036542658365C3650321016643668266BA
:101BF00001F082FE00B910BD00F0CDF9FBE700BF97
:101C0000C005002400D4004030B58DB000230793F8
:101C1000089309930A930B930368584A934207D099
:101C2000574A93423BD0574A93426FD00DB030BDD4
:101C3000554A136801331360012B22D0534BD3F85C
:101C4000E02042F00802C3F8E020D3F8E03003F0CF
:101C500008030293029B03230793022308930024A3
:101C600009940A9409230B9307A9494802F0D4FA6E
:101C700022460621132000F041FD132000F070FDE4
:101C8000D4E7424BD3F8EC2042F48072C3F8EC2046
:101C9000D3F8EC3003F480730193019BCEE73A4A0A
:101CA000136801331360012B22D0384BD3F8E020A6
:101CB00042F00202C3F8E020D3F8E03003F0020360
:101CC0000493049B60230793022308930024099440
:101CD0000A9409230B9307A92E4802F09DFA224685
:101CE0000521142000F00AFD142000F039FD9DE7C5
:101CF000264BD3F8EC2042F48072C3F8EC20D3F8E2
:101D0000EC3003F480730393039BCEE71E4A136801
:101D100001331360012B23D01C4BD3F8E02042F099
:101D20000802C3F8E020D3F8E03003F0080306937C
:101D3000069B4FF440530793022308930024099411
:101D40000A9405250B9507A9114802F065FA224669
:101D500029469F2000F0D2FC9F2000F001FD65E79E
:101D60000A4BD3F8EC2042F48072C3F8EC20D3F88D
:101D7000EC3003F480730593059BCDE700A0004091
:101D800000A4004000D400407C0400240044025819
:101D9000000C02580004025808B5012005F032F882
:101DA000FBE708B506F012F8FCE708B505F0B8FE49
:101DB000FCE7000070B590B0134C0BAD26460FCE7B
:101DC0000FC533682B6000210BA805F001F80F4BFD
:101DD000186006AD04F114060FCE0FC533682B60F2
:101DE000002106A804F0F4FF094B186001AD283467
:101DF0000FCC0FC523682B60002101A804F0E8FF79
:101E0000044B186010B070BD8C9500086806002463
:101E100064060024600600242DE9F0438DB0002400
:101E20000794089409940A940B94524BD3F8E02039
:101E300042F00402C3F8E020D3F8E02002F00402EC
:101E40000192019AD3F8E02042F08002C3F8E0202A
:101E5000D3F8E02002F080020292029AD3F8E02048
:101E600042F00102C3F8E020D3F8E02002F00102C2
:101E70000392039AD3F8E02042F00202C3F8E02074
:101E8000D3F8E02002F002020492049AD3F8E02092
:101E900042F01002C3F8E020D3F8E02002F0100274
:101EA0000592059AD3F8E02042F00802C3F8E0203A
:101EB000D3F8E03003F008030693069B2E4E22462B
:101EC0004FF4C041304602F097FA01220921304612
:101ED00002F092FADFF8A89001220421484602F0AD
:101EE0008BFA264F01224FF40851384602F084FA4B
:101EF0004FF4C04307930125089509940A9407A954
:101F0000304602F089F909230793089509944FF0A8
:101F10000308CDF8288007A9304602F07DF907951F
:101F20000894099507A9484602F076F90423079317
:101F300008950995CDF8288007A9484602F06CF964
:101F40004FF40853079308950995CDF8288007A901
:101F5000384602F061F94FF4A05307934FF4881309
:101F60000893099407A9384602F056F90DB0BDE868
:101F7000F08300BF004402580008025800100258C5
:101F80000000025808B50368B3F1804F00D008BDC7
:101F900000F07CFBFBE772B6FEE7000000B59DB0E9
:101FA0004C22002109A8FFF755F82022002101A8A2
:101FB000FFF750F8022002F025FA00230093204B8F
:101FC0009A6922F440429A619B6903F4404300936A
:101FD000009B1B4B9B6913F4005FFAD0012209920E
:101FE0004FF480330A9302231293139314932821FE
:101FF00015911692179318930C23199300231A9393
:102000001B9309A802F028FAA8B93F2301930321E2
:10201000029100230393082304934023059306931E
:102020004FF480620792089301A802F005FE20B9E0
:102030001DB05DF804FBFFF7AEFFFFF7ACFF00BF7C
:102040000048025800B5AFB0902200210AA8FFF75F
:1020500001F84FF400420023CDE900231823029336
:10206000C823039302230493059306930023079345
:102070002022089209934FF000531B93684603F007
:102080008FF810B92FB05DF804FBFFF784FF000054
:1020900008B500F0CDFAFFF781FFFFF7D3FFFFF798
:1020A000BBFEFFF7F5FC00F02DF8FFF715FDFFF77D
:1020B00043FD00F04FFAFFF773FD4FF4F07006F0A8
:1020C000A3F900210D4806F0FDFF0028F9D10C4CC2
:1020D00001224FF40051204602F08EF901224FF404
:1020E0008041204602F088F906F07AFA06F0ACFA50
:1020F000FFF760FE04F067FEFEE700BF5C07002408
:102100000008025808B51548154B03604FF48003CA
:102110004360002383600722C2604FF000720261B7
:102120004FF0807242614FF0806282614FF08042D6
:10213000C261036243628362C36242638363C363B7
:10214000036443648364C36403654365836503F088
:102150000FFE00B908BDFFF71EFFFBE75C07002478
:10216000003800402DE9F041B8B004460021339119
:102170003491359136913791B82204A8FEF76AFF61
:1021800022684A4B9A4202D038B0BDE8F0814FF441
:1021900080520023CDE9042300231B9304A802F0FE
:1021A000FFFF002879D1424BD3F8E82042F4804267
:1021B000C3F8E820D3F8E82002F480420192019AA3
:1021C000D3F8E02042F00402C3F8E020D3F8E02086
:1021D00002F004020292029AD3F8E02042F00202D6
:1021E000C3F8E020D3F8E03003F002030393039B2D
:1021F000062333934FF00208CDF8D08000253595A3
:10220000032736970526379633A92A4802F004F8A3
:102210004FF400533393CDF8D080359536973796E9
:1022200033A9254801F0F8FF2448254B03602723F4
:1022300043608560C5604FF48063036145618561DB
:10224000C5614FF440330362456200F0D1FB38BBF7
:102250001A4BE3679C631B481B4B036028234360B6
:10226000402383600023C3604FF4806202614361B6
:102270008361C3614FF400320262436200F0B8FB35
:1022800088B9104BA3679C6300220521242000F02D
:1022900035FA242000F064FA76E7FFF77CFE82E747
:1022A000FFF779FED4E7FFF776FEEAE70038004053
:1022B0000044025800080258000402586C0600242A
:1022C00010000240E40600242800024000B583B05C
:1022D0000A4BD3F8F42042F00202C3F8F420D3F8FA
:1022E000F43003F002030193019B00220F216FF0F1
:1022F000010000F003FA03B05DF804FB004402584B
:102300000F2801D90120704710B58AB00446002279
:1023100001461C2000F0F2F91C2000F021FA1B4BB2
:102320001C601B4BD3F8E82042F00102C3F8E82000
:10233000D3F8E83003F001030093009B01A902A841
:1023400002F0F8FD079BC3B902F0E2FD0346114815
:10235000A0FB03239B0C013B0F484FF0804202601F
:1023600040F2E732C260436000230361836004F0FF
:1023700081FB30B101200AB010BD02F0C9FD43005D
:10238000E5E7054804F0C6F9F5E700BF400400247E
:102390000044025883DE1B43E4070024FEE7FEE707
:1023A000FEE7FEE7FEE7704708B5024800F01CFEB6
:1023B00008BD00BF6C06002408B5024800F014FEFA
:1023C00008BD00BFE406002408B5024801F094FDF2
:1023D00008BD00BF8004002408B5024801F08CFD50
:1023E00008BD00BF2005002408B5024804F0E6F946
:1023F00008BD00BFE407002408B5024803F01EFF33
:1024000008BD00BF5C07002408B5024801F074FD58
:1024100008BD00BFC0050024224AD2F8883043F42A
:102420007003C2F88830204B1B6803F00F03062BA3
:1024300006D81D4A136823F00F0343F00703136007
:102440001A4B1A6842F001021A6000221A611968D8
:10245000174A0A401A60144B1B6813F0080F06D085
:10246000114A136823F00F0343F0070313600F4B67
:1024700000229A61DA611A620E4999620E49D962A4
:102480000E4919635A639963DA6319645A641968C7
:1024900021F4802119601A66094B43F2D2021A60B6
:1024A000704700BF00ED00E00020005200440258D9
:1024B0007FEDF6EA000202020000FF018002010146
:1024C0000040005202680A4B9A4200D0704782B026
:1024D000084BD3F8E82042F00202C3F8E820D3F812
:1024E000E83003F002030193019B02B0704700BF84
:1024F000000400400044025800B587B00023019357
:10250000029303930493059302680F4B9A4202D0FF
:1025100007B05DF804FB0D4BD3F8E02042F0020257
:10252000C3F8E020D3F8E03003F002030093009BEF
:10253000022301930293002203920492059301A9BE
:10254000034801F069FEE3E700040040004402583C
:102550000004025800B58BB0002307930893099339
:1025600000930193029303930493059306931948F0
:10257000194A026017224260836042F20F72C26001
:1025800003618023836104F0A5FAC8B9002307938F
:10259000099307A90F4804F0B5FBA0B96023009385
:1025A00000230193029304930C226946094804F026
:1025B0000BFB58B90748FFF79FFF0BB05DF804FB12
:1025C000FFF7E9FCE2E7FFF7E6FCE7E7FFF7E3FCEC
:1025D000F0E700BF3008002400040040DFF834D0EA
:1025E000FFF71AFF0C480D490D4A002302E0D458AA
:1025F000C4500433C4188C42F9D30A4A0A4C00234D
:1026000001E013600432A242FBD3FEF765FCFFF742
:102610003FFD7047000005240000002460040024F2
:10262000D89600086004002418870024FEE7000004
:1026300010B5032000F050F802F004FA0F498B693E
:10264000C3F303230E4AD35C03F01F03D8408B6906
:1026500003F00F03D35C03F01F0320FA03F3094ACE
:102660001360094B18600F20FFF74AFE10B10124D8
:10267000204610BD0446FFF729FEF9E70044025842
:102680006C9600083804002434040024034B1B78A3
:10269000034A11680B441360704700BF3C040024D8
:1026A0007C080024014B1868704700BF7C08002498
:1026B00038B50446FFF7F6FF0546B4F1FF3F02D0F8
:1026C000044B1B781C44FFF7EDFF401BA042FAD3DC
:1026D00038BD00BF3C0400240649CB6823F4E06306
:1026E0001B041B0C000200F4E0600343024A1A437F
:1026F000CA60704700ED00E00000FA0530B4154BE9
:10270000DB68C3F30223C3F10704042C28BF0424AD
:102710001D1D062D14D9033B4FF0FF3505FA04F4B7
:1027200021EA0401994005FA03F322EA030319435D
:10273000002807DB0901C9B2074B195430BC7047A8
:102740000023E9E700F00F000901C9B2034B195457
:10275000F4E700BF00ED00E000E400E014ED00E06D
:10276000002807DB00F01F02400901239340024AC2
:1027700042F82030704700BF00E100E003682749BD
:10278000274A934218BF8B422FD0183293422CD045
:102790001832934229D01832934226D018329342ED
:1027A00023D01832934220D0183293421DD002F524
:1027B0005672934219D01832934216D0183293426F
:1027C00013D01832934210D0183293420DD01832E1
:1027D00093420AD01832934207D01832934204D061
:1027E00023F0FF038365806D704710B4D9B21039B0
:1027F0000C4AA2FB0142C2F302120B4CA25CC2655E
:102800005F2907D9094A1A4004328265806D5DF854
:10281000044B7047054A1A408265F7E710000240F2
:1028200028000240ABAAAAAA7C96000800FCFFFF81
:1028300083699BB9836A012B0AD0022B02D00BB1AA
:1028400000207047C36A13F0807F2AD100207047B0
:10285000C36AB3F1C07F26D000207047B3F5005F94
:102860000AD0836A022B26D9032B26D1C36A13F020
:10287000807F24D100207047836A032B03D8DFE8D0
:1028800003F01404140A00207047C36A13F0807F19
:102890000DD100207047C36AB3F1C07F09D000207A
:1028A00070470120704701207047012070470120C8
:1028B00070470120704701207047002070470120B9
:1028C0007047000003682249224A934218BF8B4296
:1028D00028D01432934225D01432934222D014329D
:1028E00093421FD0143293421CD01432934219D019
:1028F0001432934216D0DAB2103A1749A1FB0212F1
:10290000120916491944A8291FD9154B13449B00D5
:102910000366144B436602F01F02012303FA02F21E
:1029200082667047DBB2083B0F4AA2FB03230F4AC3
:1029300002EB1312920002660D4A4266C3F30413BF
:10294000012202FA03F3836670470832DDE700BF15
:10295000085402581C540258ABAAAAAAF0FBFDBFA7
:102960000082001080080240CDCCCCCC009600162E
:102970008058025801794A1E072A2CD830B40368BF
:10298000154D164CA34218BFAB4218D01434A342C5
:1029900015D01434A34212D01434A3420FD01434EF
:1029A000A3420CD01434A34209D01434A34206D05D
:1029B0000B4B0B449B00C3660A4B036705E00A4BB5
:1029C0000B449B00C366094B0367012303FA02F221
:1029D000426730BC70477047085402581C54025874
:1029E0003F820010400902403F96001640590258AD
:1029F00070B50446FFF756FE002C00F0B581054681
:102A00002368AE49AE4A934218BF8B420CBF0122E5
:102A1000002250D030318B424DD018318B424AD0F9
:102A200018318B4247D018318B4244D018318B4239
:102A300041D018318B423ED001F556718B423AD0CD
:102A400018318B4237D018318B4234D018318B4239
:102A500031D018318B422ED018318B422BD0183107
:102A60008B4228D018318B4225D09649964A934202
:102A700018BF8B4200F03081944A934200F02C81C1
:102A80001432934200F028811432934200F02481E2
:102A90001432934200F020811432934200F01C81E2
:102AA0001432934200F0188140236365032384F8B5
:102AB000353001204AE0022184F83510002184F8E5
:102AC00034107ABB824A93422CD01832934229D0D8
:102AD0001832934226D01832934223D018329342B0
:102AE00020D0183293421DD002F55672934219D06D
:102AF0001832934216D01832934213D018329342B0
:102B000010D0183293420DD0183293420AD01832A6
:102B1000934207D01832934204D01A6822F001027F
:102B20001A6003E01A6822F001021A6023681A682A
:102B300012F0010F0BD0FFF7B5FD431B052BF5D9A4
:102B400020236365032384F83530012070BD1A68A3
:102B500060481040A168E2680A4321690A4361693C
:102B60000A43A1690A43E1690A43216A0A4302430D
:102B7000616A042900F096806168A1F12905A1F13C
:102B80003F00032888BF052D0AD9A1F1470001287D
:102B900006D9A1F14F00032802D97439032901D8BD
:102BA00042F480121A602668756925F00705636A89
:102BB0001D43042B08D1A36A1D43E36A23B12046B9
:102BC000FFF736FE002872D175612046FFF7D6FD6B
:102BD000E36D03F01F023F2393408360236837496E
:102BE000374A934218BF8B4242D0183293423FD0AB
:102BF000183293423CD01832934239D01832934263
:102C000036D01832934233D01832934230D002F586
:102C1000567293422CD01832934229D018329342E4
:102C200026D01832934223D01832934220D0183243
:102C300093421DD0183293421AD01832934217D0C3
:102C4000204A934214D01432934211D0143293424A
:102C50000ED0143293420BD01432934208D0143267
:102C6000934205D01432934202D01432934213D1CE
:102C70002046FFF727FEA368802B68D0236E2279B9
:102C80001A60636EA26E5A606368013B072B61D9BC
:102C90000023E3662367636700206065012384F8EF
:102CA000353053E7E16A206B01430A4364E7402370
:102CB0006365012084F8350048E700BF100002403A
:102CC00028000240085402581C540258305402583C
:102CD000400002403F8010FE022284F8352000228E
:102CE00084F834201A6821491140A268402A2CD067
:102CF000802A27D00022E06842EAD002206942EA16
:102D0000D002606942EAD002A06942EAD002E069DA
:102D100042EAD002206A42EA10120A431A6022688C
:102D2000134B1344134AA2FB03231B099B00E365C7
:102D30002046FFF723FDE26D02F01F0101228A40C9
:102D400042604BE74FF48042D5E71022D3E70023DF
:102D5000636093E72046FFF70DFEE36E00221A60E2
:102D6000236F626F5A6097E70120EFE60F00FEFFC6
:102D7000F8ABFDA7CDCCCCCC002800F0298108B55C
:102D8000024690F83530DBB2022B03D08023436536
:102D9000012008BD0368904890498B4218BF8342C8
:102DA0000CBF0121002166D03030834263D018303F
:102DB000834260D0183083425DD0183083425AD0AD
:102DC0001830834257D01830834254D000F55670E3
:102DD000834250D0183083424DD0183083424AD0BD
:102DE0001830834247D01830834244D01830834291
:102DF00041D0183083423ED0183083423BD019680E
:102E000021F00E0119601368A0F5956073498B429B
:102E100018BF83426AD072498B4267D018318B4207
:102E200064D018318B4261D018318B425ED018319A
:102E30008B425BD018318B4258D001F556718B42D2
:102E400054D018318B4251D018318B424ED01831AA
:102E50008B424BD018318B4248D018318B4245D031
:102E600018318B4242D018318B423FD0196821F083
:102E7000010119603EE0042082F8350081BB584A08
:102E800093422DD0183293422AD01832934227D041
:102E90001832934224D01832934221D018329342F0
:102EA0001ED002F5567293421AD01832934217D0B0
:102EB0001832934214D01832934211D018329342F0
:102EC0000ED0183293420BD01832934208D01832E9
:102ED000934205D01A6822F001021A60002058E7D8
:102EE0001A6822F001021A60002052E7196821F0E6
:102EF000010119601368384838498B4218BF834272
:102F000042D018318B423FD018318B423CD018311F
:102F10008B4239D018318B4236D018318B4233D0A6
:102F200018318B4230D001F556718B422CD01831BC
:102F30008B4229D018318B4226D018318B4223D0B6
:102F400018318B4220D018318B421DD018318B4262
:102F50001AD018318B4217D022498B4214D0143129
:102F60008B4211D014318B420ED014318B420BD0D6
:102F700014318B4208D014318B4205D014318B426E
:102F800002D014318B4217D1116E0B6823F4807379
:102F90000B60906DD36D03F01F0101238B404360E4
:102FA000536E916E5960D36E33B1196821F48071FC
:102FB0001960136F516F5960012382F83530002377
:102FC00082F83430136D2BB1104698470020E0E6AC
:102FD000012070470020DCE610000240280002407B
:102FE0004000024008540258F0B583B00446002364
:102FF0000193A24B1D68A24BA3FB0535AD0A876D5B
:103000003E68D7F800C003689E499F48834218BFB6
:103010008B420CBF0120002061D09C4A93425ED0BD
:10302000183293425BD01832934258D018329342F0
:1030300055D01832934252D0183293424FD002F5F5
:10304000567293424BD01832934248D01832934272
:1030500045D01832934242D0183293423FD01832B2
:1030600093423CD01832934239D01832934236D032
:103070008749884A934218BF8B4212D0864A9342AE
:103080000FD0143293420CD01432934209D0143230
:10309000934206D01432934203D01432934240F04C
:1030A00062821A68E16D01F01F010420884010EA75
:1030B0000C0F00F0A88212F0040F00F0A4827860D8
:1030C00012F4004F00F05B8212F4803F40F0518216
:1030D000A36C002B00F047822046984743E2E26D44
:1030E00002F01F0108228A40324241D070BB674A79
:1030F00093422BD01832934228D01832934225D0D5
:103100001832934222D0183293421FD01832934281
:103110001CD002F55672934218D01832934215D043
:103120001832934212D0183293420FD01832934281
:103130000CD01832934209D01832934206D018327C
:10314000934203D01A68C2F3C00202E01A68C2F3C5
:1031500080026AB11A6822F004021A60E36D03F07B
:103160001F0208239340BB60636D43F00103636556
:10317000E26D02F01F0226FA02F313F0010F37D0BE
:103180002368404840498B4218BF83422CD01831F5
:103190008B4229D018318B4226D018318B4223D054
:1031A00018318B4220D018318B421DD018318B4200
:1031B0001AD001F556718B4216D018318B4213D0BC
:1031C00018318B4210D018318B420DD018318B4200
:1031D0000AD018318B4207D018318B4204D01831F5
:1031E0008B4201D01B6803E05B6913F0800F3BD179
:1031F000E36D03F01F03042202FA03F3334251D0BC
:103200002268204820498A4218BF824246D018319D
:103210008A4243D018318A4240D018318A423DD088
:1032200018318A423AD018318A4237D018318A424E
:1032300034D001F556718A4230D018318A422DD0EF
:1032400018318A422AD018318A4227D018318A424E
:1032500024D018318A4221D018318A421ED0183128
:103260008A421BD013681DE0012303FA02F2BA6000
:10327000636D43F002036365BAE700BF34040024C2
:10328000B5814E1B10000240280002404000024061
:10329000085402581C54025830540258126812F054
:1032A000020F3DD1E36D03F01F03102202FA03F376
:1032B00033425FD022689B489B498A4218BF8242B2
:1032C00034D018318A4231D018318A422ED0183188
:1032D0008A422BD018318A4228D018318A4225D010
:1032E00018318A4222D001F556718A421ED0183117
:1032F0008A421BD018318A4218D018318A4215D020
:1033000018318A4212D018318A420FD018318A42BD
:103310000CD018318A4209D01268C2F3800208E04A
:10332000BB60636D43F004036365BBE71268C2F3DF
:10333000C002FAB1BB6023681A6812F4802F0DD066
:103340001B6813F4002F04D1236C9BB120469847CF
:1033500010E0A36C73B1204698470BE01A6812F492
:10336000807F03D11A6822F008021A60236C0BB127
:1033700020469847E36D03F01F03202202FA03F36F
:10338000334200F08E802268664867498A4218BF3F
:1033900082422ED018318A422BD018318A4228D04E
:1033A00018318A4225D018318A4222D018318A42F7
:1033B0001FD018318A421CD001F556718A4218D0AC
:1033C00018318A4215D018318A4212D018318A42F7
:1033D0000FD018318A420CD018318A4209D01831E6
:1033E0008A4206D018318A4203D01268C2F34002E2
:1033F00002E01268C2F30012002A52D0BB6094F8B7
:103400003530DBB2042B0ED023681A6812F4802FFB
:1034100035D01B6813F4002F2CD1636C002B40D0E7
:10342000204698473DE02268136823F01603136096
:103430002268536923F080035361236CB3B122687F
:10344000136823F008031360E36D03F01F023F23AA
:103450009340BB60012384F83530002384F8343076
:10346000236D002B7FD0204698477CE0A36C002B77
:10347000E5D1E9E7E36BA3B12046984711E01A686C
:1034800012F4807F09D11A6822F010021A60012319
:1034900084F83530002384F83430E36B0BB12046D8
:1034A0009847636D002B5ED0636D13F0010F56D00B
:1034B000042384F8353023681A491B4A934218BF05
:1034C0008B4233D01832934230D0183293422DD0F1
:1034D000183293422AD01832934227D0183293429E
:1034E00024D01832934221D002F5567293421DD057
:1034F000183293421AD01832934217D0183293429E
:1035000014D01832934211D0183293420ED0183290
:1035100093420BD01832934208D01A6822F001026D
:103520001A6007E010000240280002401A6822F0EA
:1035300001021A60019B01330193AB4204D8236856
:103540001B6813F0010FF5D123681B6813F0010FFE
:103550000BD0032384F83530002384F83430E36C37
:103560000BB12046984703B0F0BD012384F83530F5
:10357000F2E7236C002BF6D020469847F3E712F0D1
:10358000200F3AD123686449644A934218BF8B42A2
:103590002FD0183293422CD01832934229D01832AF
:1035A000934226D01832934223D01832934220D02F
:1035B000183293421DD002F55672934219D0183238
:1035C000934216D01832934213D01832934210D03F
:1035D000183293420DD0183293420AD018329342D7
:1035E00007D01832934204D01A6822F004021A60FD
:1035F00003E01A6822F008021A60236C002BB2D094
:1036000020469847AFE70220884010EA0C0F60D0B0
:1036100012F0020F5DD0786012F4004F0ED012F459
:10362000803F05D1636C002B9DD0204698479AE7D8
:10363000E36B002B97D02046984794E712F0200FB9
:1036400040D123683449354A934218BF8B422FD06A
:10365000183293422CD01832934229D01832934218
:1036600026D01832934223D01832934220D01832F9
:1036700093421DD002F55672934219D018329342EC
:1036800016D01832934213D01832934210D0183209
:1036900093420DD0183293420AD01832934207D089
:1036A0001832934204D01A6822F00A021A6003E02A
:1036B0001A6822F014021A60012384F835300023BE
:1036C00084F83430E36B002B3FF44DAF204698472D
:1036D00049E7082000FA01F111EA0C0F3FF443AF6B
:1036E00012F0080F3FF43FAF1A6822F00E021A6082
:1036F000E36D03F01F03012202FA03F37B606265AE
:1037000084F83520002384F83430E36C002B3FF438
:103710002AAF2046984726E71000024028000240C2
:1037200030B4446B0268D2F88410704B194041EAFF
:103730008401C2F884100268D2F8841021F47F0159
:10374000856B41EA0541C2F88410826B224404680B
:10375000D4F88810194041EA8201C4F8881004683E
:10376000D4F8881021F4FE01C56B41EA0541C4F884
:103770008810C16B02EB41020468D4F8A010194014
:1037800041EA8201C4F8A0100468D4F8A01021F422
:10379000FE01056C41EA0541C4F8A010046C416CBF
:1037A00001FB04240268D2F8B010194041EA8401F8
:1037B000C2F8B0100268D2F8B01021F4FE01856C96
:1037C00041EA0541C2F8B010826CC16C01FB0244B1
:1037D0000268D2F8AC10194041EA8401C2F8AC107A
:1037E000026D416D01FB02420468D4F8F0101940EB
:1037F00041EA8201C4F8F0100468D4F8F01021F412
:103800007C11856D41EA0541C4F8F010816D02EB31
:1038100041020468D4F8C0100B4043EA8202C4F8A5
:10382000C0200268D2F8C03023F47C13C16D43EA93
:103830000143C2F8C0300268D2F8C03023F07C5394
:10384000016E43EA0163C2F8C030436B284A1A4450
:103850009200C266836B02EB83030367C16B03EBC9
:10386000C1034367046C416C01FB04F103EB81036A
:103870008367846CC16C01FB04F103EB8103C367B4
:10388000046D416D01FB04F103EB8103C0F880304E
:10389000816D03EBC103C0F88430C46D856E05FBF8
:1038A00004F403EB8403C0F88830016E01FB05F1DA
:1038B00003EB8103C0F890300E498B4207D8D0F853
:1038C000903093420ED9002342F8043BF7E7D0F83A
:1038D0009C3043F02003C0F89C30032380F89830DC
:1038E000012000E0002030BC704700BF0300FFFF54
:1038F000002B0010FCD3004030B595B004464C229C
:10390000A04901A8FDF70CFB002C00F038812368CA
:103910009D4A934220D094F898300BB32268936963
:1039200023F010039361FEF7BDFE054623689A69F4
:1039300012F0080F1AD0FEF7B5FE431B0A2BF5D97B
:10394000D4F89C3043F00103C4F89C30032384F87E
:103950009830012015B030BD03F580736360DAE75D
:1039600084F899302046FEF74FF9D7E79A6942F07C
:1039700001029A61FEF796FE054623689A6912F0E5
:10398000010F0FD1FEF78EFE401B0A28F5D9D4F89F
:103990009C3043F00103C4F89C30032384F8983032
:1039A0000120D7E79A6942F002029A61237C012B39
:1039B00040D02268936943F040039361637C012BFC
:1039C0003ED02268936923F480439361A37C012B4A
:1039D0003CD02268936943F48053936122689369D1
:1039E00023F44073A1680B4393612268936923F029
:1039F000A40393612268136923F010031361E36841
:103A0000012B29D0002B2CD0022B00F09B802268A8
:103A1000936943F0800393612268136943F01003B4
:103A20001361E368032B1CD12268936943F02003E0
:103A3000936116E02268936923F040039361BDE728
:103A40002268936943F480439361BFE722689369D6
:103A500023F480539361C1E72268936943F0040320
:103A60009361A3695A1EE369013B1B0243EA426367
:103A7000226A013A13436269013A216843EA024328
:103A8000CB61A368B3F5407F62D0236E33B1226867
:103A9000D2F8C030616E0B43C2F8C030E36D226EC5
:103AA000D3420DD02168D1F8C83023F00703A26EAD
:103AB00014A800EB820252F84C2C1343C1F8C83012
:103AC000236C6BB12168D1F8BC3023F00703626C22
:103AD00014A800EB820252F84C2C1343C1F8BC30FE
:103AE000A36C73B12168D1F8BC3023F07003E26C91
:103AF00014A800EB820252F84C2C43EA0213C1F8DE
:103B0000BC30236D73B12168D1F8BC3023F4E0637D
:103B1000626D14A800EB820252F84C2C43EA022397
:103B2000C1F8BC302268184B9A4222D00023C4F856
:103B30009430C4F89C30012384F898302046FFF775
:103B4000EFFD07E72268936943F02003936188E75C
:103B5000A36A013BE26A013A43EA0223226B013A7B
:103B600043EA0213626A013A216843EA0243CB60E6
:103B70008BE76268936823F003039360D6E7012024
:103B8000E8E600BFC895000800A0004090F8983013
:103B9000013BDBB2012B07D9D0F89C3043F0020384
:103BA000C0F89C3001207047CB680A68D2B9072B57
:103BB0000ED08A68DB0643EA82730A6943EA02434D
:103BC0004A691343C26E496842F8213000207047A9
:103BD0000A69CB691B0243EA02438A69134343F033
:103BE0006053EFE710B40A6942EA4372072B0ED024
:103BF0008C684B6943EA8473006F496800EBC10429
:103C000040F83120636000205DF8044B70478B69F9
:103C1000F2E710B490F89840E4B2012C09D0D0F843
:103C20009C3043F00403C0F89C3001205DF8044B45
:103C30007047920042EA011242EA43020368019986
:103C40000A43C3F880200020F0E790F89830DBB2F8
:103C5000012B07D0D0F89C3043F00403C0F89C300F
:103C600001207047022380F898300268936923F09E
:103C7000010393610023C0F89C3018467047000090
:103C8000F0B490F89840E4B2022C40F0D280402981
:103C90000CD041293CD0046D8C426BD8D0F89C30BC
:103CA00043F02003C0F89C300120C9E00468D4F838
:103CB000A05015F4FE0F0CD0D4F8A45015F07F0FCF
:103CC0000FD1D0F89C3043F48073C0F89C300120B1
:103CD000B6E0D0F89C3043F02003C0F89C300120BF
:103CE000AEE0D4F8A450C5F3006C15F0807F03D08B
:103CF000D4F8A0504FF0000CD4F8A440C4F305242D
:103D0000A444446F456C0CFB05F504EB850439E0D5
:103D10000468D4F8B05015F4FE0F0CD0D4F8B450A9
:103D200015F07F0F0FD1D0F89C3043F48073C0F8AA
:103D30009C30012084E0D0F89C3043F02003C0F890
:103D40009C3001207CE0D4F8B450C5F3006C15F031
:103D5000807F03D0D4F8B0504FF0000CD4F8B440BA
:103D6000C4F30524A444846FC56C0CFB05F504EB77
:103D7000850407E0C46F456D01FB05F504EB850480
:103D80004FF0000C256805F080455560002D2CD1C2
:103D90002568C5F38A451560256805F000559560CE
:103DA000256805F000451561A588D561656805F4AD
:103DB0007025D560656805F480155561656805F462
:103DC00000159561E57905F07F0515626568ED0FD1
:103DD000556204F108050024D6891A4FBE5DA6423B
:103DE00008D92E5D1E550134F6E7256825F060459B
:103DF0001560D1E740290AD041290DD01F290FD8DD
:103E00000268012303FA01F1C2F8981002E0036886
:103E1000C3F8A8C0002013E00368C3F8B8C0F9E7EE
:103E200001F01F010268012303FA01F1C2F89C109E
:103E3000F0E7D0F89C3043F00803C0F89C30012034
:103E4000F0BC70478496000890F89830013BDBB2D4
:103E5000012B07D9D0F89C3043F00203C0F89C3006
:103E60000120704710B403689C6D0C4224D1DC6DB6
:103E700044F00104DC6511F4007F05D00468D4F837
:103E8000E0301343C4F8E03011F4806F05D00468CB
:103E9000D4F8E4301A43C4F8E4200068436D0C4AB7
:103EA0000A40134343650B4A536943EA91715161D8
:103EB00000205DF8044B70479C6D31EA040402D089
:103EC0000324DC65D7E7DC6D44F00204DC65D2E74F
:103ED000FFFFCF3F00A80040704770477047704712
:103EE000704770477047704770477047704770471A
:103EF00070477047704700002DE9F04F83B00446CB
:103F0000B74B1A695B699B0703EA827301930368E5
:103F10001A6D02F4704A5A6D0AEA020A1A6D02F02A
:103F20000F095A6D09EA02091A6D02F0F0085A6D7C
:103F300008EA02081E6D06F071565A6D16401F6D94
:103F400007F060775A6D17405D6DD3F850B015F4E7
:103F5000807F02D01BF4807F64D115F4806F02D083
:103F60001BF4806F67D1019B002B74D1BAF1000F55
:103F70007CD1B9F1000F40F08580B8F1000F40F01E
:103F80008D8015F4006F03D01BF4006F40F0928019
:103F900015F4007F03D01BF4007F40F0968015F4E9
:103FA000002F03D01BF4002F40F09F8015F4803FBA
:103FB00003D01BF4803F40F0A38015F4802F03D082
:103FC0001BF4802F40F0A78015F4003F0FD01BF4A6
:103FD000003F0CD023684FF400321A65804B00225A
:103FE0001A61D4F89C3043F08003C4F89C30002F51
:103FF00040F09C804EB123681E65B20F784B1A6169
:10400000D4F89C301E43C4F89C602268754B9A42D9
:1040100000F09680D4F89C30002B40F0F88003B07C
:10402000BDE8F08F4FF480721A656D4B00221A6163
:10403000FFF75AFF91E72368D3F8DC10D3F8E420A8
:104040004FF480601865664B0020186111402046CF
:10405000FFF746FF87E7236800221A6501998A0F58
:104060005F4B1A612046FFF737FF7FE72368C3F8ED
:1040700050A04FEA9A725A4B1A6151462046FFF7F8
:104080002CFF76E72368C3F850904FEA9972544B9F
:104090001A614946204604F00BFB6EE72368C3F81B
:1040A00050804FEA98724E4B1A614146204604F008
:1040B00041FB66E723684FF400621A65484B002213
:1040C0001A612046FFF70AFF62E72368D3F8D81089
:1040D000D3F8E0204FF400701865414B00201861C0
:1040E00011402046FFF7FBFE59E723684FF40022FA
:1040F0001A653B4B00221A612046FFF7F2FE55E796
:1041000023684FF480321A65354B00221A6120462D
:10411000FFF7E8FE51E723684FF480221A65304B21
:1041200000221A612046FFF7DEFE4DE723681F6577
:10413000BA0F2B4B1A6139462046FFF7D7FE59E7D5
:1041400063689A6812F0030F3FF464AF196A01F0D4
:104150000F015A6A186A00F03008586A08EA000825
:104160001F6A07F4C077586A07401E6A06F4FC46C7
:10417000586A06401D6A05F4F025586A0540D3F8D0
:104180002490D3F820A011401CD1B8F1000F1ED10B
:1041900019F0400F02D01AF0400F25D187BB36B17D
:1041A00063681E62D4F89C301E43C4F89C60002DE6
:1041B0003FF430AF63681D62D4F89C301D43C4F8EF
:1041C0009C5027E719622046FFF791FEDDE7636800
:1041D000C3F8208041462046FFF78AFED8E700BF9B
:1041E00000A8004000A000406368D96BDA6B402053
:1041F000186202F03F02090C2046FFF77AFECDE775
:1042000063681F6239462046FFF774FEC7E7204601
:10421000FFF76BFE03E700BFF0B482B000235FE05E
:1042200086685F000325BD4026EA0506CD68BD40CF
:1042300035438560466826EA04064D68C5F30014D8
:104240009C403443446059E0DD08083550F825703F
:1042500003F00704A6000F24B44027EA04070C6902
:10426000B4403C4340F825405CE0092400E00024D1
:10427000B4403C4302355C4E46F825404FF0B04414
:104280002568D44325EA02064F6817F4801F01D041
:1042900042EA05064FF0B0452E606E6804EA060556
:1042A0004F6817F4001F01D042EA06054FF0B046F0
:1042B00075604E4D6D6804EA05064F6817F4003FBF
:1042C00001D042EA0506494D6E602D682C404E68CB
:1042D00016F4803F01D042EA0504444A14600133D9
:1042E0000A6832FA03F47BD001249C402240F6D0C5
:1042F0004D6805F00305013D012D91D94C6804F08E
:104300000304032C09D0C5685E000324B44025EAE9
:1043100004058C68B4402C43C4604C6804F003046A
:10432000022C91D005685E000324B44025EA040500
:104330004C6804F00304B4402C4304604C6814F44B
:10434000403FCCD02A4CD4F8F45045F00205C4F8D4
:10435000F450D4F8F44004F002040194019C9D0848
:10436000AE1C214C54F8267003F00304A6000F2461
:10437000B44027EA04071F4CA0423FF478AF04F58D
:104380008064A0421ED004F58064A0421CD004F5D5
:104390008064A0421AD004F58064A04218D004F5CD
:1043A0008064A04216D004F58064A04214D004F5C5
:1043B0008064A04212D004F50064A0423FF455AFDF
:1043C0000A2455E7012453E7022451E703244FE769
:1043D00004244DE705244BE7062449E7072447E773
:1043E00002B0F0BC704700BF0004005880000058C5
:1043F00000440258000002580AB181617047090464
:1044000081617047134BDB6813F0040F07D1114B28
:10441000DB6803F0070383421AD00120704710B510
:104420000C4AD36823F007031843D060FEF73AF92B
:104430000446084B5B6813F4005F07D1FEF732F9BE
:10444000001BB0F57A7FF4D9012000E0002010BDF8
:104450000020704700480258002800F0D78238B585
:104460000446036813F0010F25D0AA4A136903F02C
:104470003803926A102B15D0182B0FD06368B3F550
:10448000803F3FD0002B53D1A24B1A6822F48032D8
:104490001A601A6822F480221A6038E002F00302DF
:1044A000022AEBD19B4B1B6813F4003F03D06368D7
:1044B000002B00F0AD82236813F0020F00F088801B
:1044C000944A1369926A13F038035AD0182B55D0C6
:1044D000E368002B00F0A9808E490A6822F01902D7
:1044E00013430B60FEF7DEF805468A4B1B6813F09A
:1044F000040F40F09180FEF7D5F8401B0228F4D954
:1045000003208CE2834A136843F4803313606368AA
:104510002BB3FEF7C7F805467E4B1B6813F4003F2C
:10452000C9D1FEF7BFF8401B6428F5D9032076E215
:10453000B3F5A02F09D0774B1A6822F480321A60A5
:104540001A6822F480221A60E1E7724B1A6842F47A
:1045500080221A601A6842F480321A60D7E7FEF7A8
:10456000A1F805466B4B1B6813F4003FA3D0FEF780
:1045700099F8401B6428F5D9032050E212F0030F8C
:10458000A6D1644B1B6813F0040F03D0E368002B23
:1045900000F040825F4A136823F01903E1680B437F
:1045A0001360FEF77FF805465A4B1B6813F0040FA3
:1045B00006D1FEF777F8401B0228F5D903202EE23A
:1045C000544A536823F0FE43216943EA0163536070
:1045D000236813F0100F51D04E4A136903F03803CB
:1045E000926A082B39D0182B33D0E369002B68D09E
:1045F000484A136843F080031360FEF753F80546FA
:10460000444B1B6813F4807F52D1FEF74BF8401BDC
:104610000228F5D9032002E23E4A536823F0FE4304
:10462000216943EA01635360D2E73A4A136823F0F1
:1046300001031360FEF736F80546364B1B6813F08E
:10464000040FC5D0FEF72EF8401B0228F5D9032031
:10465000E5E102F00302012AC7D12E4B1B6813F4D7
:10466000807F03D0E369802B40F0D681294AD3684C
:1046700023F07C53216A43EA0163D360236813F07B
:10468000080F49D0636983B3224A536F43F0010393
:104690005367FEF707F805461E4B5B6F13F0020FDA
:1046A0003AD1FDF7FFFF401B0228F5D90320B6E100
:1046B000184AD36823F07C53216A43EA0163D3602C
:1046C000DCE7144A136823F080031360FDF7EAFF68
:1046D0000546104B1B6813F4807FCFD0FDF7E2FF37
:1046E000401B0228F5D9032099E10A4A536F23F0B1
:1046F00001035367FDF7D6FF0546064B5B6F13F0CA
:10470000020F09D0FDF7CEFF401B0228F5D9032088
:1047100085E100BF00440258236813F0200F29D020
:10472000A3699BB1A84A136843F480531360FDF753
:10473000B9FF0546A44B1B6813F4005F1AD1FDF7BF
:10474000B1FF401B0228F5D9032068E19E4A136897
:1047500023F480531360FDF7A5FF05469A4B1B68B1
:1047600013F4005F06D0FDF79DFF401B0228F5D92A
:10477000032054E1236813F0040F21D1636A002B56
:1047800000F04C81904A126902F03802182A00F0B9
:10479000EA80022B75D08C4A136823F08073136073
:1047A000FDF780FF0446884B1B6813F0007F00F084
:1047B000D880FDF777FF001B0228F4D903202EE1F3
:1047C000824A136843F480731360FDF76BFF05465C
:1047D0007E4B1B6813F4807F06D1FDF763FF401BFF
:1047E0006428F5D903201AE1A368012B0AD00BBB7A
:1047F000754B1A6F22F001021A671A6F22F0040239
:104800001A6704E0704A136F43F001031367A3684B
:1048100033B3FDF747FF05466B4B1B6F13F0020FD9
:10482000ACD1FDF73FFF401B41F288339842F3D9EA
:104830000320F4E0052B09D0634B1A6F22F001022C
:104840001A671A6F22F004021A67E0E75E4B1A6FCC
:1048500042F004021A671A6F42F001021A67D6E7A3
:10486000FDF720FF0546584B1B6F13F0020F85D054
:10487000FDF718FF401B41F288339842F3D903201B
:10488000CDE0514A136823F080731360FDF70AFFEF
:1048900005464D4B1B6813F0007F06D0FDF702FF65
:1048A000401B0228F5D90320B9E0474B996A484AD2
:1048B0000A40A16AE06A41EA00110A439A62226B47
:1048C000013AC2F30802616B0139490289B20A4315
:1048D000A16B0139090401F4FE010A43E16B0139BE
:1048E000090601F0FE410A431A63DA6A22F0010266
:1048F000DA62596B374A0A40A16C42EAC1025A6334
:10490000DA6A22F00C02216C0A43DA62DA6A22F0D7
:104910000202616C0A43DA62DA6A42F48032DA62D5
:10492000DA6A42F40032DA62DA6A42F48022DA6247
:10493000DA6A42F00102DA621A6842F080721A60A2
:10494000FDF7B0FE0446204B1B6813F0007F06D134
:10495000FDF7A8FE001B0228F5D903205FE0002028
:104960005DE000205BE018498A6A086B012B57D094
:1049700002F00303A16A8B4254D1C2F30512E36A29
:104980009A4251D1C0F30802236B013B9A424DD1A8
:10499000C0F34622636B013B9A4249D1C0F3064201
:1049A000A36B013B9A4245D1C0F30660E36B013B28
:1049B000984241D1044B5B6BC3F3CC03A26C9A4287
:1049C0000AD100202BE000BF0044025800480258E2
:1049D0000CFCFFFF0700FFFF184AD36A23F0010316
:1049E000D362FDF75FFE0546FDF75CFEA842FBD0F3
:1049F000124A516B124B0B40A16C43EAC103536343
:104A0000D36A43F00103D362002008E0012070471D
:104A1000012004E0012002E0012000E0002038BD78
:104A20000120FCE70120FAE70120F8E70120F6E782
:104A30000120F4E70120F2E70120F0E700440258EA
:104A40000700FFFF744B1B6903F03803102B00F0C5
:104A5000DF80182B10D00BB1704870476E4B1B686D
:104A600013F0200F00F0D6806B4B1868C0F3C10024
:104A70006B4B23FA00F0704710B4674A916A01F05B
:104A80000301946AC4F30510D36A03F00103526B67
:104A9000C2F3CC0203FB02F307EE903AF8EE677A1A
:104AA00014F47C7F00F09480012966D0022900F084
:104AB0009280E1B107EE100AF8EE476A9FED596A5D
:104AC00086EE267A544B1B6BC3F3080306EE903A2E
:104AD000F8EE666A9FED546A67EE867A76EEA77AFC
:104AE000F7EE006A77EEA67A27EE277A61E04A4B66
:104AF0001B6813F0200F23D047490A68C2F3C10294
:104B0000474BD34007EE103AF8EE476A07EE100A1B
:104B1000B8EE476A86EE867A0B6BC3F3080306EE9F
:104B2000903AF8EE666A9FED406A67EE867A76EE16
:104B3000A77AF7EE006A77EEA67A27EE277A38E0B2
:104B400007EE100AF8EE476A9FED386A86EE267A7D
:104B5000314B1B6BC3F3080306EE903AF8EE666A1E
:104B60009FED316A67EE867A76EEA77AF7EE006AF5
:104B700077EEA67A27EE277A1BE007EE100AF8EE0A
:104B8000476A9FED286A86EE267A234B1B6BC3F398
:104B9000080306EE903AF8EE666A9FED236A67EE28
:104BA000867A76EEA77AF7EE006A77EEA67A27EE97
:104BB000277A194B1B6BC3F34623013307EE903A58
:104BC000F8EE677AC7EE276AFCEEE67A17EE900AEF
:104BD0005DF8044B704707EE100AF8EE476A9FED48
:104BE000146A86EE267A0C4B1B6BC3F3080306EEA1
:104BF000903AF8EE666A9FED0C6A67EE867A76EE7A
:104C0000A77AF7EE006A77EEA67A27EE277AD0E742
:104C100008487047024870470044025800093D00A8
:104C20000090D0030024744A000000390024744C22
:104C3000001BB74B00366E01002800F0328170B5C2
:104C40000D4604469B4B1B6803F00F038B420BD2AF
:104C5000984A136823F00F030B431360136803F0A3
:104C60000F038B4240F01F81236813F0040F0CD018
:104C70002269914B9B6903F070039A4205D98E49D2
:104C80008B6923F070031A438A61236813F0080FBD
:104C90000CD06269884BDB6903F070039A4205D936
:104CA0008549CB6923F070031A43CA61236813F066
:104CB000100F0CD0A269804BDB6903F4E0639A42C9
:104CC00005D97D49CB6923F4E0631A43CA6123689F
:104CD00013F0200F0CD0E269774B1B6A03F07003CE
:104CE0009A4205D974490B6A23F070031A430A6289
:104CF000236813F0020F0CD0E2686F4B9B6903F03E
:104D00000F039A4205D96C498B6923F00F031A43AC
:104D10008A61236813F0010F41D0674A936923F435
:104D20007063A1680B4393616368022B0AD0032B65
:104D300027D0012B2CD0604A126812F0040F06D144
:104D40000120ADE0126812F4003F00F0AE805A4935
:104D50000A6922F0070213430B61FDF7A3FC064624
:104D6000554B1B6903F038036268B3EBC20F16D0D2
:104D7000FDF798FC801B41F288339842F0D903205C
:104D80008EE04D4A126812F0007FE0D1012087E0EA
:104D9000494A126812F4807FD9D1012080E023684B
:104DA00013F0020F0CD0E268434B9B6903F00F0332
:104DB0009A4205D240498B6923F00F031A438A6156
:104DC0003C4B1B6803F00F03AB420AD9394A136806
:104DD00023F00F032B431360136803F00F03AB4260
:104DE00065D1236813F0040F0CD02269324B9B6904
:104DF00003F070039A4205D22F498B6923F07003A8
:104E00001A438A61236813F0080F0CD062692A4B99
:104E1000DB6903F070039A4205D22749CB6923F07E
:104E200070031A43CA61236813F0100F0CD0A269F3
:104E3000214BDB6903F4E0639A4205D21E49CB693A
:104E400023F4E0631A43CA61236813F0200F0CD0E7
:104E5000E269194B1B6A03F070039A4205D21649A6
:104E60000B6A23F070031A430A62FFF7EBFD124945
:104E70008B69C3F30323114AD35C03F01F03D840AB
:104E80008B6903F00F03D35C03F01F0320FA03F3D5
:104E90000B4A13600B4B18600B4B1868FDF730FA88
:104EA00070BD012070470120FAE70120F8E70120DA
:104EB000F6E700BF00200052004402586C9600083C
:104EC00038040024340400244004002408B5FFF70B
:104ED000B9FD0B4A9369C3F303230A49CB5C03F082
:104EE0001F0320FA03F3926902F00F02885C00F0BE
:104EF0001F0023FA00F0044A1060044A136008BD42
:104F0000004402586C96000838040024340400243D
:104F100008B5FFF7DBFF054BDB69C3F30213044A57
:104F2000D35C03F01F03D84008BD00BF0044025803
:104F30006C9600083F230360114B1A6902F00702C8
:104F400042609A6902F4706282609A6902F00F020C
:104F5000C2609A6902F070020261DA6902F07002BE
:104F60004261DA6902F4E06282611B6A03F0700355
:104F7000C361044B1B6803F00F030B60704700BF55
:104F80000044025800200052404B9B6A03F0030388
:104F9000032B79D070B505460E463C4A136823F0C2
:104FA00080631360FDF77EFB0446384B1B6813F0EB
:104FB000006F06D0FDF776FB031B022BF5D903200B
:104FC00070BD324B9A6A22F47C32296842EA01327F
:104FD0009A626A68013AC2F30802A9680139490273
:104FE00089B20A43E9680139090401F4FE010A4360
:104FF00029690139090601F0FE410A439A63DA6A18
:1050000022F0C00269690A43DA62DA6A22F02002F9
:10501000A9690A43DA62DA6A22F01002DA62D96B0D
:105020001B4A0A40E96942EAC102DA63DA6A42F0DD
:105030001002DA62C6B91A46DB6A43F40023D3626F
:10504000124A136843F080631360FDF72BFB04469C
:105050000E4B1B6813F0006F14D1FDF723FB001BF0
:105060000228F5D90320ABE7012E05D0074AD36A01
:1050700043F40013D362E3E7044AD36A43F4801392
:10508000D362DDE700209BE701207047004402580F
:105090000700FFFF404B9B6A03F00303032B79D00B
:1050A00070B505460E463C4A136823F080531360E2
:1050B000FDF7F8FA0446384B1B6813F0005F06D082
:1050C000FDF7F0FA031B022BF5D9032070BD324B1C
:1050D0009A6A22F07C72296842EA01529A626A68EE
:1050E000013AC2F30802A9680139490289B20A43A8
:1050F000E9680139090401F4FE010A43296901390B
:10510000090601F0FE410A431A64DA6A22F4406299
:1051100069690A43DA62DA6A22F40072A9690A4309
:10512000DA62DA6A22F48072DA62596C1B4A0A4047
:10513000E96942EAC1025A64DA6A42F48072DA62C8
:10514000C6B91A46DB6A43F48003D362124A136875
:1051500043F080531360FDF7A5FA04460E4B1B681D
:1051600013F0005F14D1FDF79DFA001B0228F5D95A
:105170000320ABE7012E05D0074AD36A43F08073C2
:10518000D362E3E7044AD36A43F40003D362DDE762
:1051900000209BE701207047004402580700FFFFF2
:1051A000F8B50446016801F000620023134330D0D3
:1051B000436EB3F5001F26D00ED8EBB1B3F5801FB8
:1051C00007D102210830FFF7DFFE054645B12E4624
:1051D00021E0012635461EE0B3F5401F09D1002528
:1051E000A84A136D23F44013616E0B431365002628
:1051F00011E0012635460EE0A24AD36A43F400339B
:10520000D3620025ECE702212830FFF743FF054673
:10521000DCE700263546216801F480720023134341
:1052200014D0A36D042B37D8DFE803F003282F0830
:105230000800944AD36A43F40033D3627DBB914A99
:10524000136D23F00703A16D0B431365216801F46F
:1052500080620023134336D0D4F8A430B3F5800F16
:1052600055D021D8002B4CD0B3F5001F19D1002107
:1052700004F10800FFF788FE05461BE0002104F159
:105280000800FFF781FE0546D8E7002104F1280059
:10529000FFF700FF0546D1E701263546D6E72E4643
:1052A000D4E7012635460EE0B3F5000F02D0B3F582
:1052B000200F20D195BB734A936D23F46003D4F87B
:1052C000A4100B439365216801F40062002313438B
:1052D00039D0D4F8A830B3F1007F5CD023D8002BAC
:1052E00053D0B3F1807F1BD1002104F10800FFF7F8
:1052F0004BFE05461DE0B3F5C00FDBD00126354659
:10530000E1E7604AD36A43F40033D362D2E7002175
:1053100004F12800FFF7BEFE0546CBE72E46D2E794
:10532000012635460FE0B3F1806F02D0B3F1A06FD4
:1053300025D1002D36D1534A936D23F0E063D4F884
:10534000A8100B439365216801F0007200231343FA
:1053500031D0E36C202B45D029D833B1102B23D189
:10536000484AD36A43F40033D362002D41D1454A01
:10537000D36C23F03003E16C0B43D3641BE0B3F137
:10538000407FD6D001263546DDE73E4AD36A43F456
:105390000033D362CDE7002104F12800FFF77AFE45
:1053A0000546C6E72E46CEE70126354603E0302BFC
:1053B000DBD001263546216801F4805200231343D7
:1053C0002BD0E36DB3F5005F4FD017D8002B46D03C
:1053D000B3F5805F0FD1002104F10800FFF7D4FD81
:1053E000054611E0022104F10800FFF7CDFD054656
:1053F000BBE72E46DFE7012635460EE0B3F5405FFA
:1054000002D0B3F5804F27D1002D35D11D4A136D41
:1054100023F4E043E16D0B431365216801F400526E
:10542000002313433BD0236EB3F5003F58D02BD855
:1054300043B1B3F5803F21D1012104F10800FFF70A
:10544000A3FD0546002D52D10E4A136D23F4E0232F
:10545000216E0B43136522E001263546DDE7094A3C
:10546000D36A43F40033D362CEE7002104F128006D
:10547000FFF710FE0546C7E72E46CEE70126354664
:105480000DE000BF00440258B3F5802FDAD0B3F529
:10549000A02FD7D0B3F5403FD4D0012635462168A0
:1054A00001F480420023134331D0D4F8AC30B3F17F
:1054B000005F49D020D843B1B3F1805F19D10121F9
:1054C00004F10800FFF760FD0546002D43D1954A21
:1054D000936D23F0E043D4F8AC100B43936516E0D2
:1054E000012104F12800FFF7D5FD0546AAE72E4665
:1054F000D5E7012635460AE0B3F1804FE5D0B3F198
:10550000A04FE2D0B3F1405FDFD0012635462168DD
:1055100001F400420023134309D0E36EB3F1805F2E
:105520001BD0B3F1005F26D0E3B1012635462168D8
:1055300001F08072002313433FD0A36C032B38D8B3
:10554000DFE803F027223027012104F12800FFF7CC
:10555000A1FD0546B9E72E46D9E7724AD36A43F45E
:105560000033D36275B96F4A136D23F04053E16E77
:105570000B431365DBE7012104F10800FFF704FD8D
:105580000546EFE72E46D2E7664AD36A43F4003376
:10559000D3628DB9634AD36C23F00303A16C0B4330
:1055A000D3640AE0022104F10800FFF7EDFC054690
:1055B000EFE70126354600E02E46216801F480021F
:1055C0000023134321D1216801F00102002313437A
:1055D00000F09780A36F282B00F29180DFE803F0A2
:1055E0007F8F8F8F8F8F8F8F798F8F8F8F8F8F8FF1
:1055F000888F8F8F8F8F8F8F7F8F8F8F8F8F8F8FD2
:105600007F8F8F8F8F8F8F8F7F00474A136843F470
:1056100080731360FDF746F80746434B1B6813F48D
:10562000807F05D1FDF73EF8C01B6428F5D903251E
:10563000002D4AD13B4B1B6FD4F8B020534013F4DC
:10564000407F0CD0374B1A6F22F44072196F41F42F
:1056500080311967196F21F4803119671A67D4F8FE
:10566000B030B3F5807F15D08DBBD4F8B03003F4E3
:105670004072B2F5407F1ED02A4A136923F47C534E
:10568000136128490B6FD4F8B020C2F30B02134307
:105690000B6798E7FDF706F80746224B1B6F13F0E0
:1056A000020FE1D1FCF7FEFFC01B41F288339842A4
:1056B000F3D90325D8E71B48026922F47C521B4921
:1056C00001EA131313430361DBE72E467BE72E4603
:1056D00079E7012104F10800FFF756FC0546F5B90A
:1056E000104A536D23F03803A16F0B43536508E054
:1056F000012104F12800FFF7CDFC0546EFE7012664
:105700003546216801F00202002313432AD0636F5B
:10571000052B23D8DFE803F0120C1B1212122E46C1
:10572000EFE700BF0044025800480258CFFFFF00D7
:10573000012104F10800FFF727FC05468DB9B54AA1
:10574000536D23F00703616F0B4353650AE001219A
:1057500004F12800FFF79EFC0546EFE701263546D9
:1057600000E02E46216801F004020023134323D0F9
:10577000D4F89030052B1BD8DFE803F00903130998
:105780000909012104F10800FFF7FEFB054695B960
:10579000A04A936D23F00703D4F890100B43936550
:1057A0000AE0012104F12800FFF774FC0546EEE74A
:1057B0000126354600E02E46216801F02002002334
:1057C000134328D0D4F88C30B3F1005F44D017D8FD
:1057D00043B1B3F1805F10D1002104F10800FFF75D
:1057E000D3FB0546002D3ED18A4A536D23F0E0439A
:1057F000D4F88C100B4353650DE0012635460AE0C2
:10580000B3F1804FEED0B3F1A04FEBD0B3F1405FD6
:10581000E8D001263546216801F0400200231343F9
:1058200031D0D4F89830B3F5006F4FD020D843B1C1
:10583000B3F5806F19D1002104F10800FFF7A4FB34
:105840000546002D49D1734A936D23F4E053D4F8F3
:1058500098100B43936516E0022104F12800FFF72E
:1058600019FC0546BEE72E46D5E7012635460AE077
:10587000B3F5805FE5D0B3F5A05FE2D0B3F5406F3C
:10588000DFD001263546216801F080020023134352
:1058900033D0D4F89C30B3F5804F00F0B28021D8DB
:1058A00043B1B3F5005F1AD1002104F10800FFF7FE
:1058B0006BFB0546002D40F0AB80564A936D23F4F8
:1058C0006043D4F89C100B43936516E0022104F169
:1058D0002800FFF7DFFB0546B3E72E46D3E7012696
:1058E00035460AE0B3F5004FE4D0B3F5204FE1D0E0
:1058F000B3F5C04FDED001263546216801F008021D
:10590000002313430DD0D4F88030B3F5805F00F04E
:105910008380404A536D23F44053D4F880100B43E6
:105920005365216801F01002002313430CD0D4F812
:105930009430B3F5807F79D0364A936D23F4407369
:10594000D4F894100B439365216801F400220023DE
:1059500013430CD0D4F8A030B3F5803F00F0808022
:10596000B3F5003F72D0002B6AD00126354621687E
:1059700001F48022002313430DD0D4F88430B3F512
:10598000001F00F08580B3F5401F77D0B3F5801F6E
:105990006FD001263546216801F48032002313437D
:1059A00008D0236D002B7CD0B3F5803F00F08780BA
:1059B00001263546216801F000520023134340F0D0
:1059C0008780216801F400320023134300F08D80AA
:1059D000E36FB3F5807F00F0F78040F28380B3F58A
:1059E000007F03D0B3F5407F40F0EC80002D40F005
:1059F000F180084A536D23F44073E16F0B43536504
:105A000073E0022104F12800FFF744FB054651E74B
:105A10002E4672E700440258022104F12800FFF7E5
:105A200039FB00283FF475AF012672E7022104F12B
:105A30002800FFF72FFB00283FF47EAF01267BE70D
:105A4000002104F10800FFF79FFA05467DB97D4A61
:105A5000936D23F44033D4F8A0100B43936586E78D
:105A6000022104F12800FFF715FB0546EEE72E465C
:105A70007DE7744AD36A43F40033D3627DB9714A37
:105A8000536D23F44013D4F884100B43536582E71D
:105A9000012104F12800FFF7FDFA0546EEE72E4646
:105AA00079E7684AD36A43F40033D36275B9654A2B
:105AB000D36C23F48033216D0B43D3647AE7022146
:105AC00004F10800FFF760FA0546EFE72E4671E79C
:105AD000022104F12800FFF7DDFA00283FF471AF3E
