:020000040800F2
:100000000000052435100008F90D0008FB0D00085C
:10001000FD0D0008FF0D0008010E000800000000A3
:1000200000000000000000000000000091520008E5
:10003000030E00080000000031530008955300082B
:10004000851000088510000885100008851000083C
:10005000851000088510000885100008851000082C
:10006000851000088510000885100008050E00089E
:10007000150E00088510000885100008851000087E
:10008000851000088510000885100008250E00085E
:10009000350E00088510000885100008851000083E
:1000A00085100008851000088510000885100008DC
:1000B000450E00088510000885100008851000080E
:1000C00085100008851000088510000885100008BC
:1000D000550E0008851000088510000885100008DE
:1000E0008510000885100008000000008510000839
:1000F000851000088510000885100008851000088C
:10010000851000088510000885100008851000087B
:10011000851000088510000885100008851000086B
:10012000851000088510000885100008851000085B
:10013000851000088510000885100008851000084B
:1001400000000000000000000000000000000000AF
:10015000851000088510000885100008851000082B
:10016000851000088510000885100008851000081B
:1001700085100008851000088510000800000000A8
:1001800085100008851000088510000885100008FB
:1001900085100008851000088510000885100008EB
:1001A0008510000885100008851000080000000078
:1001B00085100008851000088510000885100008CB
:1001C00085100008851000080000000000000000F5
:1001D0000000000000000000851000080000000082
:1001E000000000000000000000000000000000000F
:1001F00000000000000000008510000885100008C5
:100200008510000885100008000000008510000817
:10021000851000088510000885100008851000086A
:100220008510000800000000851000080000000094
:1002300085100008851000080000000085100008E7
:10024000851000088510000885100008851000083A
:10025000851000088510000885100008851000082A
:10026000851000088510000885100008851000081A
:1002700085100008851000088510000800000000A7
:1002800085100008851000088510000885100008FA
:100290000000000085100008851000080000000024
:1002A0000000000085100008851000088510000877
:1002B000851000088510000885100008650E0008EC
:0C02C0008510000885100008851000085B
:1002D000844641EA000313F003036DD1403A41D351
:1002E00051F8043B40F8043B51F8043B40F8043B10
:1002F00051F8043B40F8043B51F8043B40F8043B00
:1003000051F8043B40F8043B51F8043B40F8043BEF
:1003100051F8043B40F8043B51F8043B40F8043BDF
:1003200051F8043B40F8043B51F8043B40F8043BCF
:1003300051F8043B40F8043B51F8043B40F8043BBF
:1003400051F8043B40F8043B51F8043B40F8043BAF
:1003500051F8043B40F8043B51F8043B40F8043B9F
:10036000403ABDD2303211D351F8043B40F8043B3F
:1003700051F8043B40F8043B51F8043B40F8043B7F
:1003800051F8043B40F8043B103AEDD20C3205D34F
:1003900051F8043B40F8043B043AF9D2043208D047
:1003A000D2071CBF11F8013B00F8013B01D30B88B9
:1003B00003806046704700BF082A13D38B078DD097
:1003C00010F003038AD0C3F10403D21ADB071CBF69
:1003D00011F8013B00F8013B80D331F8023B20F8D3
:1003E000023B7BE7043AD9D3013A11F8013B00F80C
:1003F000013BF9D20B7803704B7843708B78837094
:10040000604670470348044B834202D0034B03B15C
:10041000184770471800002418000024000000004E
:100420000548064B1B1AD90F01EBA301491002D056
:10043000034B03B11847704718000024180000242C
:100440000000000010B5064C237843B9FFF7DAFF2F
:10045000044B13B10448AFF300800123237010BD97
:100460001800002400000000EC5F000808B5054BF0
:100470001BB105490548AFF30080BDE80840FFF710
:10048000CFBF00BF000000001C000024EC5F00088C
:1004900000B583B00F4BD3F8D82042F00102C3F867
:1004A000D820D3F8D83003F001030193019B002238
:1004B00006210B2000F07AFE0B2000F087FE0022C0
:1004C00006210C2000F072FE0C2000F07FFE03B02D
:1004D0005DF804FB0044025838B51548154B03601D
:1004E00000238360C36003744374837404214161F7
:1004F000012585611324C46105220262416285627F
:10050000C462026343638263C2630164082242647B
:100510008364C264036541658365C365026643669F
:10052000826601F017FF00B938BD00F088FAFBE7DA
:100530007801002400A0004010B51748174B036055
:1005400000238360C3600374437483740522426193
:10055000012484610E21C161026242628462C1622F
:10056000026340F2563141638263C2630364042232
:10057000426482640821C164036542658365C36582
:10058000026643660623836601F0E4FE00B910BDEF
:1005900000F055FAFBE700BFD800002400A400409B
:1005A00010B51748174B036000238360C3600374C2
:1005B0004374837405224261012484610E21C16168
:1005C000026242628462C162026340F2AD614163D1
:1005D0008263C26302220264042242648364C264AE
:1005E000036542658365C3650321016643668266D0
:1005F00001F0B0FE00B910BD00F021FAFBE700BF2A
:100600003800002400D4004010B58CB000230793BC
:10061000089309930A930B930368544A934207D0B3
:10062000534A934238D0534A934269D00CB010BD1C
:10063000514A136801331360012B1FD04F4BD3F87D
:10064000E02042F00802C3F8E020D3F8E03003F0E5
:1006500008030293029B03230793022308930923B1
:100660000B9307A9464802F05FF9002206211320E8
:1006700000F09CFD132000F0A9FDD7E73F4BD3F815
:10068000EC2042F48072C3F8EC20D3F8EC3003F491
:1006900080730193019BD1E7374A136801331360DC
:1006A000012B1FD0354BD3F8E02042F00202C3F8F3
:1006B000E020D3F8E03003F002030493049B6023AE
:1006C00007930223089309230B9307A92D4802F0EF
:1006D0002BF900220521142000F068FD142000F001
:1006E00075FDA3E7254BD3F8EC2042F48072C3F8E4
:1006F000EC20D3F8EC3003F480730393039BD1E731
:100700001D4A136801331360012B20D01B4BD3F813
:10071000E02042F00802C3F8E020D3F8E03003F014
:1007200008030693069B4FF4405307930223089354
:1007300005240B9407A9124802F0F6F8002221467E
:100740009F2000F033FD9F2000F040FD6EE70B4B33
:10075000D3F8EC2042F48072C3F8EC20D3F8EC30EC
:1007600003F480730593059BD0E700BF00A0004011
:1007700000A4004000D4004034000024004402588B
:10078000000C02580004025808B5012004F0E0FCF7
:10079000FBE708B5012004F0DBFCFBE708B501200E
:1007A00004F0D6FCFBE708B5012004F0D1FCFBE720
:1007B00008B5012004F0CCFCFBE708B5012004F0EB
:1007C000C7FCFBE710B59EB0364C0DF1640CA64695
:1007D000BEE80F00ACE80F00DEF80030CCF80030C7
:1007E000002119A804F09AFC2F4B18600DF1500C51
:1007F00004F1140EBEE80F00ACE80F00DEF8003084
:10080000CCF80030002114A804F088FC274B1860B5
:100810000DF13C0C04F1280EBEE80F00ACE80F000F
:10082000DEF80030CCF8003000210FA804F076FC90
:100830001F4B18600DF1280C04F13C0EBEE80F00B0
:10084000ACE80F00DEF80030CCF8003000210AA838
:1008500004F064FC174B18600DF1140C04F1500EF9
:10086000BEE80F00ACE80F00DEF80030CCF8003036
:10087000002105A804F052FC0F4B1860EE4604F16D
:10088000640CBCE80F00AEE80F00DCF80030CEF8D6
:1008900000300021684604F041FC084B18601EB08F
:1008A00010BD00BF046000082C02002428020024B0
:1008B00024020024200200241C0200241802002428
:1008C0002DE9F0438DB000240794089409940A940C
:1008D0000B94524BD3F8E02042F00402C3F8E0201E
:1008E000D3F8E02002F004020192019AD3F8E0204C
:1008F00042F08002C3F8E020D3F8E02002F080024A
:100900000292029AD3F8E02042F00102C3F8E020FC
:10091000D3F8E02002F001020392039AD3F8E0201A
:1009200042F00202C3F8E020D3F8E02002F0020215
:100930000492049AD3F8E02042F01002C3F8E020B9
:10094000D3F8E02002F010020592059AD3F8E020D7
:1009500042F00802C3F8E020D3F8E03003F00803C7
:100960000693069B2E4E22464FF4C041304602F0BD
:10097000E5F801220921304602F0E0F8DFF8A890FE
:1009800001220421484602F0D9F8264F01224FF4F3
:100990000851384602F0D2F84FF4C04307930125BE
:1009A000089509940A9407A9304601F0BDFF092370
:1009B0000793089509944FF00308CDF8288007A9FC
:1009C000304601F0B1FF07950894099507A94846FC
:1009D00001F0AAFF0423079308950995CDF8288014
:1009E00007A9484601F0A0FF4FF408530793089564
:1009F0000995CDF8288007A9384601F095FF4FF4F6
:100A0000A05307934FF488130893099407A9384615
:100A100001F08AFF0DB0BDE8F08300BF004402582A
:100A200000080258001002580000025808B5036878
:100A3000B3F1804F00D008BD00F054FBFBE772B665
:100A4000FEE7000000B59DB04C22002109A805F08A
:100A5000EBF92022002101A805F0E6F9022002F0BE
:100A600073F800230093204B9A6922F440429A6164
:100A70009B6903F440430093009B1B4B9B6913F459
:100A8000005FFAD0012209924FF480330A930223C7
:100A90001293139314932821159116921793189378
:100AA0000C23199300231A931B9309A802F076F8DC
:100AB000A8B93F2301930321029100230393082344
:100AC00004934023059306934FF4806207920893A2
:100AD00001A802F053FC20B91DB05DF804FBFFF73C
:100AE000AEFFFFF7ACFF00BF0048025800B5AFB043
:100AF000B8220021684605F097F94FF40042002320
:100B0000CDE9002318230293C823039302230493FF
:100B100005930693202308934FF000531B936846D8
:100B200002F0E0FE10B92FB05DF804FBFFF787FF7D
:100B300008B500F0A9FAFFF785FFFFF7D7FFFFF729
:100B4000BFFEFFF7A5FC00F00DF8FFF7C5FCFFF7AF
:100B5000F3FC00F02BFAFFF723FDFFF733FE04F060
:100B6000D8FAFEE708B51548154B03604FF480032B
:100B70004360002383600722C2604FF0007202616D
:100B80004FF0807242614FF0806282614FF080428C
:100B9000C261036243628362C36242638363C3636D
:100BA000036443648364C36403654365836503F03E
:100BB0000FFC00B908BDFFF742FFFBE7200300244C
:100BC000003800402DE9F041B8B0044600213391CF
:100BD0003491359136913791B82204A805F024F963
:100BE0002268494B9A4202D038B0BDE8F0814FF4F8
:100BF00080520023CDE9042304A802F073FE0028EC
:100C000079D1424BD3F8E82042F48042C3F8E8207F
:100C1000D3F8E82002F480420192019AD3F8E02050
:100C200042F00402C3F8E020D3F8E02002F004020E
:100C30000292029AD3F8E02042F00202C3F8E020C8
:100C4000D3F8E03003F002030393039B06233393AE
:100C50004FF00208CDF8D080002535950327369750
:100C60000526379633A92A4801F05EFE4FF400535B
:100C70003393CDF8D08035953697379633A92548EC
:100C800001F052FE2448254B036027234360856012
:100C9000C5604FF48063036145618561C5614FF4B0
:100CA00040330362456200F0CDFB38BB1A4BE3676B
:100CB0009C631B481B4B03602823436040238360D5
:100CC0000023C3604FF48062026143618361C361AA
:100CD0004FF400320262436200F0B4FB88B9104B5B
:100CE000A3679C6300220521242000F05FFA2420E2
:100CF00000F06CFA78E7FFF7A2FE82E7FFF79FFEAD
:100D0000D4E7FFF79CFEEAE70038004000440258B1
:100D10000008025800040258A802002410000240F3
:100D2000300200242800024000B583B00A4BD3F8FB
:100D3000F42042F00202C3F8F420D3F8F43003F0B8
:100D400002030193019B00220F216FF0010000F0CC
:100D50002DFA03B05DF804FB004402580F2801D9B6
:100D60000120704710B58AB00446002201461C20BD
:100D700000F01CFA1C2000F029FA1B4B1C601B4BD6
:100D8000D3F8E82042F00102C3F8E820D3F8E830B5
:100D900003F001030093009B01A902A802F06CFC80
:100DA000079BC3B902F056FC0346114AA2FB03237A
:100DB0009B0C013B0F484FF08042026040F2E7324B
:100DC000C260436000230361836003F0F9FF30B128
:100DD00001200AB010BD02F03DFC4300E5E70548E4
:100DE00003F03CFEF5E700BF0C000024004402586D
:100DF00083DE1B43A8030024FEE7FEE7FEE7FEE7D1
:100E0000FEE7704708B5024800F01EFE08BD00BFAF
:100E1000A802002408B5024800F016FE08BD00BF75
:100E20003002002408B5024801F0F0FB08BD00BF05
:100E30007801002408B5024801F0E8FB08BD00BFB6
:100E4000D800002408B5024803F05CFE08BD00BFCE
:100E5000A803002408B5024803F094FB08BD00BFB6
:100E60002003002408B5024801F0D0FB08BD00BFF4
:100E700038000024224AD2F8883043F47003C2F8C4
:100E80008830204B1B6803F00F03062B06D81D4A41
:100E9000136823F00F0343F0070313601A4B1A681B
:100EA00042F001021A6000221A611968174A0A40CA
:100EB0001A60144B1B6813F0080F06D0114A136810
:100EC00023F00F0343F0070313600F4B00229A61D6
:100ED000DA611A620E4999620E49D9620E491963A4
:100EE0005A639963DA6319645A64196821F480219A
:100EF00019601A66094B43F2D2021A60704700BFAC
:100F000000ED00E000200052004402587FEDF6EAB8
:100F1000000202020000FF018002010100400052B5
:100F200002680A4B9A4200D0704782B0084BD3F84F
:100F3000E82042F00202C3F8E820D3F8E83003F0DA
:100F400002030193019B02B0704700BF0004004000
:100F50000044025800B587B0002301930293039325
:100F60000493059302680E4B9A4202D007B05DF8D5
:100F700004FB0C4BD3F8E02042F00202C3F8E0205F
:100F8000D3F8E03003F002030093009B02230193A7
:100F90000293059301A9044801F0C6FCE6E700BFEF
:100FA00000040040004402580004025800B58BB011
:100FB00000230793089309930093019302930393EB
:100FC0000493059306931948194A02601722426058
:100FD000836042F20F72C26003618023836103F079
:100FE0001FFFC8B900230793099307A90F4804F00E
:100FF0002FF8A0B960230093002301930293049378
:101000000C226946094803F085FF58B90748FFF7E5
:10101000A1FF0BB05DF804FBFFF711FDE2E7FFF75E
:101020000EFDE7E7FFF70BFDF0E700BFF403002438
:1010300000040040DFF834D0FFF71CFF0C480D49D6
:101040000D4A002302E0D458C4500433C4188C4223
:10105000F9D30A4A0A4C002301E013600432A24289
:10106000FBD304F033FFFFF763FD70470000052456
:10107000000000241800002450610008180000241B
:10108000307F0024FEE7000010B5032000F07CF85C
:1010900002F07AF80F498B69C3F303230E4AD35C3D
:1010A00003F01F03D8408B6903F00F03D35C03F0F8
:1010B0001F0320FA03F3094A1360094B18600F203D
:1010C000FFF74CFE10B10124204610BD0446FFF787
:1010D0002BFEF9E7004402581C61000800000024C0
:1010E00004000024034B1B78034A11680B4413606F
:1010F000704700BF0800002440040024014B18681A
:10110000704700BF40040024002807DB00F01F02E6
:10111000400901239340024A42F82030704700BF43
:1011200000E100E0002804DB0901C9B2044B1954B6
:10113000704700F00F000901C9B2024B1954704703
:1011400000E400E014ED00E000B500F00700C0F19D
:10115000070CBCF1040F28BF4FF0040C031D062B35
:101160000FD9C31E4FF0FF3E0EFA0CF021EA00012A
:1011700099400EFA03FE22EA0E0241EA02005DF8EF
:1011800004FB0023EEE700000649CB6823F4E0638C
:101190001B041B0C000200F4E0600343024A1A43E4
:1011A000CA60704700ED00E00000FA0510B5044683
:1011B000054BD868C0F30220FFF7C6FF0146204662
:1011C000FFF7B0FF10BD00BF00ED00E008B5FFF76E
:1011D0009BFF08BD03682749274A934218BF8B42EB
:1011E0002FD0183293422CD01832934229D0183283
:1011F000934226D01832934223D01832934220D003
:10120000183293421DD002F55672934219D018320B
:10121000934216D01832934213D01832934210D012
:10122000183293420DD0183293420AD018329342AA
:1012300007D01832934204D023F0FF038365806DFA
:10124000704710B4D9B210390C4AA2FB0142C2F364
:1012500002120B4CA25CC2655F2907D9094A1A40E9
:1012600004328265806D5DF8044B7047054A1A4070
:101270008265F7E71000024028000240ABAAAAAA44
:101280002C61000800FCFFFF83699BB9836A012B76
:101290000AD0022B02D00BB100207047C36A13F0B2
:1012A000807F2AD100207047C36AB3F1C07F26D067
:1012B00000207047B3F5005F0AD0836A022B26D95D
:1012C000032B26D1C36A13F0807F24D100207047FE
:1012D000836A032B03D8DFE803F01404140A002008
:1012E0007047C36A13F0807F0DD100207047C36A36
:1012F000B3F1C07F09D00020704701207047012062
:10130000704701207047012070470120704701207D
:101310007047002070470120704700000368214992
:10132000214A934218BF8B4227D01432934224D0D3
:101330001432934221D0143293421ED0143293427D
:101340001BD01432934218D01432934215D0DAB223
:10135000103A1649A1FB0212120915491944A8298D
:101360001ED9144B13449B000366134B436602F0D3
:101370001F020123934083667047DBB2083B0F4A8C
:10138000A2FB03230E4A02EB1312920002660D4ADF
:101390004266C3F30413012202FA03F38366704723
:1013A0000832DEE7085402581C540258ABAAAAAA15
:1013B000F0FBFDBF0082001080080240CDCCCCCCF9
:1013C000009600168058025801794A1E072A2BD829
:1013D00030B40368154D164CA34218BFAB4218D069
:1013E0001434A34215D01434A34212D01434A342AF
:1013F0000FD01434A3420CD01434A34209D01434B7
:10140000A34206D00B4B0B449B00C3660A4B0367F9
:1014100005E00A4B0B449B00C366094B036701239D
:101420009340436730BC7047704700BF0854025870
:101430001C5402583F820010400902403F9600169B
:101440004059025870B50446FFF758FE002C00F0D2
:10145000B381054623685349534A934218BF8B42D0
:101460000CBF0121002150D0183293424DD01832C8
:1014700093424AD01832934247D01832934244D014
:101480001832934241D0183293423ED002F5567240
:1014900093423AD01832934237D01832934234D024
:1014A0001832934231D0183293422ED018329342E0
:1014B0002BD01832934228D01832934225D03B4982
:1014C0003B4A934218BF8B4200F02E81394A934227
:1014D00000F02A811432934200F0268114329342A4
:1014E00000F022811432934200F01E8114329342A4
:1014F00000F01A811432934200F016814023636594
:10150000032384F8353001204AE0022284F8352094
:10151000002284F8342079BB274A93422CD0183219
:10152000934229D01832934226D01832934223D0C6
:101530001832934220D0183293421DD002F55672D1
:10154000934219D01832934216D01832934213D0D6
:101550001832934210D0183293420DD01832934271
:101560000AD01832934207D01832934204D01A6836
:1015700022F001021A6003E01A6822F001021A60E8
:1015800023681A6812F0010F18D0FFF7B7FD431B4C
:10159000052BF5D920236365032384F8353001201A
:1015A00070BD00BF100002402800024008540258DD
:1015B0001C54025830540258400002401A687F49B7
:1015C0001140A268E0680243206902436069024357
:1015D000A0690243E0690243206A02430A43616A48
:1015E000042900F096806168A1F12905A1F13F006E
:1015F000032888BF052D0AD9A1F14700012806D983
:10160000A1F14F00032802D97439032901D842F40B
:1016100080121A602668756925F00705636A1D4304
:10162000042B08D1A36A1D43E36A23B12046FFF7C8
:101630002BFE002872D175612046FFF7CBFDE36DCC
:1016400003F01F023F239340836023685C495D4A97
:10165000934218BF8B4242D0183293423FD0183287
:1016600093423CD01832934239D01832934236D04C
:101670001832934233D01832934230D002F556726A
:1016800093422CD01832934229D01832934226D05C
:101690001832934223D01832934220D0183293420A
:1016A0001DD0183293421AD01832934217D0464AAE
:1016B000934214D01432934211D0143293420ED07C
:1016C000143293420BD01432934208D01432934216
:1016D00005D01432934202D01432934213D12046E3
:1016E000FFF71CFEA368802B59D0236E22791A6065
:1016F000636EA26E5A606368013B072B52D90023C8
:10170000E3662367636700206065012384F8353052
:1017100046E7E16A206B01430A4364E740236365BF
:10172000012084F835003BE7022284F835200022AE
:1017300084F834201A6825491140A268402A2CD028
:10174000802A27D00022E06842EAD002206942EADB
:10175000D002606942EAD002A06942EAD002E069A0
:1017600042EAD002206A42EA10120A431A60226852
:10177000174B1344174AA2FB03231B099B00E36585
:101780002046FFF727FDE26D02F01F0101228A408B
:1017900042605AE74FF48042D5E71022D3E7002396
:1017A0006360A2E72046FFF70FFEE36E00221A6097
:1017B000236F626F5A60A6E70120F1E63F8010FEBA
:1017C0001000024028000240085402580F00FEFF9B
:1017D000F8ABFDA7CDCCCCCC002800F0288108B513
:1017E000024690F83530DBB2022B03D080234365EC
:1017F000012008BD0368904890498B4218BF83427E
:101800000CBF0120002065D018318B4262D0183106
:101810008B425FD018318B425CD018318B4259D04B
:1018200018318B4256D018318B4253D001F5567186
:101830008B424FD018318B424CD018318B4249D05B
:1018400018318B4246D018318B4243D018318B422D
:1018500040D018318B423DD018318B423AD01968B4
:1018600021F00E0119601368734874498B4218BF48
:1018700083426AD072498B4267D018318B4264D060
:1018800018318B4261D018318B425ED018318B42B7
:101890005BD018318B4258D001F556718B4254D031
:1018A00018318B4251D018318B424ED018318B42B7
:1018B0004BD018318B4248D018318B4245D018316B
:1018C0008B4242D018318B423FD0196821F0010180
:1018D00019603EE0042182F8351080BB584A9342DB
:1018E0002DD0183293422AD01832934227D0183282
:1018F000934224D01832934221D0183293421ED002
:1019000002F5567293421AD01832934217D0183209
:10191000934214D01832934211D0183293420ED011
:10192000183293420BD01832934208D018329342A7
:1019300005D01A6822F001021A60002059E71A68DF
:1019400022F001021A60002053E7196821F001011A
:1019500019601368384839498B4218BF834242D016
:1019600018318B423FD018318B423CD018318B421A
:1019700039D018318B4236D018318B4233D01831E0
:101980008B4230D001F556718B422CD018318B42EE
:1019900029D018318B4226D018318B4223D01831F0
:1019A0008B4220D018318B421DD018318B421AD077
:1019B00018318B4217D023498B4214D014318B42FB
:1019C00011D014318B420ED014318B420BD0143114
:1019D0008B4208D014318B4205D014318B4202D097
:1019E00014318B4217D1116E0B6823F480730B6096
:1019F000906DD36D03F01F0101238B404360536E44
:101A0000916E5960D36E33B1196821F480711960F9
:101A1000136F516F5960012382F83530002382F82B
:101A20003430136D2BB1104698470020E1E60120B9
:101A300070470020DDE600BF100002402800024091
:101A40004000024008540258F0B583B00446002319
:101A500001937D4B1D687D4BA3FB0535AD0A876D5A
:101A60003E68D7F800C0036879497A48834218BFB6
:101A70008B420CBF0120002061D0774A93425ED098
:101A8000183293425BD01832934258D018329342A6
:101A900055D01832934252D0183293424FD002F5AB
:101AA000567293424BD01832934248D01832934228
:101AB00045D01832934242D0183293423FD0183268
:101AC00093423CD01832934239D01832934236D0E8
:101AD0006249634A934218BF8B4212D0614A9342D3
:101AE0000FD0143293420CD01432934209D01432E6
:101AF000934206D01432934203D01432934240F002
:101B000061821A68E16D01F01F010420884010EA2B
:101B10000C0F00F0A78212F0040F00F0A38278608F
:101B200012F4004F00F05A8212F4803F40F05082CD
:101B3000A36C002B00F046822046984742E2E26DFB
:101B400002F01F0108228A40324241D070BB424A53
:101B500093422BD01832934228D01832934225D08A
:101B60001832934222D0183293421FD01832934237
:101B70001CD002F55672934218D01832934215D0F9
:101B80001832934212D0183293420FD01832934237
:101B90000CD01832934209D01832934206D0183232
:101BA000934203D01A68C2F3C00202E01A68C2F37B
:101BB00080026AB11A6822F004021A60E36D03F031
:101BC0001F0208239340BB60636D43F0010363650C
:101BD000E26D02F01F0226FA02F313F0010F47D064
:101BE00023681B481B498B4218BF83423CD01831E5
:101BF0008B4239D018318B4236D018318B4233D0DA
:101C000018318B4230D018318B422DD018318B4295
:101C10002AD001F556718B4226D018318B4223D041
:101C200018318B4220D018318B421DD018318B4295
:101C30001AD018318B4217D018318B4214D018317A
:101C40008B4211D01B6813E004000024B5814E1BA9
:101C50001000024028000240400002400854025890
:101C60001C540258305402585B6913F0800F3BD16A
:101C7000E36D03F01F03042202FA03F333423FD063
:101C80002268964896498A4218BF824234D0183159
:101C90008A4231D018318A422ED018318A422BD054
:101CA00018318A4228D018318A4225D018318A4208
:101CB00022D001F556718A421ED018318A421BD0BB
:101CC00018318A4218D018318A4215D018318A4208
:101CD00012D018318A420FD018318A420CD01831F4
:101CE0008A4209D013680BE001239340BB60636D07
:101CF00043F002036365BBE7126812F0020F3DD1A7
:101D0000E36D03F01F03102202FA03F333425FD0A6
:101D10002268724872498A4218BF824234D0183110
:101D20008A4231D018318A422ED018318A422BD0C3
:101D300018318A4228D018318A4225D018318A4277
:101D400022D001F556718A421ED018318A421BD02A
:101D500018318A4218D018318A4215D018318A4277
:101D600012D018318A420FD018318A420CD0183163
:101D70008A4209D01268C2F3800208E0BB60636D3A
:101D800043F004036365BBE71268C2F3C002FAB113
:101D9000BB6023681A6812F4802F0DD01B6813F4FF
:101DA000002F04D1236C9BB12046984710E0A36C10
:101DB00073B1204698470BE01A6812F4807F03D174
:101DC0001A6822F008021A60236C0BB1204698476B
:101DD000E36D03F01F03202202FA03F3334200F005
:101DE000938022683D483E498A4218BF82422ED0E5
:101DF00018318A422BD018318A4228D018318A42B1
:101E000025D018318A4222D018318A421FD0183189
:101E10008A421CD001F556718A4218D018318A4284
:101E200015D018318A4212D018318A420FD0183199
:101E30008A420CD018318A4209D018318A4206D021
:101E400018318A4203D01268C2F3400202E01268DD
:101E5000C2F30012002A57D0BB6094F83530DBB2D1
:101E6000042B0ED023681A6812F4802F3AD01B6816
:101E700013F4002F2DD1636C002B45D020469847DA
:101E800042E02268136823F0160313602268536946
:101E900023F080035361236CBBB12268136823F0E5
:101EA00008031360E36D03F01F023F239340BB6000
:101EB000012384F83530002384F83430236D002B5F
:101EC00000F08080204698477CE0A36C002BE4D192
:101ED000E8E7E36BC3B12046984715E010000240E5
:101EE000280002401A6812F4807F09D11A6822F093
:101EF00010021A60012384F83530002384F834304E
:101F0000E36B0BB120469847636D002B5AD0636D8D
:101F100013F0010F52D0042384F83530236896491A
:101F2000964A934218BF8B422FD0183293422CD03E
:101F30001832934229D01832934226D01832934255
:101F400023D01832934220D0183293421DD002F58C
:101F50005672934219D01832934216D018329342D7
:101F600013D01832934210D0183293420DD0183249
:101F700093420AD01832934207D01832934204D0C9
:101F80001A6822F001021A6003E01A6822F00102C6
:101F90001A60019B01330193AB4204D823681B688C
:101FA00013F0010FF5D123681B6813F0010F0BD05C
:101FB000032384F83530002384F83430E36C0BB10C
:101FC0002046984703B0F0BD012384F83530F2E78E
:101FD000236C002BF6D020469847F3E712F0200F31
:101FE0003AD123686449654A934218BF8B422FD087
:101FF000183293422CD01832934229D0183293428F
:1020000026D01832934223D01832934220D018326F
:1020100093421DD002F55672934219D01832934262
:1020200016D01832934213D01832934210D018327F
:1020300093420DD0183293420AD01832934207D0FF
:102040001832934204D01A6822F004021A6003E0A6
:102050001A6822F008021A60236C002BB2D02046C6
:102060009847AFE70220884010EA0C0F60D012F0CA
:10207000020F5DD0786012F4004F0ED012F4803F52
:1020800005D1636C002B9DD0204698479AE7E36BFF
:10209000002B97D02046984794E712F0200F40D1AC
:1020A00023683549354A934218BF8B422FD01832E6
:1020B00093422CD01832934229D01832934226D022
:1020C0001832934223D01832934220D018329342D0
:1020D0001DD002F55672934219D01832934216D091
:1020E0001832934213D01832934210D018329342D0
:1020F0000DD0183293420AD01832934207D01832CA
:10210000934204D01A6822F00A021A6003E01A68A7
:1021100022F014021A60012384F83530002384F879
:102120003430E36B002B3FF44DAF2046984749E72E
:10213000082000FA01F111EA0C0F3FF443AF12F04E
:10214000080F3FF43FAF1A6822F00E021A60E36DE9
:1021500003F01F03012202FA03F37B60626584F837
:102160003520002384F83430E36C002B3FF42AAF91
:102170002046984726E700BF100002402800024092
:1021800030B4416B0468D4F884306F4A134043EA9A
:102190008103C4F884300468D4F8843023F47F03C6
:1021A000856B43EA0543C4F88430836B0B440468B1
:1021B000D4F88810114041EA8301C4F888100468FB
:1021C000D4F8881021F4FE01C56B41EA0541C4F83A
:1021D0008810C16B03EB41030468D4F8A0101140D0
:1021E00041EA8301C4F8A0100468D4F8A01021F4D7
:1021F000FE01056C41EA0541C4F8A010016C446C75
:1022000004FB01330468D4F8B010114041EA8301A3
:10221000C4F8B0100468D4F8B01021F4FE01856C45
:1022200041EA0541C4F8B010816CC46C04FB013371
:102230000468D4F8AC10114041EA8301C4F8AC1032
:10224000016D446D04FB01330468D4F8F0101140B3
:1022500041EA8301C4F8F0100468D4F8F01021F4C6
:102260007C11856D41EA0541C4F8F010816D03EBE6
:1022700041030468D4F8C0100A4042EA8303C4F85A
:10228000C0300268D2F8C03023F47C13C16D43EA39
:102290000143C2F8C0300268D2F8C03023F07C534A
:1022A000016E43EA0163C2F8C030436B274A1A4407
:1022B0009200C266836B02EB83030367C16B03EB7F
:1022C000C1034367016C446C04FB01F103EB810320
:1022D0008367816CC46C04FB01F103EB8103C3676A
:1022E000016D446D04FB01F103EB8103C0F8803004
:1022F000816D03EBC103C0F88430816EC46D01FBB6
:1023000004FC03EB8C03C0F88830046E04FB01F17D
:1023100003EB8103C0F890300D498B420DD9D0F802
:102320009C3043F02003C0F89C30032380F89830A1
:10233000012007E0002342F8043BD0F8903093429C
:10234000F8D8002030BC70470300FFFF002B0010BE
:10235000FCD3004030B595B004464C22A04901A8FA
:10236000FDF7B6FF002C00F0388123689D4A9342A8
:1023700020D094F898300BB32268936923F01003AF
:102380009361FEF7BBFE054623689A6912F0080FB9
:102390001AD0FEF7B3FE431B0A2BF5D9D4F89C30B4
:1023A00043F00103C4F89C30032384F898300120E3
:1023B00015B030BD03F580736360DAE784F89930B7
:1023C0002046FEF721F9D7E79A6942F001029A61A7
:1023D000FEF794FE054623689A6912F0010F0FD1AB
:1023E000FEF78CFE401B0A28F5D9D4F89C3043F048
:1023F0000103C4F89C30032384F898300120D7E708
:102400009A6942F002029A61237C012B40D0226833
:10241000936943F040039361637C012B3ED02268B3
:10242000936923F480439361A37C012B3CD0226801
:10243000936943F4805393612268936923F4407352
:10244000A1680B4393612268936923F0A40393610D
:102450002268136923F010031361E368012B29D06C
:10246000002B2CD0022B00F09B802268936943F054
:10247000800393612268136943F010031361E368DA
:10248000032B1CD12268936943F02003936116E06B
:102490002268936923F040039361BDE72268936942
:1024A00043F480439361BFE72268936923F4805328
:1024B0009361C1E72268936943F004039361A369C0
:1024C0005A1EE369013B1B0243EA4263226A013A56
:1024D00013436269013A216843EA0243CB61A3686E
:1024E000B3F5407F62D0236E33B12268D2F8C0309A
:1024F000616E0B43C2F8C030E36D226ED3420DD043
:102500002168D1F8C83023F00703A26E14A800EBAD
:10251000820252F84C2C1343C1F8C830236C6BB1C3
:102520002168D1F8BC3023F00703626C14A800EBDB
:10253000820252F84C2C1343C1F8BC30A36C73B127
:102540002168D1F8BC3023F07003E26C14A800EBD2
:10255000820252F84C2C43EA0213C1F8BC30236DBE
:1025600073B12168D1F8BC3023F4E063626D14A824
:1025700000EB820252F84C2C43EA0223C1F8BC3033
:102580002268184B9A4222D00023C4F89430C4F831
:102590009C30012384F898302046FFF7F1FD07E7CF
:1025A0002268936943F02003936188E7A36A013BA3
:1025B000E26A013A43EA0223226B013A43EA021338
:1025C000626A013A216843EA0243CB608BE76268A2
:1025D000936823F003039360D6E70120E8E600BF89
:1025E0007C60000800A0004070477047704770474B
:1025F0007047704770477047704770477047704723
:102600007047704770477047704700002DE9F04FE2
:1026100083B00446B04B1A695B699B0703EA827377
:10262000019303681A6D02F4704A5A6D0AEA020AAD
:102630001A6D02F00F095A6D09EA02091A6D02F0CB
:10264000F0085A6D08EA02081E6D06F071565A6DC0
:1026500016401F6D07F060775A6D17405D6DD3F817
:1026600050B015F4807F02D01BF4807F64D115F444
:10267000806F02D01BF4806F67D1019B002B74D157
:10268000BAF1000F7CD1B9F1000F40F08580B8F1AC
:10269000000F40F08D8015F4006F03D01BF4006F25
:1026A00040F0928015F4007F03D01BF4007F40F0CF
:1026B000968015F4002F03D01BF4002F40F09F806C
:1026C00015F4803F03D01BF4803F40F0A38015F445
:1026D000802F03D01BF4802F40F0A78015F4003F1B
:1026E0000FD01BF4003F0CD023684FF400321A6562
:1026F000794B00221A61D4F89C3043F08003C4F86F
:102700009C30002F40F09C804EB123681E65B20FB4
:10271000714B1A61D4F89C303343C4F89C30226862
:102720006E4B9A4200F09680D4F89C30002B40F01B
:10273000F78003B0BDE8F08F4FF480721A65664BE6
:1027400000221A61FFF75AFF91E72368D3F8DC10E3
:10275000D3F8E4204FF4806018655F4B00201861C7
:1027600011402046FFF746FF87E7236800221A65DD
:1027700001998A0F584B1A612046FFF735FF7FE712
:102780002368C3F850A04FEA9A72534B1A6151461E
:102790002046FFF72AFF76E72368C3F850904FEAF8
:1027A00099724D4B1A6149462046FFF71FFF6EE7AD
:1027B0002368C3F850804FEA9872474B1A6141462C
:1027C0002046FFF714FF66E723684FF400621A659E
:1027D000414B00221A612046FFF70AFF62E7236897
:1027E000D3F8D810D3F8E0204FF4007018653A4BB6
:1027F0000020186111402046FFF7FBFE59E72368CF
:102800004FF400221A65344B00221A612046FFF76C
:10281000F2FE55E723684FF480321A652E4B0022F2
:102820001A612046FFF7E8FE51E723684FF4802243
:102830001A65294B00221A612046FFF7DEFE4DE79C
:1028400023681F65BA0F244B1A6139462046FFF7EB
:10285000D7FE59E763689A6812F0030F3FF464AF3C
:10286000196A01F00F015A6A186A00F03008586AB4
:1028700008EA00081F6A07F4C077586A07401E6A12
:1028800006F4FC46586A06401D6A05F4F025586AAD
:102890000540D3F82490D3F820A0114020D1B8F1FE
:1028A000000F22D119F0400F02D01AF0400F24D1AE
:1028B0007FBB36B163681E62D4F89C303343C4F8E2
:1028C0009C30002D3FF430AF63681D62D4F89C301B
:1028D0002B43C4F89C3027E700A8004000A000402C
:1028E00019622046FFF78DFED9E76368C3F82080A0
:1028F00041462046FFF786FED4E76368D96BDA6B62
:102900004020186202F03F02090C2046FFF77BFED0
:10291000CEE763681F6239462046FFF775FEC8E7B9
:102920002046FFF76CFE04E7F0B583B000236BE0B0
:1029300085685E000324B44025EA0405CC68B440F1
:102940002C438460456825EA0C054C68C4F30014E8
:102950009C402C43446069E0DD08083550F8254070
:1029600003F0070C4FEA8C0C4FF00F0E0EFA0CFE22
:1029700024EA0E0E0C6904FA0CF444EA0E0440F842
:1029800025406BE0092400E0002404FA0EF42C43F7
:102990000CF1020C664D45F82C404FF0B044256810
:1029A000D44325EA02064F6817F4801F01D042EA9B
:1029B00005064FF0B0452E606D6804EA05064F68C5
:1029C00017F4001F01D042EA05064FF0B0456E60D3
:1029D000D5F8845004EA05064F6817F4003F01D08B
:1029E00042EA05064FF0B045C5F88460D5F880503E
:1029F0002C404E6816F4803F01D042EA05044FF0A7
:102A0000B042C2F8804001330A6832FA03F400F0A1
:102A10008C804FF0010C0CFA03FC1CEA0202F2D08D
:102A20004C6804F00304013C012C81D94C6804F08B
:102A30000304032C0CD0C4685D004FF0030C0CFAA7
:102A400005FC24EA0C0C8C68AC4044EA0C04C4601D
:102A50004C6804F00304022C3FF47EAF04684FEA94
:102A6000430E4FF0030C0CFA0EFC24EA0C0C4C68DD
:102A700004F0030404FA0EF444EA0C0404604C6805
:102A800014F4403FBFD02B4CD4F8F45045F002056D
:102A9000C4F8F450D4F8F44004F002040194019C0A
:102AA0004FEA930C0CF10205214C54F8255003F029
:102AB000030E4FEA8E0E0F2404FA0EF425EA0405E5
:102AC0001D4CA0423FF460AF04F58064A0421ED0CC
:102AD00004F58064A0421CD004F58064A0421AD0A2
:102AE00004F58064A04218D004F58064A04216D09A
:102AF00004F58064A04214D004F58064A04212D092
:102B000004F50064A0423FF43DAF0A243DE70124F0
:102B10003BE7022439E7032437E7042435E705249B
:102B200033E7062431E707242FE703B0F0BD00BFE9
:102B30000004005800440258000002580AB18161A4
:102B40007047090481617047134BDB6813F0040F71
:102B500007D1114BDB6803F0070383421AD0012031
:102B6000704710B50C4AD36823F007030343D360C2
:102B7000FEF7C4FA0446084B5B6813F4005F07D104
:102B8000FEF7BCFA001BB0F57A7FF4D9012000E013
:102B9000002010BD0020704700480258002800F0B7
:102BA000D78238B50446036813F0010F25D0A04A38
:102BB000136903F03803926A102B15D0182B0FD02D
:102BC0006368B3F5803F3FD0002B53D1984B1A6810
:102BD00022F480321A601A6822F480221A6038E0E7
:102BE00002F00302022AEBD1914B1B6813F4003F61
:102BF00003D06368002B00F0AD82236813F0020F4E
:102C000000F088808A4A1369926A13F038035AD018
:102C1000182B55D0E368002B00F0A98084490A687E
:102C200022F0190213430B60FEF768FA0546804B49
:102C30001B6813F0040F40F09180FEF75FFA401B11
:102C40000228F4D903208CE2794A136843F48033D4
:102C5000136063682BB3FEF751FA0546744B1B688B
:102C600013F4003FC9D1FEF749FA401B6428F5D997
:102C7000032076E2B3F5A02F09D06D4B1A6822F439
:102C800080321A601A6822F480221A60E1E7684BE9
:102C90001A6842F480221A601A6842F480321A607C
:102CA000D7E7FEF72BFA0546614B1B6813F4003F8C
:102CB000A3D0FEF723FA401B6428F5D9032050E285
:102CC00012F0030FA6D15A4B1B6813F0040F03D068
:102CD000E368002B00F04082554A136823F0190383
:102CE000E1680B431360FEF709FA0546504B1B6879
:102CF00013F0040F06D1FEF701FA401B0228F5D9A4
:102D000003202EE24A4A536823F0FE43216943EA36
:102D100001635360236813F0100F51D0444A1369C4
:102D200003F03803926A082B39D0182B33D0E369AB
:102D3000002B69D03E4A136843F080031360FEF70E
:102D4000DDF905463A4B1B6813F4807F53D1FEF73B
:102D5000D5F9401B0228F5D9032002E2344A536812
:102D600023F0FE43216943EA01635360D2E7304A0E
:102D7000136823F001031360FEF7C0F905462C4BDE
:102D80001B6813F0040FC5D0FEF7B8F9401B0228EA
:102D9000F5D90320E5E102F00302012AC7D1244B53
:102DA0001B6813F4807F03D0E369802B40F0D68149
:102DB0001F4AD36823F07C53216A43EA0163D3603E
:102DC000236813F0080F49D06369002B32D0184AEA
:102DD000536F43F001035367FEF790F90546144B18
:102DE0005B6F13F0020F39D1FEF788F9401B022800
:102DF000F5D90320B5E10E4AD36823F07C53216A4C
:102E000043EA0163D360DBE7094A136823F08003D8
:102E10001360FEF773F90546054B1B6813F4807FBA
:102E2000CED0FEF76BF9401B0228F5D9032098E1BC
:102E3000004402589D4A536F23F001035367FEF785
:102E40005DF90546994B5B6F13F0020F06D0FEF754
:102E500055F9401B0228F5D9032082E1236813F0BD
:102E6000200F29D0A3699BB1904A136843F4805383
:102E70001360FEF743F905468C4B1B6813F4005FA3
:102E80001AD1FEF73BF9401B0228F5D9032068E16F
:102E9000864A136823F480531360FEF72FF9054622
:102EA000824B1B6813F4005F06D0FEF727F9401B26
:102EB0000228F5D9032054E1236813F0040F21D12F
:102EC000636A002B00F04C81784A126902F03802E4
:102ED000182A00F0F380022B75D0744A136823F08F
:102EE00080731360FEF70AF90446704B1B6813F0F9
:102EF000007F00F0D880FEF701F9001B0228F4D90A
:102F000003202EE16A4A136843F480731360FEF7CE
:102F1000F5F80546664B1B6813F4807F06D1FEF773
:102F2000EDF8401B6428F5D903201AE1A368012BB2
:102F30000AD00BBB5D4B1A6F22F001021A671A6FA1
:102F400022F004021A6704E0584A136F43F00103A9
:102F50001367A36833B3FEF7D1F80546534B1B6FD5
:102F600013F0020FACD1FEF7C9F8401B41F28833D1
:102F70009842F3D90320F4E0052B09D04B4B1A6F8C
:102F800022F001021A671A6F22F004021A67E0E7C2
:102F9000464B1A6F42F004021A671A6F42F00102A0
:102FA0001A67D6E7FEF7AAF80546404B1B6F13F0E9
:102FB000020F85D0FEF7A2F8401B41F288339842F9
:102FC000F3D90320CDE0394A136823F080731360EE
:102FD000FEF794F80546354B1B6813F0007F06D0CA
:102FE000FEF78CF8401B0228F5D90320B9E02F4BDF
:102FF000996A304A0A40A16AE06A41EA00110A432C
:103000009A62226B013AC2F30802616B01394902EC
:1030100089B20A43A16B0139090401F4FE010A4394
:10302000E16B0139090601F0FE410A431A63DA6ACD
:1030300022F00102DA62596B1F4A0A40A16C42EA8F
:10304000C1025A63DA6A22F00C02216C0A43DA6286
:10305000DA6A22F00202616C0A43DA62DA6A42F446
:103060008032DA62DA6A42F40032DA62DA6A42F410
:103070008022DA62DA6A42F00102DA621A6842F009
:1030800080721A60FEF73AF80446084B1B6813F08A
:10309000007F06D1FEF732F8001B0228F5D9032085
:1030A0005FE000205DE000205BE000BF00440258CC
:1030B000004802580CFCFFFF0700FFFF30498A6AF6
:1030C000086B012B4ED002F00303A16A8B424BD157
:1030D000C2F30512E36A9A4248D1C0F30802236B97
:1030E000013B9A4244D1C0F34622636B013B9A42B2
:1030F00040D1C0F30642A36B013B9A423CD1C0F3DE
:103100000660E36B013B984238D11D4B5B6BC3F308
:10311000CC03A26C9A4201D1002022E0184AD36A63
:1031200023F00103D362FDF7E9FF0546FDF7E6FF53
:10313000A842FBD0124A516B124B0B40A16C43EAE0
:10314000C1035363D36A43F00103D362002008E054
:1031500001207047012004E0012002E0012000E08E
:10316000002038BD0120FCE70120FAE70120F8E744
:103170000120F6E70120F4E70120F2E70120F0E763
:10318000004402580700FFFF744B1B6903F038032B
:10319000102B00F0DE80182B0FD00BB17048704759
:1031A0006E4B1B6813F0200F00F0D5806B4B1B6833
:1031B000C3F3C1036B48D840704710B4674B9A6A99
:1031C00002F003029C6AC4F30510D96A01F0010100
:1031D0005B6BC3F3CC0301FB03F307EE903AF8EE0D
:1031E000677A14F47C7F00F09480012A66D0022A6A
:1031F00000F09280E2B107EE100AF8EE476A9FED08
:103200005A6A86EE267A554B1B6BC3F3080306EE0B
:10321000903AF8EE666A9FED556A67EE867A76EE2A
:10322000A77AF7EE006A77EEA67A27EE277A61E0B2
:103230004A4B1B6813F0200F23D048490A68C2F399
:10324000C102484BD34007EE103AF8EE476A07EE4A
:10325000100AB8EE476A86EE867A0B6BC3F3080352
:1032600006EE903AF8EE666A9FED406A67EE867A5F
:1032700076EEA77AF7EE006A77EEA67A27EE277A3F
:1032800038E007EE100AF8EE476A9FED396A86EEDD
:10329000267A324B1B6BC3F3080306EE903AF8EE26
:1032A000666A9FED326A67EE867A76EEA77AF7EE67
:1032B000006A77EEA67A27EE277A1BE007EE100A5F
:1032C000F8EE476A9FED286A86EE267A234B1B6B41
:1032D000C3F3080306EE903AF8EE666A9FED236AA0
:1032E00067EE867A76EEA77AF7EE006A77EEA67A30
:1032F00027EE277A194B1B6BC3F34623013307EEE6
:10330000903AF8EE677AC7EE276AFCEEE67A17EE97
:10331000900A5DF8044B704707EE100AF8EE476A12
:103320009FED146A86EE267A0C4B1B6BC3F30803E1
:1033300006EE903AF8EE666A9FED0C6A67EE867AC2
:1033400076EEA77AF7EE006A77EEA67A27EE277A6E
:10335000D0E7094870470348704700BF004402584F
:1033600000093D000090D0030024744A0000003999
:103370000024744C001BB74B00366E01002800F08F
:10338000328170B50D4604469B4B1B6803F00F035A
:103390008B420BD2984A136823F00F030B43136040
:1033A000136803F00F038B4240F01F81236813F072
:1033B000040F0CD02269914B9B6903F070039A4271
:1033C00005D98E498B6923F070031A438A612368FB
:1033D00013F0080F0CD06269884BDB6903F07003AF
:1033E0009A4205D98549CB6923F070031A43CA6113
:1033F000236813F0100F0CD0A269804BDB6903F433
:10340000E0639A4205D97D49CB6923F4E0631A430E
:10341000CA61236813F0200F0CD0E269774B1B6A56
:1034200003F070039A4205D974490B6A23F07003C4
:103430001A430A62236813F0020F0CD0E2686F4B44
:103440009B6903F00F039A4205D96C498B6923F0FD
:103450000F031A438A61236813F0010F41D0674AB2
:10346000936923F47063A1680B4393616368022B33
:103470000AD0032B27D0012B2CD0604A126812F0FF
:10348000040F06D10120ADE0126812F4003F00F0F5
:10349000AE805A490A6922F0070213430B61FDF717
:1034A0002DFE0646554B1B6903F038036268B3EBEB
:1034B000C20F16D0FDF722FE801B41F288339842DE
:1034C000F0D903208EE04D4A126812F0007FE0D15F
:1034D000012087E0494A126812F4807FD9D1012087
:1034E00080E0236813F0020F0CD0E268434B9B6925
:1034F00003F00F039A4205D240498B6923F00F0372
:103500001A438A613C4B1B6803F00F03AB420AD994
:10351000394A136823F00F032B431360136803F039
:103520000F03AB4265D1236813F0040F0CD022695E
:10353000324B9B6903F070039A4205D22F498B6985
:1035400023F070031A438A61236813F0080F0CD02C
:1035500062692A4BDB6903F070039A4205D227495E
:10356000CB6923F070031A43CA61236813F0100F6C
:103570000CD0A269214BDB6903F4E0639A4205D2C7
:103580001E49CB6923F4E0631A43CA61236813F030
:10359000200F0CD0E269194B1B6A03F070039A42AA
:1035A00005D216490B6A23F070031A430A62FFF72B
:1035B000EBFD12498B69C3F30323114AD35C03F07B
:1035C0001F03D8408B6903F00F03D35C03F01F0384
:1035D00020FA03F30B4A13600B4B18600B4B18686F
:1035E000FDF7BCFB70BD012070470120FAE7012008
:1035F000F8E70120F6E700BF00200052004402581F
:103600001C61000800000024040000240C000024B9
:1036100008B5FFF7B9FD0B4A9369C3F303230A49C1
:10362000CB5C03F01F0320FA03F3926902F00F0250
:10363000885C00F01F0023FA00F0044A1060044A7E
:10364000136008BD004402581C61000800000024FB
:103650000400002408B5FFF7DBFF054BDB69C3F36B
:103660000213044AD35C03F01F03D84008BD00BF17
:10367000004402581C6100083F230360114B1A6983
:1036800002F0070242609A6902F4706282609A69ED
:1036900002F00F02C2609A6902F070020261DA69F8
:1036A00002F070024261DA6902F4E06282611B6A30
:1036B00003F07003C361044B1B6803F00F030B603E
:1036C000704700BF0044025800200052404B9B6AE4
:1036D00003F00303032B79D070B505460E463C4A30
:1036E000136823F080631360FDF708FD0446384B30
:1036F0001B6813F0006F06D0FDF700FD031B022BC3
:10370000F5D9032070BD324B9A6A22F47C322968C5
:1037100042EA01329A626A68013AC2F30802A96871
:103720000139490289B20A43E9680139090401F4FF
:10373000FE010A4329690139090601F0FE410A43E5
:103740009A63DA6A22F0C00269690A43DA62DA6AC5
:1037500022F02002A9690A43DA62DA6A22F0100232
:10376000DA62D96B1B4A0A40E96942EAC102DA63AC
:10377000DA6A42F01002DA62C6B91A46DB6A43F42A
:103780000023D362124A136843F080631360FDF78D
:10379000B5FC04460E4B1B6813F0006F14D1FDF707
:1037A000ADFC001B0228F5D90320ABE7012E05D0A4
:1037B000074AD36A43F40013D362E3E7044AD36AA7
:1037C00043F48013D362DDE700209BE701207047BC
:1037D000004402580700FFFF404B9B6A03F00303BD
:1037E000032B79D070B505460E463C4A136823F08A
:1037F00080531360FDF782FC0446384B1B6813F0BE
:10380000005F06D0FDF77AFC031B022BF5D90320DD
:1038100070BD324B9A6A22F07C72296842EA0152EA
:103820009A626A68013AC2F30802A968013949023A
:1038300089B20A43E9680139090401F4FE010A4327
:1038400029690139090601F0FE410A431A64DA6A5E
:1038500022F4406269690A43DA62DA6A22F4007289
:10386000A9690A43DA62DA6A22F48072DA62596C70
:103870001B4A0A40E96942EAC1025A64DA6A42F420
:103880008072DA62C6B91A46DB6A43F48003D362F7
:10389000124A136843F080531360FDF72FFC04466F
:1038A0000E4B1B6813F0005F14D1FDF727FC001BC3
:1038B0000228F5D90320ABE7012E05D0074AD36AC9
:1038C00043F08073D362E3E7044AD36A43F400030E
:1038D000D362DDE700209BE70120704700440258D7
:1038E0000700FFFFF8B50446036813F0006F30D0FF
:1038F000436EB3F5001F26D00ED8EBB1B3F5801F91
:1039000007D102210830FFF7E1FE054645B12E46FA
:1039100021E0012635461EE0B3F5401F09D1002500
:103920009F4A136D23F44013616E0B431365002609
:1039300011E0012635460EE0994AD36A43F400337C
:10394000D3620025ECE702212830FFF745FF05464A
:10395000DCE700263546236813F4807F27D0A36D6B
:10396000042B20D8DFE803F00311180808008C4A64
:10397000D36A43F40033D362C5B9894A136D23F087
:103980000703A16D0B43136511E0002104F108004A
:10399000FFF79CFE0546EFE7002104F12800FFF742
:1039A0001BFF0546E8E70126354600E02E46236862
:1039B00013F4806F22D0D4F8A430B3F5800F3FD039
:1039C0000DD8BBB3B3F5001F06D1002104F10800E8
:1039D000FFF77CFE054608E0012635460EE0B3F50C
:1039E000000F02D0B3F5200F1ED185BB6C4A936D3A
:1039F00023F46003D4F8A4100B439365236813F4F5
:103A0000006F39D0D4F8A830B3F1007F5AD023D852
:103A1000002B51D0B3F1807F1BD1002104F10800AD
:103A2000FFF754FE05461DE0B3F5C00FDDD00126BB
:103A30003546E3E75A4AD36A43F40033D362D4E706
:103A4000002104F12800FFF7C7FE0546CDE72E460A
:103A5000D4E7012635460FE0B3F1806F02D0B3F111
:103A6000A06F23D1002D34D14D4A936D23F0E06334
:103A7000D4F8A8100B439365236813F0007F31D06E
:103A8000E36C202B42D029D833B1102B23D1444AE8
:103A9000D36A43F40033D362002D3ED1404AD36C45
:103AA00023F03003E16C0B43D3641BE0B3F1407FA0
:103AB000D8D001263546DFE7394AD36A43F40033CC
:103AC000D362CFE7002104F12800FFF785FE054609
:103AD000C8E72E46D0E70126354603E0302BDBD081
:103AE00001263546236813F4805F3BD0E36DB3F5C0
:103AF000005F2FD016D83BB3B3F5805F0FD1002104
:103B000004F10800FFF7E2FD054611E0022104F18F
:103B10000800FFF7DBFD0546BEE72E46E2E701267B
:103B200035461FE0B3F5405F02D0B3F5804F08D1B2
:103B3000BDB91B4A136D23F4E043E16D0B431365DC
:103B400010E0012635460DE0154AD36A43F40033F0
:103B5000D362EDE7002104F12800FFF73DFE0546A2
:103B6000E6E72E46236813F4005F29D0236EB3F5F1
:103B7000003F44D019D843B1B3F5803F12D10121A1
:103B800004F10800FFF7A2FD0546002D3ED1044ACE
:103B9000136D23F4E023216E0B43136510E000BF87
:103BA00000440258012635460AE0B3F5802FECD0D8
:103BB000B3F5A02FE9D0B3F5403FE6D00126354656
:103BC000236813F4804F31D0D4F8AC30B3F1005FE8
:103BD00045D020D843B1B3F1805F19D1012104F160
:103BE0000800FFF773FD0546002D3FD18F4A936D06
:103BF00023F0E043D4F8AC100B43936516E00121A9
:103C000004F12800FFF7E8FD0546BEE72E46D7E79A
:103C1000012635460AE0B3F1804FE5D0B3F1A04F5D
:103C2000E2D0B3F1405FDFD001263546236813F4BC
:103C3000004F09D0E36EB3F1805F19D0B3F1005F9C
:103C400024D0D3B101263546236813F0807F33D0CA
:103C5000A36C032B5BD8DFE803F027225327012155
:103C600004F12800FFF7B8FD0546BDE72E46DDE765
:103C70006E4AD36A43F40033D36275B96B4A136D4D
:103C800023F04053E16E0B431365DDE7012104F19E
:103C90000800FFF71BFD0546EFE72E46D4E7634A11
:103CA000D36A43F40033D362A5BB604AD36C23F0DC
:103CB0000303A16C0B43D364236813F4800F2BD14F
:103CC000236813F0010F00F0A380A36F282B00F2EC
:103CD0009D80DFE803F08B9B9B9B9B9B9B9B859B25
:103CE0009B9B9B9B9B9B949B9B9B9B9B9B9B8B9B3B
:103CF0009B9B9B9B9B9B8B9B9B9B9B9B9B9B8B00CF
:103D0000022104F10800FFF7E1FC0546CCE701269B
:103D10003546D1E72E46CFE7454A136843F4807312
:103D20001360FDF7EBF90746414B1B6813F4807FE6
:103D300005D1FDF7E3F9C01B6428F5D90325002D53
:103D40004AD13A4B1B6FD4F8B020534013F4407F54
:103D50000CD0364B1A6F22F44072196F41F4803147
:103D60001967196F21F4803119671A67D4F8B030D8
:103D7000B3F5807F15D08DBBD4F8B03003F440721A
:103D8000B2F5407F1ED0294A136923F47C53136196
:103D900026490B6FD4F8B020C2F30B0213430B6714
:103DA0008EE7FDF7ABF90746204B1B6F13F0020FB0
:103DB000E1D1FDF7A3F9C01B41F288339842F3D952
:103DC0000325D8E71948026922F47C52194901EA0F
:103DD000131313430361DBE72E4671E72E466FE7AB
:103DE000012104F10800FFF771FC0546E5B90F4A0F
:103DF000536D23F03803A16F0B43536508E0012195
:103E000004F12800FFF7E8FC0546EFE701263546F8
:103E1000236813F0020F1DD0636F052B2ED8DFE847
:103E200003F0110B261111112E46F1E70044025840
:103E300000480258CFFFFF00012104F10800FFF7FE
:103E400045FC0546EDB9A94A536D23F00703616FA0
:103E50000B435365236813F0040F23D0D4F890303C
:103E6000052B45D8DFE803F0150F3D151515012189
:103E700004F12800FFF7B0FC0546E3E701263546CC
:103E8000E8E72E46E6E7012104F10800FFF71EFCF3
:103E9000054685BB954A936D23F00703D4F890102F
:103EA0000B439365236813F0200F34D0D4F88C3083
:103EB000B3F1005F4ED023D843B1B3F1805F1CD182
:103EC000002104F10800FFF701FC0546002D48D150
:103ED000864A536D23F0E043D4F88C100B435365AE
:103EE00019E0012104F12800FFF776FC0546D0E730
:103EF00001263546D6E72E46D4E7012635460AE0A8
:103F0000B3F1804FE2D0B3F1A04FDFD0B3F1405F07
:103F1000DCD001263546236813F0400F31D0D4F8A9
:103F20009830B3F5006F4DD020D843B1B3F5806F12
:103F300019D1002104F10800FFF7C8FB0546002D48
:103F400047D16A4A936D23F4E053D4F898100B4399
:103F5000936516E0022104F12800FFF73DFC0546B9
:103F6000B4E72E46D7E7012635460AE0B3F5805F71
:103F7000E5D0B3F5A05FE2D0B3F5406FDFD0012606
:103F80003546236813F0800F33D0D4F89C30B3F556
:103F9000804F00F0A18021D843B1B3F5005F1AD162
:103FA000002104F10800FFF791FB0546002D40F0C9
:103FB0009A804E4A936D23F46043D4F89C100B43CF
:103FC000936516E0022104F12800FFF705FC054681
:103FD000B5E72E46D5E7012635460AE0B3F5004F92
:103FE000E4D0B3F5204FE1D0B3F5C04FDED00126C9
:103FF0003546236813F0080F0CD0D4F88030B3F5A1
:10400000805F75D0394A536D23F44053D4F8801043
:104010000B435365236813F0100F0CD0D4F8943081
:10402000B3F5807F6DD0314A936D23F44073D4F89B
:1040300094100B439365236813F4002F0BD0D4F82E
:10404000A030B3F5803F75D0B3F5003F68D0002BAA
:1040500060D001263546236813F4802F0CD0D4F8A5
:104060008430B3F5001F7DD0B3F5401F70D0B3F599
:10407000801F68D001263546236813F4803F08D09E
:10408000236D002B77D0B3F5803F00F082800126AE
:104090003546236813F0005F40F08480236813F4F2
:1040A000003F00F08C80E36FB3F5807F00F0DF808D
:1040B00040F28280B3F5007F03D0B3F5407F40F03B
:1040C000D480002D40F0D980084A536D23F440730A
:1040D000E16F0B43536572E0022104F12800FFF702
:1040E0007BFB054662E72E4683E700BF004402588B
:1040F000022104F12800FFF76FFB002882D001267F
:1041000080E7022104F12800FFF766FB00288AD02F
:10411000012688E7002104F10800FFF7D7FA0546D9
:104120007DB9724A936D23F44033D4F8A0100B4349
:10413000936590E7022104F12800FFF74DFB054647
:10414000EEE72E4687E7694AD36A43F40033D36229
:104150007DB9664A536D23F44013D4F884100B43A1
:10416000536589E7012104F12800FFF735FB054677
:10417000EEE72E4680E75D4AD36A43F40033D3620C
:1041800075B95A4AD36C23F48033216D0B43D36441
:104190007FE7022104F10800FFF798FA0546EFE7F0
:1041A0002E4676E7022104F12800FFF715FB0028D0
:1041B0003FF474AF012671E7002B82D001262368FB
:1041C00013F4801F06D0494A136D23F00043216F7A
:1041D0000B431365236813F4001F06D0434A136D85
:1041E00023F08073A16E0B431365236813F0804F97
:1041F00009D03E4B1A6922F400421A611A69D4F8B8
:10420000B4100A431A612368002B06DA374AD36CCC
:1042100023F04053616D0B43D364236813F4000F04
:1042200007D0324A536D23F44003D4F888100B436F
:104230005365636813F0010F21D1636813F0020F17
:1042400026D1636813F0040F2BD1636813F0080FB5
:1042500030D1636813F0100F35D1636813F0200F6D
:104260003AD106B101263046F8BD0126A7E71F4A1C
:10427000D36A43F40033D36223E72E469FE700213D
:1042800004F10800FFF722FA0028D6D00646D4E74A
:10429000012104F10800FFF719FA0028D1D00646E1
:1042A000CFE7022104F10800FFF710FA0028CCD074
:1042B0000646CAE7002104F12800FFF78DFA00281E
:1042C000C7D00646C5E7012104F12800FFF784FAAC
:1042D0000028C2D00646C0E7022104F12800FFF7FB
:1042E0007BFA0028BDD00126BDE700BF004402587C
:1042F00010B402685369916941F008019161016845
:104300008A6942F010028A6101680A6822F001029B
:104310000A6001680C69294A22400A6101688A68BA
:1043200022F440428A6090F88120D2B2042A0DD053
:1043300013F0200F0AD0D0F8842042F08002C0F899
:10434000842001688A6942F020028A6190F8812005
:10435000D2B2032A0DD013F0400F0AD0D0F8842037
:1043600042F00402C0F8842001688A6942F04002E9
:104370008A6113F4007F0AD0D0F8842042F0010251
:10438000C0F8842001688A6942F400728A6113F4DB
:10439000807F0AD0D0F8843043F00803C0F884301E
:1043A0000268936943F4807393610023A0F862303C
:1043B000A0F86A305DF8044B704700BF90FCFFFF27
:1043C000C36B5B09C0680830C00803FB000070477E
:1043D000002800F0B78070B50446002383620568AA
:1043E0005C4B5D4E9D4218BFB54214BF01260026AE
:1043F00007D0A3F574439D4203D0C3680F2B00F28E
:10440000A3802046FFF7DCFF2EB1544B9D4202D023
:10441000082800F29B804F4A4F4B9D4218BF95429F
:1044200003D003F580639D4202D1102800F29080F2
:1044300094F88130F3B1022384F881302268136844
:1044400023F00103136023689A6802F4F812A1694B
:10445000B1F1806F14D0636813F4800F23D0E36848
:10446000062B20D921680B6823F48073206D034349
:104470000B601DE084F880302046FCF7A3FBDAE7F0
:104480006168B1F5800F06D00029E4D1A16BB1F1CC
:10449000805FE0D102E0A06B0028F5D1196841F4FB
:1044A00080511960D7E721680B6823F480730B6093
:1044B000E369A16A0B431343E26B1343E16822688B
:1044C0000B439360636B626A1343A26B1343A2694D
:1044D00013432269134362691343226A13436268D8
:1044E0001343E26C1343A2681343A26C1343A16D00
:1044F00022680B43D36063686BB92268936823F426
:10450000C05343F4006393602268936823F4C0634C
:1045100043F4806393602268136D23F001031365F5
:10452000636813F4800F06D02268D36823F0004339
:10453000616D0B43D3600020C4F88400012384F82C
:10454000813070BD012070470120FAE70120F8E7B3
:104550000120F6E70030014000380040003C0040F8
:10456000704770477047704708B5806B0023A0F80C
:104570006A30A0F86230012380F88130FFF7F3FF42
:1045800008BD70472DE9F84304460668326973692F
:1045900002EA0305D6F8089090F88170FFB213F490
:1045A000006F02D012F0080F3FD105F06403042B16
:1045B00042D0002305F04508B8F1010F44D005F0C2
:1045C0002602022A45D0002B46D115F0080F79D0DB
:1045D0002268936943F0080393612268936943F06A
:1045E000100393612268936943F400639361226826
:1045F000136923F00803136123689B6813F4404F89
:104600003BD02046FFF774FE012384F88130D4F8B4
:104610008430002B4AD1052F4CD0042F4ED0032FCD
:104620001AD12046FFF79CFF16E0B36943F40063FC
:10463000B361FFF7A6FF0FE0636F20469847236F33
:10464000204698470123B5E7236F20469847434605
:10465000B5E7636F20469847BDE8F883072B1CD960
:10466000636E328E1A80636E02336366B4F86A300A
:104670009BB2013B9BB2A4F86A30B4F86A309BB29B
:10468000002BBED0E3680F2BE8D92268636E126B53
:104690001A60636E04336366E8E72268636E92F81B
:1046A00030201A70636E01336366DFE72046FFF740
:1046B0005AFFD1E72046FFF755FFCDE72046FFF729
:1046C00050FFC9E715F4587FC6D015F0400F0AD047
:1046D000D4F8843043F00403C4F88430226893692A
:1046E00043F04003936115F4007F0AD0D4F884307E
:1046F00043F00103C4F884302268936943F40073E3
:10470000936115F4807F0AD0D4F8843043F0080315
:10471000C4F884302268936943F48073936115F080
:10472000200F0AD0D4F8843043F08003C4F88430DA
:104730002268936943F020039361D4F88430002BFE
:104740008AD02268136823F001031360226811697C
:104750001A4B0B40136109F44049B9F5404F25D17C
:104760002268936823F440439360E36F5BB1144A7B
:104770001A65E06FFDF730F828B1D4F8843043F0C3
:104780004003C4F88430A36F002B3FF465AF0C4A9C
:104790001A65A06FFDF720F800283FF45DAFD4F84C
:1047A000843043F04003C4F8843055E7012384F893
:1047B00081302046FFF7D7FE4EE700BF94FCFFFF95
:1047C00069450008F0B4036A23F001030362026A3A
:1047D000466884691E4B23400D681D4322F0020287
:1047E0008B6813431B4A1C4CA04218BF90420CBF5D
:1047F000012200220CD004F58044A04214BF002402
:104800000124164FB84203D014B9154CA04205D16B
:1048100023F00803CC68234323F004035AB9114A58
:10482000904214BF002201220C4CA04203D012B9C6
:104830000B4A904205D126F440764A6932438E698C
:104840001643466085614A6842630362F0BC704764
:104850008CFFFEFF000001400004014000400140C9
:10486000004801400044014070B4036A23F480739F
:104870000362036A4568C4691A4A22400E681643F7
:1048800023F400738A6843EA0223174A174CA042B4
:1048900018BF90420CBF0122002206D123F400630E
:1048A000CC6843EA042323F480635AB9104A904247
:1048B00014BF002201220F4CA04203D012B90E4AAD
:1048C000904207D125F440524C6942EA04128C69A7
:1048D00042EA04154560C6614A68C263036270BC5F
:1048E000704700BF8CFFFEFF000001400004014044
:1048F00000440140004001400048014070B4036A98
:1049000023F480530362036A4468C569144A2A4049
:104910000D6842EA052223F400538D6843EA05330B
:10492000104E114DA84218BFB0420DD005F580457C
:10493000A84214BF0025012506F58046B04203D0E9
:1049400015B90A4DA84204D124F480444D6944EAC3
:1049500085144460C2614A680264036270BC704797
:10496000FF8CFFFE000001400004014000480140B0
:1049700070B4036A23F480330362036A4268456DAE
:10498000144E2E400D682E4323F400338C6843EA06
:104990000443114D114CA04218BFA8420DD004F59C
:1049A0008044A04214BF0024012405F58045A8429C
:1049B00003D014B90A4CA04204D122F480324C69CD
:1049C00042EA0422426046654A688265036270BC1E
:1049D000704700BF8FFFFEFF000001400004014050
:1049E0000048014070B4036A23F480130362036A31
:1049F0004468456D144A2A400D6842EA052223F4B2
:104A000000138D6843EA0553104E114DA84218BF9C
:104A1000B0420DD005F58045A84214BF0025012500
:104A200006F58046B04203D015B90A4DA84204D11C
:104A300024F480244D6944EA8524446042654A6830
:104A4000C265036270BC7047FF8FFFFE000001402B
:104A500000040140004801407047000090F83D30DC
:104A6000DBB2012B42D1022380F83D300268D368CB
:104A700043F00103D36003681E4AB3F1804F18BFAF
:104A8000934225D0A2F57C42934221D002F5806268
:104A900093421DD002F58062934219D002F578420C
:104AA000934215D0A2F56C42934211D002F5943294
:104AB00093420DD0A2F5C042934209D002F5806224
:104AC000934205D01A6842F001021A600020704734
:104AD0009968094A0A40062A18BFB2F5803F07D0F4
:104AE0001A6842F001021A600020704701207047E6
:104AF0000020704700000140070001007047704728
:104B00007047704710B5044603681A6912F0020F27
:104B100011D0DA6812F0020F0DD06FF002021A61A4
:104B20000123037703689B6913F0030F79D0FFF724
:104B3000E6FF0023237723681A6912F0040F12D0CE
:104B4000DA6812F0040F0ED06FF004021A6102232B
:104B5000237723689B6913F4407F68D02046FFF7D2
:104B6000CEFF0023237723681A6912F0080F12D0B2
:104B7000DA6812F0080F0ED06FF008021A610423F1
:104B800023772368DB6913F0030F57D02046FFF724
:104B9000B6FF0023237723681A6912F0100F12D092
:104BA000DA6812F0100F0ED06FF010021A610823AD
:104BB00023772368DB6913F4407F46D02046FFF754
:104BC0009EFF0023237723681A6912F0010F03D098
:104BD000DA6812F0010F3FD123681A6912F0800FD2
:104BE00003D0DA6812F0800F3DD123681A6912F4FD
:104BF000807F03D0DA6812F0800F3BD123681A69F6
:104C000012F0400F03D0DA6812F0400F39D1236858
:104C10001A6912F0200F03D0DA6812F0200F37D192
:104C200010BDFFF76BFF2046FFF76AFF81E72046C4
:104C3000FFF764FF2046FFF763FF92E72046FFF788
:104C40005DFF2046FFF75CFFA3E72046FFF756FF16
:104C50002046FFF755FFB4E76FF001021A612046C6
:104C6000FBF7E4FEB8E76FF080021A61204600F01F
:104C700048FABAE76FF480721A61204600F042FAEF
:104C8000BCE76FF040021A612046FFF73AFFBEE72B
:104C90006FF020021A61204600F032FAC0E70000EF
:104CA00030B503683E4A904214BF4FF0000E4FF0FB
:104CB000010EB0F1804F14BF72464EF00102AAB946
:104CC000384CA04214BF00240124374DA8420DD017
:104CD00064B904F1804404F58234A04214BF002476
:104CE000012405F50065A84200D01CB123F0700333
:104CF0004C68234362BB2B4A904214BF002201221E
:104D0000294CA04224D01ABB02F1804202F5823223
:104D1000904214BF0022012204F50064A04217D083
:104D2000B2B9224A904214BF0022012204F59A34FB
:104D3000A0420DD062B91E4A904214BF0022012247
:104D400004F50064A04203D012B91A4A904204D17B
:104D500023F4407CCB6843EA0C0323F080034A69C8
:104D6000134303608A68C2620A688262124A9042F0
:104D700014BF73464EF0010363B90C4B984214BF45
:104D80000023012302F57052904203D013B90B4B5C
:104D9000984201D10B6903630123436130BD00BF19
:104DA00000000140000800400004004000440140B1
:104DB00000E0004000E400400004014000480140E1
:104DC00060B310B5044690F83D3013B3022384F865
:104DD0003D30214651F8040BFFF762FF012384F8B0
:104DE000483084F83E3084F83F3084F8403084F80E
:104DF000413084F8423084F8433084F8443084F8F9
:104E0000453084F8463084F8473084F83D3000203F
:104E100010BD80F83C30FFF71FFED7E70120704738
:104E200060B310B5044690F83D3013B3022384F804
:104E30003D30214651F8040BFFF732FF012384F87F
:104E4000483084F83E3084F83F3084F8403084F8AD
:104E5000413084F8423084F8433084F8443084F898
:104E6000453084F8463084F8473084F83D300020DF
:104E700010BD80F83C30FCF753F8D7E701207047AD
:104E800070B4036A23F010030362036A45688469FF
:104E90001A4E26400C6846EA042623F020038A684E
:104EA00043EA0213164A174CA04218BF90420CBFA7
:104EB0000122002206D123F08003CC6843EA0413C8
:104EC00023F040035AB9104A904214BF0022012235
:104ED0000E4CA04203D012B90D4A904207D125F4DE
:104EE000406C4A694CEA820C8A694CEA820545604A
:104EF00086614A688263036270BC7047FF8CFFFE64
:104F00000000014000040140004401400040014015
:104F10000048014038B590F83C30012B00F09580F6
:104F200004460D46012380F83C30142A00F28880A4
:104F3000DFE802F00B8686861F86868634868686A4
:104F4000488686865D86868671000068FFF73AFC93
:104F50002268936943F0080393612268936923F000
:104F6000040393612268936929690B4393610020CC
:104F700067E00068FFF784FF2268936943F40063E9
:104F800093612268936923F4806393612268936933
:104F9000296943EA01239361002052E00068FFF78A
:104FA00063FC2268D36943F00803D3612268D369A4
:104FB00023F00403D3612268D36929690B43D361C9
:104FC00000203EE00068FFF799FC2268D36943F4B3
:104FD0000063D3612268D36923F48063D3612268BC
:104FE000D369296943EA0123D361002029E00068DD
:104FF000FFF7BEFC2268536D43F008035365226837
:10500000536D23F0040353652268536D29690B43E4
:105010005365002015E00068FFF7E4FC2268536D3B
:1050200043F4006353652268536D23F48063536532
:105030002268536D296943EA01235365002000E08B
:105040000120002384F83C3038BD0220FCE700003A
:1050500090F83C20012A4DD070B40346012280F81C
:105060003C20022280F83D20026850689468224E5D
:10507000224DAA4218BFB24203D120F470004D68FD
:10508000284320F070000D68284350601A681A48C1
:10509000B2F1804F18BF82421FD0A0F57C408242FF
:1050A0001BD000F58060824217D000F580608242FC
:1050B00013D000F5784082420FD0A0F56C408242B8
:1050C0000BD000F59430824207D0A0F5C040824258
:1050D00003D000F58060824204D124F08004896806
:1050E00021439160012283F83D20002083F83C0099
:1050F00070BC70470220704700000140000401406E
:10510000704770477047842801D0033070470020F3
:10511000704708B500F0C8FC002008BDF0B585B0A8
:105120000C46456806680769B0F90800FFF7EBFF11
:1051300003AB019300902346BAB23146284600F0F3
:1051400083FC012802D1039805B0F0BD0020FBE7E5
:1051500008B500B9012000F0F5FD002008BD00F100
:10516000080343604FF0FF328260C3600361002395
:105170000360704700230361704743684B609A687F
:105180008A60516099600861036801330360704769
:1051900030B40D68B5F1FF3F11D000F108031C4693
:1051A0005B681A68AA42FAD963684B6099608C60A0
:1051B0006160086103680133036030BC70470469B3
:1051C000F2E70369416882688A60416851605A6801
:1051D000824206D0002202611A68013A1A601868F9
:1051E000704782685A60F5E782B0002301930D4B47
:1051F0001B68B3F1FF3F08D04FF0500383F31188D1
:10520000BFF36F8FBFF34F8FFEE74FF0500383F371
:105210001188BFF36F8FBFF34F8F019B002BFCD022
:1052200002B070471000002408480068006880F34E
:1052300008884FF0000080F3148862B661B6BFF3AF
:105240004F8FBFF36F8F00DF00BF000008ED00E05D
:10525000DFF80C00016841F4700101607047000044
:1052600088ED00E04FF0807340F8043C21F001012C
:1052700040F8081C054B40F80C3C40F8202C6FF01F
:10528000020340F8243C4438704700BFE95100084D
:10529000074B19680868B0E8F04F80F30988BFF33E
:1052A0006F8F4FF0000080F311887047AFF30080DC
:1052B000947D00244FF0500383F31188BFF36F8F68
:1052C000BFF34F8F0B4A136801331360012B00D0DB
:1052D00070474FF0E023D3F8043D13F0FF0FF7D0F1
:1052E0004FF0500383F31188BFF36F8FBFF34F8FDD
:1052F000FEE700BF10000024094B1B6843B94FF0C4
:10530000500383F31188BFF36F8FBFF34F8FFEE716
:10531000013B034A13600BB983F31188704700BF48
:105320001000002400000000000000000000000049
:10533000EFF30980BFF36F8F154B1A681EF0100F43
:1053400008BF20ED108A20E9F04F10602DE9090018
:105350004FF0500080F31188BFF34F8FBFF36F8F72
:1053600000F016FD4FF0000080F3118809BC1968A9
:105370000868B0E8F04F1EF0100F08BFB0EC108ABC
:1053800080F30988BFF36F8F704700BFAFF30080D1
:10539000947D002408B54FF0500383F31188BFF3C8
:1053A0006F8FBFF34F8F00F0C5FB28B14FF0E023A4
:1053B0004FF08052C3F8042D002383F3118808BDF9
:1053C0004FF0E022002313619361054B1B680549F0
:1053D000A1FB03139B09013B536107231361704732
:1053E00004000024D34D62104FF0E023D3F8002DC9
:1053F0003D4B9A421CD04FF0E023D3F8002D3B4B9D
:105400009A421ED030B583B0394B1A78D2B201928D
:10541000FF221A701B78DBB28DF803309DF8033041
:1054200003F05003334A1370334B07221A601BE01A
:105430004FF0500383F31188BFF36F8FBFF34F8F8B
:10544000FEE74FF0500383F31188BFF36F8FBFF374
:105450004F8FFEE7284A1368013B13609DF8033025
:105460005B00DBB28DF803309DF8033013F0800F42
:10547000F0D1214B1B68032B08D04FF0500383F36E
:105480001188BFF36F8FBFF34F8FFEE71B021A4ADD
:10549000136003F4E0631360019BDBB2144A1370E2
:1054A0004FF0E024D4F8203D43F47003C4F8203DCD
:1054B000D4F8203D43F07043C4F8203DFFF780FF4F
:1054C00000250E4B1D60FFF7C3FED4F8343F43F0B8
:1054D0004043C4F8343FFFF7A7FE00F059FCFFF744
:1054E00083FE284603B030BD71C20F4170C20F4128
:1054F00000E400E0480400244404002410000024D8
:10550000124A12F0070F1ED0D11D21F00701C1F57C
:10551000F04313440A460E480260002141601344E0
:10552000083B23F007030B48036059601960991A80
:1055300051601360084B1960084B1960084B4FF01D
:1055400000421A6070474FF4F043E4E76C04002413
:105550006404002460040024580400245C04002433
:105560004C040024164B1A461B688342FBD3516837
:1055700002EB010C844509D0416800EB010C634546
:1055800009D00360904219D0106070474068014410
:1055900051601046F0E710B40A4C2468A3420BD0C7
:1055A0005B681944416013681B680360904200D037
:1055B00010605DF8044B70470460F7E7704700BF68
:1055C000640400246004002438B5044600F0AAFAFC
:1055D000384B1B68B3B1384B1B681C4250D1002CB0
:1055E00050D004F1080214F0070F02D022F0070295
:1055F0000832002A55D0314B1B68934253D33049AF
:105600000C6804E0FFF77CFFE5E721461C46636871
:10561000934202D22368002BF7D1264B1B68A3428A
:1056200043D00D68083523680B6063689B1A102B04
:1056300010D9A01810F0070F08D04FF0500383F3D3
:105640001188BFF36F8FBFF34F8FFEE74360626037
:10565000FFF788FF626819490B689B1A0B601949AC
:1056600009688B4201D217490B60134B1B68134327
:10567000636000232360144A13680133136002E05F
:10568000002500E0002500F0E1FA15F0070F0ED02C
:105690004FF0500383F31188BFF36F8FBFF34F8F29
:1056A000FEE70025EFE70025EDE70025EBE72846BC
:1056B00038BD00BF600400244C0400245C040024B6
:1056C000640400245804002454040024002834D026
:1056D00038B50446A0F1080550F8043C174A126892
:1056E000134208D14FF0500383F31188BFF36F8F3B
:1056F000BFF34F8FFEE750F8081C41B14FF0500345
:1057000083F31188BFF36F8FBFF34F8FFEE723EA58
:10571000020340F8043C00F005FA54F8041C084A5F
:1057200013680B4413602846FFF71CFF054A1368F3
:105730000133136000F08AFA38BD70474C0400242E
:105740005C04002450040024084B1B681B6823B928
:10575000074B4FF0FF321A607047044B1B68DB6841
:10576000DB685A68024B1A60704700BFDC7C00247B
:10577000747C002410B50446006BFFF7A7FF204699
:10578000FFF7A4FF10BD2DE9F04707469846089D96
:10579000DDF824900A9C266B6FF04043134406EB1F
:1057A000830626F00706C1B308464FF0000CBCF193
:1057B0000F0F09D810F80C2004EB0C0383F83420E9
:1057C00012B10CF1010CF2E7002384F84330062DEE
:1057D00000D90625E56265644FF0000AC4F848A0C8
:1057E000201DFFF7C7FC04F11800FFF7C3FC24617C
:1057F000C5F10705A5616462C4F84CA084F850A007
:10580000424639463046FFF72DFD2060B9F1000FC2
:1058100001D0C9F80040BDE8F087002384F8343097
:10582000D5E7000038B5002407E004EB84029300BC
:105830000E481844FFF793FC0134062CF5D90C4DA3
:105840002846FFF78CFC0B4C2046FFF788FC0A48E3
:10585000FFF785FC0948FFF782FC0948FFF77FFC4A
:10586000084B1D60084B1C6038BD00BF087D00243C
:10587000F47C0024E07C0024C47C0024B07C002460
:10588000987C0024DC7C0024D87C002410B50446DD
:10589000FFF710FD214A136801331360204B1B688A
:1058A0005BB1204B1B686BB91D4B1B68DA6AE36A5E
:1058B0009A4207D81A4B1C6004E0194B1C6013680D
:1058C000012B28D0184A136801331360E06A0123C2
:1058D0008340164A11680B43136000EB8000211DC2
:1058E000134B03EB8000FFF748FCFFF705FD0D4B62
:1058F0001B687BB10A4B1B68DA6AE36A9A4209D2D9
:105900004FF0E0234FF08052C3F8042DBFF34F8FC8
:10591000BFF36F8F10BDFFF785FFD3E7947C0024A2
:10592000947D0024887C0024787C00248C7C0024D6
:10593000087D00240F4B1B68D3B110B5FFF7BAFCEC
:105940000D4BDB68DC68201DFFF73BFC0B4A13683E
:10595000013B1360074A1368013B1360FFF7CCFC5F
:105960002046FFF707FF034B1B68002BE6D110BD55
:10597000704700BFAC7C0024B07C0024947C0024E1
:1059800008B5FFF7D7FF074B1B68012BF9D94FF07C
:10599000E0234FF08052C3F8042DBFF34F8FBFF3C5
:1059A0006F8FEEE7087D002470B504460D461F4B4F
:1059B0001E681F4B18680430FFF703FC48B91C4BE6
:1059C0001B68DB6A01229A401A490B6823EA02032A
:1059D0000B60B4F1FF3F14BF00230123002D08BF6B
:1059E00000236BB93444124B1B685C60A6420ED98D
:1059F000114B18680E4B19680431FFF7C9FB70BDD5
:105A00000B4B196804310D48FFF7B7FBF7E70C4B58
:105A10001868074B19680431FFF7BAFB094B1B687C
:105A2000A342ECD9074B1C60E9E700BF907C00243F
:105A3000947D00248C7C0024D87C0024987C002455
:105A4000DC7C0024747C00242DE9F04385B00746FB
:105A50000E4614461D469000FFF7B6FDF8B181468C
:105A60005420FFF7B1FD804698B1C0F83090002374
:105A7000039302900D9B01930C9B00932B462246AF
:105A800031463846FFF77FFE4046FFF7FFFE012014
:105A900007E04846FFF71AFE4FF0FF3001E04FF0F5
:105AA000FF3005B0BDE8F08300B583B0174B01931C
:105AB00000230093802216491648FFF7C5FF0128EE
:105AC00005D0B0F1FF3F17D003B05DF804FB4FF0F5
:105AD000500383F31188BFF36F8FBFF34F8F0E4BCB
