:020000040800F2
:1000000000000524A53400081D3200081F32000836
:1000100021320008233200082532000800000000C9
:10002000000000000000000000000000117F000838
:100030002732000800000000B17F0008158000088A
:10004000F5340008F5340008F5340008F5340008EC
:10005000F5340008F5340008F5340008F5340008DC
:10006000F5340008F5340008F5340008293200089A
:1000700039320008F5340008F5340008F53400087A
:10008000F5340008F5340008F5340008493200085A
:1000900059320008F5340008F5340008F53400083A
:1000A000F5340008F5340008F5340008F53400088C
:1000B00069320008F5340008F5340008F53400080A
:1000C000F5340008F5340008F5340008F53400086C
:1000D00079320008F5340008F5340008F5340008DA
:1000E000F5340008F534000800000000F53400087D
:1000F000F5340008F5340008F5340008F53400083C
:10010000F5340008F5340008F5340008F53400082B
:10011000F5340008F5340008F5340008F53400081B
:10012000F5340008F5340008F5340008F53400080B
:10013000F5340008F5340008F5340008F5340008FB
:1001400000000000000000000000000000000000AF
:10015000F5340008F5340008F5340008F5340008DB
:10016000F5340008F5340008F5340008F5340008CB
:10017000F5340008F5340008F534000800000000EC
:10018000F5340008F5340008F5340008F5340008AB
:10019000F5340008F5340008F5340008F53400089B
:1001A000F5340008F5340008F534000800000000BC
:1001B000F5340008F5340008F5340008F53400087B
:1001C000F5340008F53400080000000000000000CD
:1001D0000000000000000000F534000800000000EE
:1001E000000000000000000000000000000000000F
:1001F0000000000000000000F5340008F53400089D
:10020000F5340008F534000800000000F53400085B
:10021000F5340008F5340008F5340008F53400081A
:10022000F534000800000000F5340008000000006C
:10023000F5340008F534000800000000F53400082B
:10024000F5340008F5340008F5340008F5340008EA
:10025000F5340008F5340008F5340008F5340008DA
:10026000F5340008F5340008F5340008F5340008CA
:10027000F5340008F5340008F534000800000000EB
:10028000F5340008F5340008F5340008F5340008AA
:1002900000000000F5340008F534000800000000FC
:1002A00000000000F5340008F5340008F5340008BB
:1002B000F5340008F5340008F534000889320008E8
:0C02C000F5340008F5340008F53400089F
:1002D0000348044B834202D0034B03B118477047D5
:1002E000040A0024040A002400000000054806490E
:1002F0000B1AD90F01EBA301491002D0034B03B134
:1003000018477047040A0024040A00240000000073
:1003100010B5064C237843B9FFF7DAFF044B13B14D
:100320000448AFF300800123237010BD080A0024A5
:100330000000000048CD000808B5044B1BB104497B
:100340000448AFF30080BDE80840CFE7000000009C
:100350000C0A002448CD000881F0004102E000BFF3
:1003600083F0004330B54FEA41044FEA430594EA75
:10037000050F08BF90EA020F1FBF54EA000C55EAB0
:10038000020C7FEA645C7FEA655C00F0E2804FEA81
:100390005454D4EB5555B8BF6D420CDD2C4480EA63
:1003A000020281EA030382EA000083EA010180EA93
:1003B000020281EA0303362D88BF30BD11F0004FE1
:1003C0004FEA01314FF4801C4CEA113102D0404217
:1003D00061EB410113F0004F4FEA03334CEA133352
:1003E00002D0524263EB430394EA050F00F0A7806A
:1003F000A4F10104D5F1200E0DDB02FA0EFC22FA65
:1004000005F2801841F1000103FA0EF2801843FA58
:1004100005F359410EE0A5F120050EF1200E012A49
:1004200003FA0EFC28BF4CF0020C43FA05F3C01887
:1004300051EBE37101F0004507D54FF0000EDCF100
:10044000000C7EEB00006EEB0101B1F5801F1BD3A9
:10045000B1F5001F0CD349085FEA30004FEA3C0CAD
:1004600004F101044FEA445212F5800F80F09A80A3
:10047000BCF1004F08BF5FEA500C50F1000041EBA7
:10048000045141EA050130BD5FEA4C0C404141EBAB
:100490000101013C28BFB1F5801FE9D291F0000FA6
:1004A00004BF01460020B1FA81F308BF2033A3F155
:1004B0000B03B3F120020CDA0C3208DD02F1140C4C
:1004C000C2F10C0201FA0CF021FA02F10CE002F187
:1004D0001402D8BFC2F1200C01FA02F120FA0CFC80
:1004E000DCBF41EA0C019040E41AA2BF01EB0451C9
:1004F000294330BD6FEA04041F3C1CDA0C340EDCC7
:1005000004F11404C4F1200220FA04F001FA02F309
:1005100040EA030021FA04F345EA030130BDC4F1C7
:100520000C04C4F1200220FA02F001FA04F340EABC
:100530000300294630BD21FA04F0294630BD94F06D
:10054000000F83F4801306BF81F480110134013D54
:100550004EE77FEA645C18BF7FEA655C29D094EAC5
:10056000050F08BF90EA020F05D054EA000C04BF43
:100570001946104630BD91EA030F1EBF002100202E
:1005800030BD5FEA545C05D14000494128BF41F0CD
:10059000004130BD14F580043CBF01F5801130BD31
:1005A00001F0004545F0FE4141F470014FF00000BC
:1005B00030BD7FEA645C1ABF194610467FEA655C6D
:1005C0001CBF0B46024650EA013406BF52EA03350F
:1005D00091EA030F41F4002130BD00BF90F0000FFD
:1005E00004BF0021704730B54FF4806404F1320439
:1005F0004FF000054FF0000150E700BF90F0000FF2
:1006000004BF0021704730B54FF4806404F1320418
:1006100010F0004548BF40424FF000013EE700BFE8
:1006200042004FEAE2014FEA31014FEA02701FBF78
:1006300012F07F4393F07F4F81F06051704732F0AA
:100640007F4208BF704793F07F4F04BF41F4002101
:10065000704730B54FF4607401F0004521F000415F
:100660001CE700BF50EA010208BF704730B54FF0E9
:1006700000050AE050EA010208BF704730B511F0EA
:10068000004502D5404261EB41014FF4806404F122
:1006900032045FEA915C3FF4D8AE4FF003025FEAA8
:1006A000DC0C18BF03325FEADC0C18BF033202EB2C
:1006B000DC02C2F1200300FA03FC20FA02F001FA86
:1006C00003FE40EA0E0021FA02F11444BDE600BF29
:1006D00070B54FF0FF0C4CF4E06C1CEA11541DBFD8
:1006E0001CEA135594EA0C0F95EA0C0F00F0DEF8A3
:1006F0002C4481EA030621EA4C5123EA4C5350EA88
:10070000013518BF52EA033541F4801143F48013D8
:1007100038D0A0FB02CE4FF00005E1FB02E506F069
:100720000042E0FB03E54FF00006E1FB03569CF0BE
:10073000000F18BF4EF0010EA4F1FF04B6F5007FC4
:1007400064F5407404D25FEA4E0E6D4146EB060636
:1007500042EAC62141EA55514FEAC52040EA5E50BF
:100760004FEACE2EB4F1FD0C88BFBCF5E06F1ED869
:10077000BEF1004F08BF5FEA500E50F1000041EBA0
:10078000045170BD06F0004646EA010140EA02004D
:1007900081EA0301B4EB5C04C2BFD4EB0C0541EA6F
:1007A000045170BD41F480114FF0000E013C00F384
:1007B000AB8014F1360FDEBF002001F0004170BDA8
:1007C000C4F10004203C35DA0C341BDC04F11404C1
:1007D000C4F1200500FA05F320FA04F001FA05F24D
:1007E00040EA020001F0004221F0004110EBD3701A
:1007F00021FA04F642EB06015EEA430E08BF20EA46
:10080000D37070BDC4F10C04C4F1200500FA04F3E8
:1008100020FA05F001FA04F240EA020001F000417A
:1008200010EBD37041F100015EEA430E08BF20EAED
:10083000D37070BDC4F1200500FA05F24EEA020E35
:1008400020FA04F301FA05F243EA020321FA04F064
:1008500001F0004121FA04F220EA020000EBD3701B
:100860005EEA430E08BF20EAD37070BD94F0000F1B
:100870000FD101F00046400041EB010111F4801F4F
:1008800008BF013CF7D041EA060195F0000F18BF00
:10089000704703F00046520043EB030313F4801F3C
:1008A00008BF013DF7D043EA0603704794EA0C0FF6
:1008B0000CEA135518BF95EA0C0F0CD050EA41060C
:1008C00018BF52EA4306D1D181EA030101F0004189
:1008D0004FF0000070BD50EA410606BF10461946B1
:1008E00052EA430619D094EA0C0F02D150EA0136BD
:1008F00013D195EA0C0F05D152EA03361CBF1046FE
:1009000019460AD181EA030101F0004141F0FE419C
:1009100041F470014FF0000070BD41F0FE4141F420
:10092000780170BD70B54FF0FF0C4CF4E06C1CEA20
:1009300011541DBF1CEA135594EA0C0F95EA0C0FD5
:1009400000F0A7F8A4EB050481EA030E52EA033590
:100950004FEA013100F088804FEA03334FF08055B1
:1009600045EA131343EA12634FEA022245EA1115DE
:1009700045EA10654FEA00260EF000419D4208BF8F
:10098000964244F1FD0404F5407402D25B084FEA3C
:100990003202B61A65EB03055B084FEA32024FF4E8
:1009A00080104FF4002CB6EB020E75EB030E22BF45
:1009B000B61A754640EA0C005B084FEA3202B6EB05
:1009C000020E75EB030E22BFB61A754640EA5C00B4
:1009D0005B084FEA3202B6EB020E75EB030E22BF44
:1009E000B61A754640EA9C005B084FEA3202B6EB45
:1009F000020E75EB030E22BFB61A754640EADC0004
:100A000055EA060E18D04FEA051545EA16754FEA65
:100A100006164FEAC30343EA52734FEAC2025FEA83
:100A20001C1CC0D111F4801F0BD141EA00014FF012
:100A300000004FF0004CB6E711F4801F04BF0143E3
:100A40000020B4F1FD0C88BFBCF5E06F3FF6AFAEFF
:100A5000B5EB030C04BFB6EB020C5FEA500C50F18F
:100A6000000041EB045170BD0EF0004E4EEA113112
:100A700014EB5C04C2BFD4EB0C0541EA045170BD19
:100A800041F480114FF0000E013C90E645EA060E5D
:100A90008DE60CEA135594EA0C0F08BF95EA0C0F8B
:100AA0003FF43BAF94EA0C0F0AD150EA01347FF4D3
:100AB00034AF95EA0C0F7FF425AF104619462CE7AA
:100AC00095EA0C0F06D152EA03353FF4FDAE10460D
:100AD000194622E750EA410618BF52EA43067FF45E
:100AE000C5AE50EA41047FF40DAF52EA43057FF4EE
:100AF000EBAE12E74FEA4102B2F1E04324BFB3F597
:100B0000001CDCF1FE5C0DD901F0004C4FEAC00284
:100B10004CEA5070B2F1004F40EB830008BF20F068
:100B20000100704711F0804F21D113F13872BCBF22
:100B300001F00040704741F480114FEA5252C2F177
:100B40001802C2F1200C10FA0CF320FA02F018BFC0
:100B500040F001004FEAC1234FEAD32303FA0CFC13
:100B600040EA0C0023FA02F34FEA4303CCE77FEAA2
:100B7000625307D150EA01331EBF4FF0FE4040F4EC
:100B80004000704701F0004040F0FE4040F400009B
:100B9000704700BF53B94AB9002908BF00281CBFDD
:100BA0004FF0FF314FF0FF3000F06EB9ADF1080C9F
:100BB0006DE904CE00F006F8DDF804E0DDE902237B
:100BC00004B070472DE9F047089D04468C46002B81
:100BD00040F083808A42174647D9B2FA82F242B186
:100BE000C2F1200024FA00F09140974040EA010C45
:100BF00094404FEA1748230CBCFBF8F61FFA87FE17
:100C000008FB16C143EA014306FB0EF1994209D9DC
:100C1000FB1806F1FF3080F01981994240F21681ED
:100C2000023E3B445B1AA4B2B3FBF8F008FB10335E
:100C300044EA034400FB0EFEA64509D93C1900F125
:100C4000FF3380F00581A64540F2028102383C4422
:100C500040EA0640A4EB0E0400261DB1D440002358
:100C6000C5E900433146BDE8F08702B9FFDEB2FABC
:100C700082F2002A50D1CB1B4FEA174E1FFA87F899
:100C80000126B3FBFEFC210C0EFB1C3341EA0341A1
:100C900008FB0CF38B4207D979180CF1FF3002D214
:100CA0008B4200F2E9808446C91AA3B2B1FBFEF080
:100CB0000EFB101143EA014408FB00F8A04507D9D8
:100CC0003C1900F1FF3302D2A04500F2D98018464A
:100CD000A4EB080440EA0C40BFE78B4209D9002D81
:100CE00000F0B1800026C5E9000130463146BDE87C
:100CF000F087B3FA83F6002E4AD18B4202D38242A8
:100D000000F2B880841A61EB030101208C46002DAB
:100D1000A8D0C5E9004CA5E7C2F1200320FA03F6EC
:100D2000974001FA02F04FEA174ED9403043030CC6
:100D3000B1FBFEF61FFA87F80EFB161143EA0143DA
:100D400006FB08F1994204FA02F409D9FB1806F1EE
:100D5000FF3C80F08D80994240F28A80023E3B4405
:100D60005B1A81B2B3FBFEF00EFB103341EA034184
:100D700000FB08F38B4207D9791800F1FF3C73D2CE
:100D80008B4271D902383944CB1A40EA064678E7DB
:100D9000C6F1200C03FA06F422FA0CF31C4320FAE5
:100DA0000CF701FA06F34FEA144E21FA0CF11F4337
:100DB0003B0CB1FBFEF91FFA84F80EFB191143EA54
:100DC000014109FB08FA8A4502FA06F200FA06F325
:100DD00008D9611809F1FF3048D28A4546D9A9F1EE
:100DE00002092144A1EB0A01BFB2B1FBFEF00EFBE8
:100DF000101147EA014700FB08F8B84507D9E71981
:100E000000F1FF312ED2B8452CD90238274440EAF0
:100E10000940A7EB0807A0FB02894F45C646494693
:100E20001AD317D05DB1B3EB0E0267EB010707FAD7
:100E30000CFCF2404CEA0202F740C5E9002700260C
:100E40003146BDE8F0872E4628460BE70646E9E620
:100E50001846FDE64345E5D2B8EB020E69EB040106
:100E60000138DFE70846D2E760468DE78146B9E7FB
:100E7000664675E730464AE7ACF1020C394413E7A1
:100E800002383C4424E700BF704700BF00230146FE
:100E90001A46184600F006BC014B1868704700BFA0
:100EA0000000002438B50A4C0A4D641BA4100AD077
:100EB00004F18043013B05EB8305013C55F80439FF
:100EC0009847002CF9D1BDE838400BF043BF00BF74
:100ED00060D700085CD7000870B50D4E0D4D761B2D
:100EE000B61006D00024013455F8043B9847A642BA
:100EF000F9D1094E094D761B0BF026FFB61006D02E
:100F00000024013455F8043B9847A642F9D170BD3E
:100F100054D7000854D700085CD7000854D70008FD
:100F2000024B0146186800F00BB800BF0000002417
:100F3000024B0146186800F039BC00BF00000024D5
:100F40002DE9F04F01F10B05162D83B0064623D88D
:100F5000102900F2B98000F08FFB10251823022021
:100F6000CD4F3B44A3F108025C68944200F0B98085
:100F7000636823F003032344D4E902515A68E9600B
:100F800042F0010230468D605A6000F077FB083471
:100F9000204603B0BDE8F08F35F0070500F19480DE
:100FA000A94200F2918000F067FBB5F5FC7FC0F02C
:100FB0009D816B0A00F08F80042B00F27381AB09D6
:100FC00003F1390003F1380CC300B34F3B44A3F1E4
:100FD00008015C68A14206D10CE0002A80F22B8156
:100FE000E468A14206D0636823F003035A1B0F2A6A
:100FF000F3DD60463C69DFF8A4C264457CD06368D9
:1010000023F003035A1B0F2A00F37E81002AC7E94D
:1010100004CC80F26F81B3F5007F80F01A81DB0889
:10102000591C7A6857F83180C4F808804FF0010ED7
:101030009B100EFA03F307EBC10E1343AEF1080247
:10104000E2607B6047F83140C8F80C408210012410
:1010500094409C4256D81C4206D120F00300640004
:101060001C4200F10400FAD007EBC009CE468046CE
:10107000DEF80C309E4507D120E1002A80F227815E
:10108000DB689E4500F01A81596821F003014A1B74
:101090000F2AF2DDD3E9028E5C1945F001055D608F
:1010A00042F00105C8F80CE03046CEF80880C7E9E8
:1010B0000444C4E902CC65605A50009300F0DEFAA3
:1010C000009B03F1080402E00C2333600024204657
:1010D00003B0BDE8F08F4FF4007340204FF03F0C99
:1010E00073E7DC68A34208BF02307FF441AF3C697C
:1010F000DFF8A8C1644582D17B6882100124944046
:101100009C42A8D9BC68636823F00308A84503D3B0
:10111000A8EB05030F2B7EDCDFF88491D7F80824B9
:10112000D9F80030013204EB080A2B4400F0378173
:1011300003F580530F3323F47F6B2BF00F0B5946CD
:10114000304600F09DFA411C024600F0F7808245CF
:1011500000F2F280D9F804105944C9F804100B4683
:1011600000F05381D7F8081401311BBFA2EB0A0A23
:101170005344C7F80824C9F8043012F0070300F0FC
:101180001A81C3F108010A44C3F580519344083120
:10119000A1EB0B01C1F30B0A5146304601930092BB
:1011A00000F06EFA421CDDE9002300F05381831A3F
:1011B00003EB0A0BD9F80410BA604BF00103514459
:1011C000BC425360C9F8041000F02B81B8F10F0F36
:1011D00040F229816368A8F10C0020F0070003F0B9
:1011E000010304EB000C03434FF0050E0F2863606E
:1011F000CCE901EE00F2358153681446D9F82C2071
:101200008A42D9F8302038BFC9F82C108A4238BF3A
:10121000C9F8301094E0621943F0010345F001056C
:1012200065603046BA60536000F028FA0834204602
:1012300003B0BDE8F08F2344E1685A68A56842F026
:101240000102E96030468D605A6000F017FA0834F8
:101250003DE75A0A042A69D9142A00F2BE8002F135
:101260005C01C9005B3207EB010E7958AEF1080E44
:101270008E4500F097804A6822F003029A4202D914
:1012800089688E45F7D1D1F80CE07B68C4E9021E6D
:10129000CEF80840CC60D9E630040024380400249D
:1012A000240A0024142B59D9542B00F29E802B0BB6
:1012B00003F16F0003F16E0CC30086E608F101082C
:1012C00018F0030F0EF1080E7FF4D2AE51E019446E
:1012D0001C464A68DB6854F8085F42F001024A6025
:1012E0003046EB609D6000F0C9F9F0E6E80805F1D2
:1012F000080335E6234430465A6842F001025A603A
:10130000083400F0BBF9E2E6611945F0010E42F045
:101310000105C4F804E03046C7E90411C1E902CC74
:101320004D60E25000F0AAF90834D0E69A0902F1C3
:101330003901C900383296E7BC4260D0BC686368A6
:1013400023F0030BAB45ABEB050302D30F2B3FF7A9
:1013500062AF304600F092F90024B8E603F15C0079
:1013600003F15B0CC30030E659F808394B4540F0F7
:10137000968010F0030F00F1FF30F5D17B6823EA6F
:1013800004037B6064009C423FF6BCAE1CB9B9E626
:10139000640008F104081C42FAD0404664E603F1F8
:1013A000100BCCE67B6892104FF0010808FA02F2AD
:1013B00013437B606AE702EB0B014942C1F30B0A5E
:1013C000514630460193009200F05AF9431CDDE982
:1013D00000237FF4ECAE9A46ECE6542A26D81A0B8A
:1013E00002F16F01C9006E323DE7B3F5AA7F26D83E
:1013F000EB0B03F1780003F1770CC300E5E5D9F8B6
:1014000004305B44C9F80430ACE6CAF30B00002892
:101410007FF4A8AE08EB0B03BC6843F001036360E4
:10142000ECE61446EAE60123536092E7B2F5AA7FA0
:1014300021D8DA0B02F17801C900773213E740F2C4
:101440005452934221D8AB0C03F17D0003F17C0C84
:10145000C300BAE5083B9B44ABEB020B4FF0000A1C
:10146000A8E604F10801304600F0A0F9BC68D9F8FC
:1014700004106368C2E640F254518A420BD89A0CB9
:1014800002F17D01C9007C32EDE64FF47E737F20CE
:101490004FF07E0C99E54FF47E717E22E3E67B6887
:1014A00070E700BF844641EA000313F003036DD1E7
:1014B000403A41D351F8043B40F8043B51F8043B17
:1014C00040F8043B51F8043B40F8043B51F8043B1E
:1014D00040F8043B51F8043B40F8043B51F8043B0E
:1014E00040F8043B51F8043B40F8043B51F8043BFE
:1014F00040F8043B51F8043B40F8043B51F8043BEE
:1015000040F8043B51F8043B40F8043B51F8043BDD
:1015100040F8043B51F8043B40F8043B51F8043BCD
:1015200040F8043B51F8043B40F8043B51F8043BBD
:1015300040F8043B403ABDD2303211D351F8043B5D
:1015400040F8043B51F8043B40F8043B51F8043B9D
:1015500040F8043B51F8043B40F8043B103AEDD20C
:101560000C3205D351F8043B40F8043B043AF9D25D
:10157000043208D0D2071CBF11F8013B00F8013B30
:1015800001D30B8803806046704700BF082A13D33D
:101590008B078DD010F003038AD0C3F10403D21A55
:1015A000DB071CBF11F8013B00F8013B80D331F889
:1015B000023B20F8023B7BE7043AD9D3013A11F809
:1015C000013B00F8013BF9D20B7803704B78437074
:1015D0008B78837060467047F0B4860746D0541EFF
:1015E000002A3CD0CAB2034602E014F1FF3436D3DD
:1015F00003F8012B9D07F8D1032C29D9CDB245EA78
:1016000005250F2C45EA054533D9A4F11006360906
:1016100003F1200707EB061703F1100242E9045516
:1016200042E902551032BA42F8D1721C14F00C0F84
:1016300003EB021204F00F0613D0331F23F0030351
:101640000433134442F8045B9342FBD106F00304D5
:101650002CB1C9B21C4403F8011B9C42FBD1F0BC65
:10166000704734461346002CF3D1F8E7144603467E
:10167000C2E71A462646E0E7704700BF704700BF42
:1016800038B5074C002305460846236001F004FEE8
:10169000431C00D038BD2368002BFBD02B6038BD25
:1016A00050900024F0B4184C2568D5F8484114B384
:1016B00065681F2D24DC38B9AB1C0135656044F822
:1016C00023100020F0BC704704EB85060127C6F804
:1016D000882007FA05F2D4F88871022847EA020741
:1016E000C4F88871C6F80831E6D1D4F88C311A43B1
:1016F000C4F88C21E0E705F5A674C5F84841D7E7A2
:101700004FF0FF30DEE700BF2CCE0008F8B5244FC5
:101710000C460646FFF7B0FFBB685D68C4F57E6106
:101720000F3125F00305294421F47F6121F00F01D9
:10173000A1F58054B4F5805F07DB00213046FFF748
:101740009FFFBB682B44984204D03046FFF796FFBA
:101750000020F8BD61423046FFF792FF01300DD006
:10176000104BBA6819682D1B45F001053046091B5E
:1017700055601960FFF782FF0120F8BD0021304657
:10178000FFF77EFFBA68831A0F2BDEDD064C054992
:10179000246843F00103001B53600860D5E700BFD5
:1017A00030040024280A00243808002400295ED0D0
:1017B000F8B50F460646FFF75FFF57F804CC754DA6
:1017C0002CF00103A7F10800C218A96854689142DF
:1017D00024F0030400F084801CF0010F546002EB3D
:1017E000040133D157F808EC4968A0EB0E0005F16D
:1017F000080C87686745734401F0010160D0D0F898
:101800000CE0C7F80CE0CEF80870002900F08D80DD
:1018100043F0010141601360B3F5007F30D2DB0873
:10182000591C6C689A1001239340234305EBC102B5
:1018300055F831406B60083AC0E9024245F8310082
:10184000E0603046BDE8F840FFF718BF4968C907B7
:101850000ED4234405F1080C9168614543F001045E
:101860006BD0D268CA6091604460C350D4E77047BF
:1018700043F00101B3F5007F47F8041C1360CED399
:101880005A0A042A46D89A0902F13907FF0002F1E0
:101890003801EC19EA59083C944255D0516821F0BE
:1018A0000301994202D992689442F7D1D468C0E901
:1018B0000224A060D0603046BDE8F840FFF7DEBEED
:1018C000002962D1D2E90221234443F00104D1600E
:1018D0008A604460C3503046BDE8F840FFF7CEBE92
:1018E0001CF0010F234407D157F8082C801A134429
:1018F000D0E90212CA609160274A126843F00101E0
:101900009A424160A8609CD8244B30461968FFF782
:10191000FDFE96E7142A0AD9542A1DD81A0B02F1A3
:101920006F07FF0002F16E01B3E7234494E702F171
:101930005C07FF0002F15B01ABE7C5E90400C0E909
:1019400002CC4460C3507CE76B688910012707FA1A
:1019500001F119436960AAE7B2F5AA7F06D8DA0B4C
:1019600002F17807FF0002F1770192E740F254514B
:101970008A4206D89A0C02F17D07FF0002F17C0131
:1019800087E74FF47E777E2183E743F001014160D2
:10199000136056E7300400243C080024240A002485
:1019A00038B52DED028B55EC104B00F08FF8184B2D
:1019B000B0EE408AF0EE608A93F9003001330DD02A
:1019C00022462B462046294600F06EFC30B92046C0
:1019D00029460022002300F03FFC30B9B0EE480A4F
:1019E000F0EE680ABDEC028B38BDFFF755FA002215
:1019F00000232121016010461946FEF793FF41ECB8
:101A0000180BB0EE480AF0EE680ABDEC028B38BD48
:101A10004008002408B52DED028BB0EE408A00F09E
:101A200021F9134B93F900300133F0EE408A0FD0C7
:101A3000B4EE488AF1EE10FA0AD6B0EE480A00F089
:101A40009DFBF7EE007AB4EEE70AF1EE10FA04DC43
:101A5000B0EE680ABDEC028B08BDFFF71DFABDECC5
:101A6000028B212303600348BDE8084000F08EBBD1
:101A700040080024D4D6000800F0F0B908B52DEDD8
:101A8000028BB0EE408A00F0A7FA0E4B93F90030BB
:101A900001330BD0B4EE488AF1EE10FA06D6DFED32
:101AA0000A8AB4EEE88AF1EE10FA02D4BDEC028B99
:101AB00008BDFFF7F1F988EEA80ABDEC028B2123DF
:101AC000036008BD40080024000000002DE9F0413B
:101AD000634955EC104BA94300F09F80002D2B4625
:101AE00010EE102A52DD5FEA255E00F0B180C3F3EC
:101AF0001303AEF2FF3E43F48013D10F1EF0010F2B
:101B000001EB43034FEA420403D0E40F04EB430329
:101B100094004FF0000C4FEA6E0E664616254FF407
:101B20000012B118994202DC5B1A8E1894445B00D3
:101B3000013D03EBD4734FEA52024FEA4404F0D163
:101B40002F4620204FF0004209E041D0E10F01383C
:101B50004FEA520201EB43034FEA440441D0B3423F
:101B600002EB0501F1DD002901EB020509DBB046BE
:101B70009B1BA14288BF03F1FF33641A17444646FA
:101B8000E4E7002DF3DB06F10108F1E725F0004161
:101B9000214339D0002D50D1D40A153B520521469E
:101BA000002CF9D0E50256D4002000E02846490078
:101BB000CC0200F10105F9D50C461146AA40C5F149
:101BC000200521FA05F5A3EB000E45EA04038EE794
:101BD000A142BBD8002901EB0205D2DB98460023C5
:101BE000CBE7234312D178084FEA6C0101F17F5112
:101BF0001CF0010F01F5001118BF40F0004001EB8F
:101C00000E53024643EC102BBDE8F0817B1C16BF3F
:101C1000781C0CF1010C4008E6E710EE102A2B4668
:101C200010EE100A2946FEF753FD22462B46FEF71A
:101C300099FB41EC100BBDE8F08120462946FEF7E8
:101C40008FFB02460B46FEF76DFE41EC100BDBE707
:101C500029467346A8E7114620254FF0FF30B0E72C
:101C60000000F07F38B510EE105A25F00044B4F1B2
:101C70007E5F2DED048B00F0828079DCB4F17C5F17
:101C80000EDAB4F1485F80F29680DFED647A70EE90
:101C9000277AB7EE007AF4EEC77AF1EE10FA64DC38
:101CA00000F06CFAF7EE007A37EEC00AB6EE008A62
:101CB00020EE088A9FED5A3A9FED5A4ADFED5A3AD4
:101CC000DFED5A4A9FED5A5ADFED5A5A9FED5A6A94
:101CD0009FED5A7ADFED5A6ADFED5A8AA8EE034A81
:101CE000E8EE234AA4EE085AE4EE885AA5EE086A04
:101CF000A5EE887AE6EE086AE7EE087AE6EE888ACC
:101D0000B0EE480AB0EE679A00F066F94E4B9C427E
:101D100068EE888A40DC10EE103A23F47F6323F0EB
:101D20000F0307EE903AB1EE676AA6EE278A70EECF
:101D3000277AC8EE895A88EE275A9FED447ADFED5C
:101D4000447AF0EE006AA5EE667A30EE000AB0EE54
:101D5000675AA6EE265A90EE257A37EE450A37EEF8
:101D6000C00A002DD8BFB1EE400ABDEC048B38BDCF
:101D7000BDEC048B70EE407A87EEA70A38BDDFED2C
:101D8000337A9FED347A60EE277ABDEC048BE0EE77
:101D9000077AB0EE670A38BDC8EE896A9FED2E7AE1
:101DA000DFED2C7AA0EE260AF0EE006AA0EE267A8D
:101DB00037EEC70AD5E760EE007ADFED192ADFEDCE
:101DC000193ADFED1B4A9FED183A9FED184ADFEDF7
:101DD0001A6A9FED185ADFED1A5A9FED186A9FEDA7
:101DE000197AE7EEA23ABDEC048BE3EEA74AA7EE20
:101DF000834AE4EEA76AA4EE275AE6EEA75AA5EEB8
:101E0000276AA5EEA77AF7EE006AE6EE276A67EE84
:101E1000277A87EEA67AA0EE070A38BDCAF2497182
:101E200008EF1138047F4F3A2EC69D3D613330BF15
:101E3000461124BD2D570140A80A4E3E39D119C084
:101E400090B0A6BEABAA2A3E9999793F2EBD3BB36E
:101E5000DB0F493FDB0FC93F2EBD3B3310B582B0CE
:101E6000CDED010A019B23F00042B2F1FF4FF0EEED
:101E7000407A19DC10EE100A20F00041B1F1FF4F5A
:101E800012DCB3F17E5F51D09C1704F0020444EAE7
:101E9000D07479B9022C36D09FED440A032C18BFB8
:101EA000B0EE670A02B010BD9DED017A37EE270A49
:101EB00002B010BDF2B1B2F1FF4F27D0B1F1FF4F28
:101EC00052D08A1AD2153C2A35DC002B43DA3C3238
:101ED00041DA9FED370A012C58D0022C4DD0002C4E
:101EE000E6D0DFED347A9FED347A70EE277A37EE64
:101EF000C70ADDE79FED310ADFED317A0028B8BF70
:101F0000B0EE670AD4E79FED2C0AD1E7B1F1FF4F9D
:101F100014D0022CF7D0032C3FD0DFED2A7A9FEDAE
:101F2000240A012C08BFB0EE670AC1E702B0BDE881
:101F3000104000F055B89FED210ACCE7022C32D0BA
:101F4000032C2DD0DFED207A9FED200A012C08BF55
:101F5000B0EE670AACE79DED010A87EE800A00F05B
:101F60000DF900F03DF8B6E7DFED147A9FED140AA5
:101F70000028A8BFB0EE670A9AE7DFED0E7A9FED62
:101F80000E7A70EE277A37EE670A91E710EE103A74
:101F900003F1004300EE103A8AE79FED040A87E759
:101FA0009FED0B0A84E79FED0B0A81E7DB0F49C029
:101FB000000000002EBDBB33DB0F4940DB0FC93FE3
:101FC000DB0FC9BF00000080DB0F49BFDB0F493FBB
:101FD000E4CB16C0E4CB1640B1EEC00A704700BF98
:101FE00038B510EE105A25F00044B4F1A14FF0EED0
:101FF000407A0BDBB4F1FF4F56DCDFED4E7A9FEDFC
:102000004E0A002DC8BFB0EE670A38BD4B4B9C424C
:102010005CDCB4F1445F4ADB4FF0FF3267EEA76A45
:10202000DFED471ADFED472A9FED472A9FED473A3C
:10203000DFED473A9FED474ADFED474A9FED475AAC
:10204000DFED475A9FED470A9FED476A26EEA67AD5
:10205000531CE7EE212AA7EE023AE2EE873AA3EEFE
:10206000074AE3EE874AA4EE075AE4EE875AA5EE44
:10207000070AA5EE876A20EE070AA6EE260A20EEDA
:10208000270A20D0394B03EB8203D3ED046A93ED8A
:10209000007A30EE660A002D70EE677A37EE670A36
:1020A000B3DAB1EE400A38BD30EE000A38BD9FED1C
:1020B000307A30EE077AF7EE006AB4EEE67AF1EEA7
:1020C00010FAA9DD38BD37EEC00A38BD00F056F869
:1020D000284B9C420FDCA3F5D0039C4220DCF0EEA1
:1020E000007ABFEE007AA0EE277A002230EE270AAF
:1020F000C7EE007A92E7204B9C420BDCF7EE087AA1
:10210000B7EE007AA0EE277A022230EE670AC0EE20
:10211000077A83E7BFEE007AC7EE007A03227DE7F5
:10212000F7EE007A30EE677A30EE270A0122C7EE2A
:10213000007A73E7DB0FC93FDB0FC9BFFFFFDF3E4C
:10214000D769853C59DA4B3D21A215BD6BF16EBDB7
:10215000356B883D95879DBD6E2EBA3D388EE3BDAB
:102160002549123ECDCC4CBEABAAAA3E30CE0008CB
:10217000CAF24971FFFF973FFFFF1B4010EE103A74
:1021800023F0004300EE103A704700BF9FED010AB4
:10219000704700BF0000C07F4FF0FF3C06E000BF6B
:1021A0004FF0010C02E000BF4FF0010C4DF804CDE0
:1021B0004FEA410C7FEA6C5C4FEA430C18BF7FEAA0
:1021C0006C5C1BD001B050EA410C0CBF52EA430CCE
:1021D00091EA030F02BF90EA020F0020704710F14E
:1021E000000F91EA030F58BF994208BF90422CBFDD
:1021F000D8176FEAE37040F0010070474FEA410CD6
:102200007FEA6C5C02D150EA013C07D14FEA430CF3
:102210007FEA6C5CD6D152EA033CD3D05DF8040B64
:10222000704700BF8446104662468C461946634696
:1022300000E000BF01B5FFF7B7FF002848BF10F16D
:10224000000F01BD4DF808EDFFF7F4FF0CBF0120B2
:1022500000205DF808FB00BF4DF808EDFFF7EAFF2E
:1022600034BF012000205DF808FB00BF4DF808EDE9
:10227000FFF7E0FF94BF012000205DF808FB00BFDE
:102280004DF808EDFFF7CEFF94BF012000205DF868
:1022900008FB00BF4DF808EDFFF7C4FF34BF012075
:1022A00000205DF808FB00BF4FEA410C7FEA6C5C40
:1022B00002D150EA013C0AD14FEA430C7FEA6C5C40
:1022C00002D152EA033C02D14FF0000070474FF0B8
:1022D00001007047DFED227A20EE270AF5EE007A42
:1022E00030EE270AFDEEC07AB5EEC00AF1EE10FA24
:1022F0002FD4F8EEE77A30EE670ADFED1A7A20EE97
:10230000270AFCEEC07A17EE903A9BB2B3F5007F35
:1023100004D3DFED147A30EE670A002307EE903A1B
:10232000F8EE677A30EE670A0F4A02EB8301D1EDCF
:10233000006A013302EB830393ED007AF7EE007A33
:1023400077EEC07A67EEA67A20EE070A37EE800AAB
:10235000704717EE903A013B07EE903AC9E700BF8D
:1023600083F9223E0000004450CE0008DFED207AC1
:1023700020EE270AFDEEC07AB5EEC00AF1EE10FAA3
:102380002FD4F8EEE77A30EE670ADFED1A7A20EE06
:10239000270AFCEEC07A17EE903A9BB2B3F5007FA5
:1023A00004D3DFED147A30EE670A002307EE903A8B
:1023B000F8EE677A30EE670A0F4A02EB8301D1ED3F
:1023C000006A013302EB830393ED007AF7EE007AA3
:1023D00077EEC07A67EEA67A20EE070A37EE800A1B
:1023E000704717EE903A013B07EE903AC9E700BFFD
:1023F00083F9223E0000004450CE000870B40C4621
:10240000154643684A68696806682468A64214D17C
:102410002C68A64214D10488408800FB04F008E030
:10242000F3EC017AB2EC017A77EE877AE1EC017A8B
:1024300001380028F4D170BC70476FF00200FAE751
:102440006FF00200F7E701804280436070470000B0
:102450002DE9F04F4B68B0F800C0B0F80290CC45C1
:1024600040F06D8105460E4667460A8849888A42D3
:1024700040F06881944516D06FF0020067E10021BA
:1024800043F8041B013A002AF9D14FF07E5243F879
:10249000042B0CF1FF3C624603E0002143F8041BCF
:1024A000013A002AF9D1BCF1000F02D0A7EB0C02CF
:1024B000E9E76446E046DFEDA97A0DE10133BB426E
:1024C00012D203FB01420AEB8202D2ED007AF0EE57
:1024D000E76AB0EEC67AF4EEC76AF1EE10FAEDDD07
:1024E0009846B0EE676AE9E7B5EE406AF1EE10FA99
:1024F00014BF01230023A0450CBF002303F00103F8
:10250000EBB9E046B5EE406AF1EE10FA0CBF0123DC
:102510000023B8F1010F0CBF002303F00103002BCF
:1025200040F01381B7EE007AC7EE067A6B686A88CE
:10253000101B02FB044203EB8203002134E00B1B5F
:1025400008FB01410AEB8101002208E0D0F800A05D
:10255000D1F800B040F804BB41F804AB01329A4214
:10256000F4DB7368718804FB01F203EB820208FB61
:1025700001F803EB88030020884209DAD2F80080D2
:10258000D3F800A042F804AB43F8048B0130F3E722
:102590004FF00108B6E71A46B2EC017A27EE277A27
:1025A00083ED007A013113468142F4DB7368708851
:1025B00004FB00F203EB82030021814209DA1A4690
:1025C000B2EC017A27EE277A83ED007A01311346C7
:1025D000F3E7E3462CE0B3EC017A67EE276A0A469C
:1025E000B2EC017A37EE667A81ED007A013011465D
:1025F0005045F0DB7368B6F802A00BFB0AF103EB61
:10260000810104FB0AF203EB8203002050450DDA3E
:10261000B3EC017A67EE276A0A46B2EC017A37EE2C
:10262000667A81ED007A01301146EFE70BF1010B7C
:10263000A3450FD26B686A880BFB024103EB810153
:10264000D1ED007AA2EB040A02FB044203EB820301
:102650000020CDE7F3461DE07368B6F802A00BFB3F
:102660000AF103EB810104FB0AF203EB8203002071
:102670000CE0B3EC017A67EE276A0A46B2EC017A05
:1026800037EE667A81ED007A013011465045F0DB75
:102690000BF1010BBB451ED26B686A880BFB024134
:1026A00003EB8101D1ED007AA2EB040A02FB0442A4
:1026B00003EB820300205045CEDAB3EC017A67EEDB
:1026C000276A0A46B2EC017A37EE667A81ED007A23
:1026D00001301146EFE774464C450DD2D5F804A001
:1026E000698801FB04400AEB800090ED006A04F168
:1026F000010E7346A046E2E6F5EE407AF1EE10FADE
:102700000CBF01230023B8F1010F0CBF002303F01D
:102710000103F3B1696809FB07F363450BD901EBCA
:102720008C02D2ED007AF5EE407AF1EE10FA02D189
:102730000CF1010CEFE763450DD0002007E06FF0CE
:10274000020004E06FF0020001E06FF00400BDE859
:10275000F08F0020FBE76FF00400F8E700000000B6
:102760002DE9F04F83B08A4613464768D1F804E05C
:10277000526801920288B1F8028046880988B14205
:1027800035D193461988914234D15B88434534D181
:102790004FF000091FE0A4EC017A013D421B0EEB53
:1027A000820295B1B44631463B469FED157A002929
:1027B000F1D0F3EC017AD2ED006A67EEA67A37EE3B
:1027C000277A02EB80020139F1E7C14407EB8C075D
:1027D000BBF1010B07D0019B03EB89044046DAF8FB
:1027E00004204546DEE7002003B0BDE8F08F6FF01F
:1027F0000200F9E76FF00200F6E76FF00200F3E77E
:102800000000000070B40C46154643684A686968C9
:1028100006682468A64214D12C68A64214D1048804
:10282000408800FB04F008E0F3EC017AB2EC017A96
:1028300077EEC77AE1EC017A01380028F4D170BC58
:1028400070476FF00200FAE76FF00200F7E7F0B4AC
:102850004368D1F804C0058847884A88AA4217D13E
:102860002C460A88BA4216D100260AE053F8040B17
:10287000086001EB8401013A002AF7D10136013DDD
:1028800003D00CEB86013A46F6E70020F0BC704717
:102890006FF00200FAE76FF00200F7E700B583B0CF
:1028A0000F4BD3F8D82042F00102C3F8D820D3F858
:1028B000D83003F001030193019B002206210B2075
:1028C00000F080FE0B2000F0AFFE002206210C205D
:1028D00000F078FE0C2000F0A7FE03B05DF804FBCA
:1028E0000044025838B51548154B03600023836037
:1028F000C3600374437483740421416101258561BD
:102900001324C4610522026241628562C4620263CB
:1029100043638263C2630164082242648364C264C5
:10292000036541658365C36502664366826601F09F
:1029300087FF00B938BD00F06EFAFBE75C0A00249F
:1029400000A0004010B51748174B036000238360B8
:10295000C36003744374837405224261012484615B
:102960000E21C161026242628462C162026340F26E
:10297000563141638263C263036404224264826409
:102980000821C164036542658365C36502664366C9
:102990000623836601F054FF00B910BD00F03BFA36
:1029A000FBE700BFFC0A002400A4004010B5174854
:1029B000174B036000238360C36003744374837404
:1029C00005224261012484610E21C16102624262DA
:1029D0008462C162026340F2AD6141638263C2639B
:1029E00002220264042242648364C2640365426575
:1029F0008365C365032101664366826601F020FF9B
:102A000000B910BD00F007FAFBE700BF9C0B0024E3
:102A100000D4004030B58DB000230793089309938C
:102A20000A930B930368584A934207D0574A93423C
:102A30003BD0574A93426FD00DB030BD554A136812
:102A400001331360012B22D0534BD3F8E02042F026
:102A50000802C3F8E020D3F8E03003F00803029343
:102A6000029B0323079302230893002409940A94EA
:102A700009230B9307A9494802F0ACFB2246062123
:102A8000132000F09FFD132000F0CEFDD4E7424B51
:102A9000D3F8EC2042F48072C3F8EC20D3F8EC3089
:102AA00003F480730193019BCEE73A4A1368013324
:102AB0001360012B22D0384BD3F8E02042F0020201
:102AC000C3F8E020D3F8E03003F002030493049B42
:102AD0006023079302230893002409940A9409238E
:102AE0000B9307A92E4802F075FB224605211420FE
:102AF00000F068FD142000F097FD9DE7264BD3F809
:102B0000EC2042F48072C3F8EC20D3F8EC3003F4EC
:102B100080730393039BCEE71E4A1368013313604F
:102B2000012B23D01C4BD3F8E02042F00802C3F85D
:102B3000E020D3F8E03003F008030693069B4FF43F
:102B40004053079302230893002409940A9405250F
:102B50000B9507A9114802F03DFB224629469F200C
:102B600000F030FD9F2000F05FFD65E70A4BD3F8D1
:102B7000EC2042F48072C3F8EC20D3F8EC3003F47C
:102B800080730593059BCDE700A0004000A40040A2
:102B900000D40040580A002400440258000C025897
:102BA0000004025808B5012005F012F9FBE708B54A
:102BB00006F0ACF8FCE708B506F07EFEFCE708B5C9
:102BC00006F090FBFCE708B506F082FFFCE708B5CD
:102BD00007F04AFBFCE7000070B59EB0274C19AD2A
:102BE00026460FCE0FC533682B60002119A805F0CB
:102BF000D5F8234B186014AD04F114060FCE0FC5A1
:102C000033682B60002114A805F0C8F81D4B18602C
:102C10000FAD04F128060FCE0FC533682B600021DD
:102C20000FA805F0BBF8184B18600AAD04F13C067C
:102C30000FCE0FC533682B6000210AA805F0AEF84F
:102C4000124B186005AD04F150060FCE0FC5336866
:102C50002B60002105A805F0A1F80D4B18606D460A
:102C600064340FCC0FC523682B600021684605F043
:102C700095F8084B18601EB070BD00BF60CD00080D
:102C8000500C0024440C0024400C00243C0C002474
:102C9000480C00244C0C00242DE9F0438DB0002496
:102CA0000794089409940A940B94524BD3F8E020AB
:102CB00042F00402C3F8E020D3F8E02002F004025E
:102CC0000192019AD3F8E02042F08002C3F8E0209C
:102CD000D3F8E02002F080020292029AD3F8E020BA
:102CE00042F00102C3F8E020D3F8E02002F0010234
:102CF0000392039AD3F8E02042F00202C3F8E020E6
:102D0000D3F8E02002F002020492049AD3F8E02003
:102D100042F01002C3F8E020D3F8E02002F01002E5
:102D20000592059AD3F8E02042F00802C3F8E020AB
:102D3000D3F8E03003F008030693069B2E4E22469C
:102D40004FF4C041304602F03CFB012209213046DD
:102D500002F037FBDFF8A89001220421484602F078
:102D600030FB264F01224FF40851384602F029FB70
:102D70004FF4C04307930125089509940A9407A9C5
:102D8000304602F027FA09230793089509944FF07B
:102D90000308CDF8288007A9304602F01BFA0795F2
:102DA0000894099507A9484602F014FA04230793EA
:102DB00008950995CDF8288007A9484602F00AFA37
:102DC0004FF40853079308950995CDF8288007A973
:102DD000384602F0FFF94FF4A05307934FF48813DD
:102DE0000893099407A9384602F0F4F90DB0BDE83C
:102DF000F08300BF00440258000802580010025837
:102E00000000025808B50368B3F1804F00D008BD38
:102E100000F0A0FBFBE772B6FEE7000000B59DB036
:102E20004C22002109A8FEF7D7FB2022002101A88F
:102E3000FEF7D2FB022002F0CBFA00230093204BD6
:102E40009A6922F440429A619B6903F440430093DB
:102E5000009B1B4B9B6913F4005FFAD0012209927F
:102E60004FF480330A93022312931393149328216F
:102E700015911692179318930C23199300231A9304
:102E80001B9309A802F0CEFAA8B93F2301930321AE
:102E90000291002303930823049340230593069390
:102EA0004FF480620792089301A802F0ABFE20B9AC
:102EB0001DB05DF804FBFFF7AEFFFFF7ACFF00BFEE
:102EC0000048025800B5AFB0902200210AA8FEF7D2
:102ED00083FB4FF400420023CDE900231823029323
:102EE000C8230393022304930593069300230793B7
:102EF0002022089209934FF000531B93684603F079
:102F000035F910B92FB05DF804FBFFF784FF00001E
:102F100008B500F0F1FAFFF781FFFFF7D3FFFFF7E5
:102F2000BBFEFFF7BBFC00F02DF8FFF7DBFCFFF763
:102F300009FD00F073FAFFF739FD4FF4F07008F067
:102F40002DFD00210D4809F09BFB0028F9D10C4C08
:102F500001224FF40051204602F033FA01224FF4CF
:102F60008041204602F02DFA08F004FE08F036FEFB
:102F7000FFF732FE04F00DFFFEE700BF440D002412
:102F80000008025808B51548154B03604FF480033C
:102F90004360002383600722C2604FF00072026129
:102FA0004FF0807242614FF0806282614FF0804248
:102FB000C261036243628362C36242638363C36329
:102FC000036443648364C36403654365836503F0FA
:102FD000B5FE00B908BDFFF71EFFFBE7440D002456
:102FE000003800402DE9F041B8B00446002133918B
:102FF0003491359136913791B82204A8FEF7ECFA56
:1030000022684A4B9A4202D038B0BDE8F0814FF4B2
:1030100080520023CDE9042300231B9304A803F06E
:10302000A5F8002879D1424BD3F8E82042F4804239
:10303000C3F8E820D3F8E82002F480420192019A14
:10304000D3F8E02042F00402C3F8E020D3F8E020F7
:1030500002F004020292029AD3F8E02042F0020247
:10306000C3F8E020D3F8E03003F002030393039B9E
:10307000062333934FF00208CDF8D0800025359514
:10308000032736970526379633A92A4802F0A2F877
:103090004FF400533393CDF8D0803595369737965B
:1030A00033A9254802F096F82448254B03602723CE
:1030B00043608560C5604FF480630361456185614D
:1030C000C5614FF440330362456200F0F5FB38BB45
:1030D0001A4BE3679C631B481B4B03602823436028
:1030E000402383600023C3604FF480620261436128
:1030F0008361C3614FF400320262436200F0DCFB83
:1031000088B9104BA3679C6300220521242000F09E
:1031100059FA242000F088FA76E7FFF77CFE82E770
:10312000FFF779FED4E7FFF776FEEAE700380040C4
:10313000004402580008025800040258540C0024AD
:1031400010000240CC0C00242800024000B583B0DF
:103150000A4BD3F8F42042F00202C3F8F420D3F86B
:10316000F43003F002030193019B00220F216FF062
:10317000010000F027FA03B05DF804FB0044025898
:103180000F2801D90120704710B58AB004460022EB
:1031900001461C2000F016FA1C2000F045FA1B4BDB
:1031A0001C601B4BD3F8E82042F00102C3F8E82072
:1031B000D3F8E83003F001030093009B01A902A8B3
:1031C00002F09EFE079BC3B902F088FE0346114839
:1031D000A0FB03239B0C013B0F484FF08042026091
:1031E00040F2E732C260436000230361836004F071
:1031F00027FC30B101200AB010BD02F06FFE430081
:10320000E5E7054804F06CFAF5E700BF5008002434
:103210000044025883DE1B43CC0D0024FEE7FEE78A
:10322000FEE7FEE7FEE7704708B5024800F040FE03
:1032300008BD00BF540C002408B5024800F038FE59
:1032400008BD00BFCC0C002408B5024801F032FED6
:1032500008BD00BF5C0A002408B5024801F02AFE40
:1032600008BD00BFFC0A002408B5024804F08CFA2F
:1032700008BD00BFCC0D002408B5024803F0C4FF10
:1032800008BD00BF440D002408B5024801F012FE3D
:1032900008BD00BF9C0B002410B503460C4A0D4925
:1032A0000D48006840B10C4800680344521A93422C
:1032B00006D8094A136010BD0748084C0460F2E7BD
:1032C000FDF7EAFD0C2303604FF0FF30F3E700BF8A
:1032D0000000052400080000180E00245890002467
:1032E000224AD2F8883043F47003C2F88830204B69
:1032F0001B6803F00F03062B06D81D4A136823F042
:103300000F0343F0070313601A4B1A6842F00102DF
:103310001A6000221A611968174A0A401A60144B91
:103320001B6813F0080F06D0114A136823F00F032F
:1033300043F0070313600F4B00229A61DA611A62AF
:103340000E4999620E49D9620E4919635A6399630D
:10335000DA6319645A64196821F4802119601A66C5
:10336000094B43F2D2021A60704700BF00ED00E043
:1033700000200052004402587FEDF6EA00020202EB
:103380000000FF01800201010040005202680A4B68
:103390009A4200D0704782B0084BD3F8E82042F040
:1033A0000202C3F8E820D3F8E83003F002030193E7
:1033B000019B02B0704700BF000400400044025867
:1033C00000B587B000230193029303930493059300
:1033D00002680F4B9A4202D007B05DF804FB0D4B18
:1033E000D3F8E02042F00202C3F8E020D3F8E03046
:1033F00003F002030093009B022301930293002237
:1034000003920492059301A9034801F0E3FEE3E768
:1034100000040040004402580004025800B58BB07C
:103420000023079308930993009301930293039356
:103430000493059306931948194A026017224260C3
:10344000836042F20F72C26003618023836104F0E3
:1034500027FBC8B900230793099307A90F4804F075
:1034600037FCA0B9602300930023019302930493D7
:103470000C226946094804F08DFB58B90748FFF74C
:103480009FFF0BB05DF804FBFFF7C5FCE2E7FFF719
:10349000C2FCE7E7FFF7BFFCF0E700BF1C0E00240B
:1034A00000040040DFF834D0FFF71AFF0C480D4944
:1034B0000D4A002302E0D458C4500433C4188C428F
:1034C000F9D30A4A0A4C002301E013600432A242F5
:1034D000FBD3FDF701FDFFF71BFD7047000005243E
:1034E00000000024040A002460D70008080A002411
:1034F00054900024FEE7000010B5032000F050F8BF
:1035000002F086FA0F498B69C3F303230E4AD35C9A
:1035100003F01F03D8408B6903F00F03D35C03F063
:103520001F0320FA03F3094A1360094B18600F20A8
:10353000FFF726FE10B10124204610BD0446FFF718
:1035400005FEF9E700440258A8D600084808002400
:1035500044080024034B1B78034A11680B44136092
:10356000704700BF4C080024680E0024014B186807
:10357000704700BF680E002438B50446FFF7F6FF19
:103580000546B4F1FF3F02D0044B1B781C44FFF703
:10359000EDFF401BA042FAD338BD00BF4C08002409
:1035A0000649CB6823F4E0631B041B0C000200F403
:1035B000E0600343024A1A43CA60704700ED00E02E
:1035C0000000FA0530B4154BDB68C3F30223C3F1E6
:1035D0000704042C28BF04241D1D062D14D9033B09
:1035E0004FF0FF3505FA04F421EA0401994005FA89
:1035F00003F322EA03031943002807DB0901C9B2D8
:10360000074B195430BC70470023E9E700F00F0066
:103610000901C9B2034B1954F4E700BF00ED00E003
:1036200000E400E014ED00E0002807DB00F01F02DA
:10363000400901239340024A42F82030704700BFFE
:1036400000E100E003682749274A934218BF8B42F4
:103650002FD0183293422CD01832934229D01832EE
:10366000934226D01832934223D01832934220D06E
:10367000183293421DD002F55672934219D0183277
:10368000934216D01832934213D01832934210D07E
:10369000183293420DD0183293420AD01832934216
:1036A00007D01832934204D023F0FF038365806D66
:1036B000704710B4D9B210390C4AA2FB0142C2F3D0
:1036C00002120B4CA25CC2655F2907D9094A1A4055
:1036D00004328265806D5DF8044B7047054A1A40DC
:1036E0008265F7E71000024028000240ABAAAAAAB0
:1036F000B8D6000800FCFFFF83699BB9836A012BE1
:103700000AD0022B02D00BB100207047C36A13F01D
:10371000807F2AD100207047C36AB3F1C07F26D0D2
:1037200000207047B3F5005F0AD0836A022B26D9C8
:10373000032B26D1C36A13F0807F24D10020704769
:10374000836A032B03D8DFE803F01404140A002073
:103750007047C36A13F0807F0DD100207047C36AA1
:10376000B3F1C07F09D000207047012070470120CD
:1037700070470120704701207047012070470120E9
:1037800070470020704701207047000003682249FD
:10379000224A934218BF8B4228D01432934225D03C
:1037A0001432934222D0143293421FD014329342E7
:1037B0001CD01432934219D01432934216D0DAB28C
:1037C000103A1749A1FB0212120916491944A829F7
:1037D0001FD9154B13449B000366144B436602F03C
:1037E0001F02012303FA02F282667047DBB2083B34
:1037F0000F4AA2FB03230F4A02EB13129200026648
:103800000D4A4266C3F30413012202FA03F38366EE
:1038100070470832DDE700BF085402581C540258B4
:10382000ABAAAAAAF0FBFDBF0082001080080240EC
:10383000CDCCCCCC009600168058025801794A1E97
:10384000072A2CD830B40368154D164CA34218BF74
:10385000AB4218D01434A34215D01434A34212D072
:103860001434A3420FD01434A3420CD01434A34216
:1038700009D01434A34206D00B4B0B449B00C36603
:103880000A4B036705E00A4B0B449B00C366094BD8
:103890000367012303FA02F2426730BC70477047A6
:1038A000085402581C5402583F820010400902403C
:1038B0003F9600164059025870B50446FFF756FE71
:1038C000002C00F0B58105462368AE49AE4A93420C
:1038D00018BF8B420CBF0122002250D030318B42E6
:1038E0004DD018318B424AD018318B4247D0183115
:1038F0008B4244D018318B4241D018318B423ED09C
:1039000001F556718B423AD018318B4237D01831BD
:103910008B4234D018318B4231D018318B422ED0AB
:1039200018318B422BD018318B4228D018318B4262
:1039300025D09649964A934218BF8B4200F03081B9
:10394000944A934200F02C811432934200F0288173
:103950001432934200F024811432934200F020810B
:103960001432934200F01C811432934200F018810B
:1039700040236365032384F8353001204AE00221A7
:1039800084F83510002184F834107ABB824A9342BF
:103990002CD01832934229D01832934226D01832B4
:1039A000934223D01832934220D0183293421DD034
:1039B00002F55672934219D01832934216D018323B
:1039C000934213D01832934210D0183293420DD044
:1039D000183293420AD01832934207D018329342D9
:1039E00004D01A6822F001021A6003E01A6822F07B
:1039F00001021A6023681A6812F0010F0BD0FFF75A
:103A0000B5FD431B052BF5D920236365032384F8FB
:103A10003530012070BD1A6860481040A168E26826
:103A20000A4321690A4361690A43A1690A43E169BA
:103A30000A43216A0A430243616A042900F096801E
:103A40006168A1F12905A1F13F00032888BF052D78
:103A50000AD9A1F14700012806D9A1F14F00032896
:103A600002D97439032901D842F480121A602668F9
:103A7000756925F00705636A1D43042B08D1A36A05
:103A80001D43E36A23B12046FFF736FE002872D1BA
:103A900075612046FFF7D6FDE36D03F01F023F235B
:103AA0009340836023683749374A934218BF8B425B
:103AB00042D0183293423FD0183293423CD0183251
:103AC000934239D01832934236D01832934233D0D1
:103AD0001832934230D002F5567293422CD01832ED
:103AE000934229D01832934226D01832934223D0E1
:103AF0001832934220D0183293421DD0183293428C
:103B00001AD01832934217D0204A934214D014325C
:103B1000934211D0143293420ED0143293420BD000
:103B20001432934208D01432934205D01432934297
:103B300002D01432934213D12046FFF727FEA36828
:103B4000802B68D0236E22791A60636EA26E5A6051
:103B50006368013B072B61D90023E3662367636732
:103B600000206065012384F8353053E7E16A206B5B
:103B700001430A4364E740236365012084F835006C
:103B800048E700BF100002402800024008540258D5
:103B90001C54025830540258400002403F8010FE2E
:103BA000022284F83520002284F834201A68214942
:103BB0001140A268402A2CD0802A27D00022E06839
:103BC00042EAD002206942EAD002606942EAD002A9
:103BD000A06942EAD002E06942EAD002206A42EAE1
:103BE00010120A431A602268134B1344134AA2FBB3
:103BF00003231B099B00E3652046FFF723FDE26DCD
:103C000002F01F0101228A4042604BE74FF48042DC
:103C1000D5E71022D3E70023636093E72046FFF740
:103C20000DFEE36E00221A60236F626F5A6097E701
:103C30000120EFE60F00FEFFF8ABFDA7CDCCCCCC0A
:103C4000002800F0298108B5024690F83530DBB233
:103C5000022B03D080234365012008BD03689048F0
:103C600090498B4218BF83420CBF0121002166D0CE
:103C70003030834263D01830834260D018308342A2
:103C80005DD0183083425AD01830834257D0183054
:103C9000834254D000F55670834250D0183083428E
:103CA0004DD0183083424AD01830834247D0183064
:103CB000834244D01830834241D0183083423ED0F2
:103CC000183083423BD0196821F00E011960136847
:103CD000A0F5956073498B4218BF83426AD0724940
:103CE0008B4267D018318B4264D018318B4261D03F
:103CF00018318B425ED018318B425BD018318B4229
:103D000058D001F556718B4254D018318B4251D0A6
:103D100018318B424ED018318B424BD018318B4228
:103D200048D018318B4245D018318B4242D01831DF
:103D30008B423FD0196821F0010119603EE0042058
:103D400082F8350081BB584A93422DD018329342F5
:103D50002AD01832934227D01832934224D01832F6
:103D6000934221D0183293421ED002F556729342EC
:103D70001AD01832934217D01832934214D0183206
:103D8000934211D0183293420ED0183293420BD086
:103D90001832934208D01832934205D01A6822F0A4
:103DA00001021A60002058E71A6822F001021A6026
:103DB000002052E7196821F00101196013683848A2
:103DC00038498B4218BF834242D018318B423FD0D2
:103DD00018318B423CD018318B4239D018318B428C
:103DE00036D018318B4233D018318B4230D001F5A8
:103DF00056718B422CD018318B4229D018318B420E
:103E000026D018318B4223D018318B4220D0183164
:103E10008B421DD018318B421AD018318B4217D0EB
:103E200022498B4214D014318B4211D014318B4271
:103E30000ED014318B420BD014318B4208D0143188
:103E40008B4205D014318B4202D014318B4217D1F2
:103E5000116E0B6823F480730B60906DD36D03F0CB
:103E60001F0101238B404360536E916E5960D36EE6
:103E700033B1196821F480711960136F516F596063
:103E8000012382F83530002382F83430136D2BB1D2
:103E9000104698470020E0E6012070470020DCE64D
:103EA000100002402800024040000240085402581E
:103EB000F0B583B0044600230193A24B1D68A24BCA
:103EC000A3FB0535AD0A876D3E68D7F800C00368CF
:103ED0009E499F48834218BF8B420CBF012000209F
:103EE00061D09C4A93425ED0183293425BD0183224
:103EF000934258D01832934255D01832934252D040
:103F0000183293424FD002F5567293424BD018327A
:103F1000934248D01832934245D01832934242D04F
:103F2000183293423FD0183293423CD01832934219
:103F300039D01832934236D08749884A934218BF05
:103F40008B4212D0864A93420FD0143293420CD047
:103F50001432934209D01432934206D01432934261
:103F600003D01432934240F062821A68E16D01F08E
:103F70001F010420884010EA0C0F00F0A88212F004
:103F8000040F00F0A482786012F4004F00F05B820E
:103F900012F4803F40F05182A36C002B00F0478266
:103FA0002046984743E2E26D02F01F0108228A4052
:103FB000324241D070BB674A93422BD018329342B1
:103FC00028D01832934225D01832934222D018328A
:103FD00093421FD0183293421CD002F5567293427E
:103FE00018D01832934215D01832934212D018329A
:103FF00093420FD0183293420CD01832934209D01A
:104000001832934206D01832934203D01A68C2F392
:10401000C00202E01A68C2F380026AB11A6822F094
:1040200004021A60E36D03F01F0208239340BB6093
:10403000636D43F001036365E26D02F01F0226FA2F
:1040400002F313F0010F37D02368404840498B42F8
:1040500018BF83422CD018318B4229D018318B42A3
:1040600026D018318B4223D018318B4220D0183102
:104070008B421DD018318B421AD001F556718B42FC
:1040800016D018318B4213D018318B4210D0183112
:104090008B420DD018318B420AD018318B4207D099
:1040A00018318B4204D018318B4201D01B6803E0D9
:1040B0005B6913F0800F3BD1E36D03F01F03042213
:1040C00002FA03F3334251D02268204820498A4241
:1040D00018BF824246D018318A4243D018318A42F2
:1040E00040D018318A423DD018318A423AD0183136
:1040F0008A4237D018318A4234D001F556718A424B
:1041000030D018318A422DD018318A422AD0183145
:104110008A4227D018318A4224D018318A4221D0CD
:1041200018318A421ED018318A421BD013681DE014
:10413000012303FA02F2BA60636D43F00203636580
:10414000BAE700BF44080024B5814E1B10000240AE
:104150002800024040000240085402581C540258F3
:1041600030540258126812F0020F3DD1E36D03F093
:104170001F03102202FA03F333425FD022689B48E8
:104180009B498A4218BF824234D018318A4231D0CA
:1041900018318A422ED018318A422BD018318A42E7
:1041A00028D018318A4225D018318A4222D001F510
:1041B00056718A421ED018318A421BD018318A4269
:1041C00018D018318A4215D018318A4212D01831CD
:1041D0008A420FD018318A420CD018318A4209D055
:1041E0001268C2F3800208E0BB60636D43F0040311
:1041F0006365BBE71268C2F3C002FAB1BB60236813
:104200001A6812F4802F0DD01B6813F4002F04D10C
:10421000236C9BB12046984710E0A36C73B12046F5
:1042200098470BE01A6812F4807F03D11A6822F0D5
:1042300008021A60236C0BB120469847E36D03F027
:104240001F03202202FA03F3334200F08E8022681B
:10425000664867498A4218BF82422ED018318A4286
:104260002BD018318A4228D018318A4225D01831F3
:104270008A4222D018318A421FD018318A421CD07B
:1042800001F556718A4218D018318A4215D018317A
:104290008A4212D018318A420FD018318A420CD08B
:1042A00018318A4209D018318A4206D018318A4220
:1042B00003D01268C2F3400202E01268C2F3001297
:1042C000002A52D0BB6094F83530DBB2042B0ED0FC
:1042D00023681A6812F4802F35D01B6813F4002F5E
:1042E0002CD1636C002B40D0204698473DE02268DB
:1042F000136823F0160313602268536923F08003C8
:104300005361236CB3B12268136823F00803136070
:10431000E36D03F01F023F239340BB60012384F849
:104320003530002384F83430236D002B7FD02046B5
:1043300098477CE0A36C002BE5D1E9E7E36BA3B1E0
:104340002046984711E01A6812F4807F09D11A6854
:1043500022F010021A60012384F83530002384F81B
:104360003430E36B0BB120469847636D002B5ED071
:10437000636D13F0010F56D0042384F835302368A1
:104380001A491B4A934218BF8B4233D018329342CA
:1043900030D0183293422DD0183293422AD018329E
:1043A000934227D01832934224D01832934221D01E
:1043B00002F5567293421DD0183293421AD0183229
:1043C000934217D01832934214D01832934211D02E
:1043D000183293420ED0183293420BD018329342C7
:1043E00008D01A6822F001021A6007E010000240AB
:1043F000280002401A6822F001021A60019B013372
:104400000193AB4204D823681B6813F0010FF5D168
:1044100023681B6813F0010F0BD0032384F8353099
:10442000002384F83430E36C0BB12046984703B086
:10443000F0BD012384F83530F2E7236C002BF6D071
:1044400020469847F3E712F0200F3AD123686449D9
:10445000644A934218BF8B422FD0183293422CD01B
:104460001832934229D01832934226D01832934200
:1044700023D01832934220D0183293421DD002F537
:104480005672934219D01832934216D01832934282
:1044900013D01832934210D0183293420DD01832F4
:1044A00093420AD01832934207D01832934204D074
:1044B0001A6822F004021A6003E01A6822F0080267
:1044C0001A60236C002BB2D020469847AFE7022039
:1044D000884010EA0C0F60D012F0020F5DD07860B7
:1044E00012F4004F0ED012F4803F05D1636C002B04
:1044F0009DD0204698479AE7E36B002B97D0204643
:10450000984794E712F0200F40D123683449354A88
:10451000934218BF8B422FD0183293422CD01832BE
:10452000934229D01832934226D01832934223D096
:104530001832934220D0183293421DD002F55672A1
:10454000934219D01832934216D01832934213D0A6
:104550001832934210D0183293420DD01832934241
:104560000AD01832934207D01832934204D01A6806
:1045700022F00A021A6003E01A6822F014021A609C
:10458000012384F83530002384F83430E36B002BAA
:104590003FF44DAF2046984749E7082000FA01F163
:1045A00011EA0C0F3FF443AF12F0080F3FF43FAF96
:1045B0001A6822F00E021A60E36D03F01F03012255
:1045C00002FA03F37B60626584F83520002384F8E7
:1045D0003430E36C002B3FF42AAF2046984726E79F
:1045E000100002402800024030B4446B0268D2F848
:1045F0008410704B194041EA8401C2F884100268AB
:10460000D2F8841021F47F01856B41EA0541C2F89C
:104610008410826B22440468D4F88810194041EA5F
:104620008201C4F888100468D4F8881021F4FE01CF
:10463000C56B41EA0541C4F88810C16B02EB410229
:104640000468D4F8A010194041EA8201C4F8A0100F
:104650000468D4F8A01021F4FE01056C41EA05417C
:10466000C4F8A010046C416C01FB04240268D2F869
:10467000B010194041EA8401C2F8B0100268D2F8C3
:10468000B01021F4FE01856C41EA0541C2F8B0107A
:10469000826CC16C01FB02440268D2F8AC10194074
:1046A00041EA8401C2F8AC10026D416D01FB024287
:1046B0000468D4F8F010194041EA8201C4F8F010FF
:1046C0000468D4F8F01021F47C11856D41EA0541AD
:1046D000C4F8F010816D02EB41020468D4F8C010F8
:1046E0000B4043EA8202C4F8C0200268D2F8C0300E
:1046F00023F47C13C16D43EA0143C2F8C030026861
:10470000D2F8C03023F07C53016E43EA0163C2F853
:10471000C030436B284A1A449200C266836B02EB96
:1047200083030367C16B03EBC1034367046C416CF4
:1047300001FB04F103EB81038367846CC16C01FB13
:1047400004F103EB8103C367046D416D01FB04F1C8
:1047500003EB8103C0F88030816D03EBC103C0F827
:104760008430C46D856E05FB04F403EB8403C0F84C
:104770008830016E01FB05F103EB8103C0F8903036
:104780000E498B4207D8D0F8903093420ED90023BF
:1047900042F8043BF7E7D0F89C3043F02003C0F820
:1047A0009C30032380F89830012000E0002030BCCA
:1047B000704700BF0300FFFF002B0010FCD3004038
:1047C000F0B44C68002C2FD10E698C6826430C681D
:1047D00046EA84460D6ACC6944EA05648D692C4337
:1047E0004D692C43CD682C43D0F88470806E03FB58
:1047F00000F307EB830547F823606C600835002061
:10480000CB890E4CE35C834216D91418E678A37862
:104810001B0443EA0663647843EA0423145C2343DD
:1048200045F8043B0430EBE70C698E6826430C68BE
:10483000264346F08046CDE7F0BC7047C0D600085E
:1048400030B595B004464C22A04901A8FCF72AFED9
:10485000002C00F0388123689D4A934220D094F8C0
:1048600098300BB32268936923F010039361FEF72D
:104870007DFE054623689A6912F0080F1AD0FEF7EC
:1048800075FE431B0A2BF5D9D4F89C3043F0010385
:10489000C4F89C30032384F89830012015B030BD53
:1048A00003F580736360DAE784F899302046FEF7F9
:1048B000B1F8D7E79A6942F001029A61FEF756FE15
:1048C000054623689A6912F0010F0FD1FEF74EFEDC
:1048D000401B0A28F5D9D4F89C3043F00103C4F8F2
:1048E0009C30032384F898300120D7E79A6942F07E
:1048F00002029A61237C012B40D02268936943F025
:1049000040039361637C012B3ED02268936923F4BA
:1049100080439361A37C012B3CD02268936943F4CC
:10492000805393612268936923F44073A1680B4319
:1049300093612268936923F0A40393612268136949
:1049400023F010031361E368012B29D0002B2CD036
:10495000022B00F09B802268936943F080039361EF
:104960002268136943F010031361E368032B1CD121
:104970002268936943F02003936116E022689369EB
:1049800023F040039361BDE72268936943F48043B9
:104990009361BFE72268936923F480539361C1E771
:1049A0002268936943F004039361A3695A1EE36983
:1049B000013B1B0243EA4263226A013A13436269E4
:1049C000013A216843EA0243CB61A368B3F5407F13
:1049D00062D0236E33B12268D2F8C030616E0B43CF
:1049E000C2F8C030E36D226ED3420DD02168D1F8F9
:1049F000C83023F00703A26E14A800EB820252F81D
:104A00004C2C1343C1F8C830236C6BB12168D1F82A
:104A1000BC3023F00703626C14A800EB820252F84A
:104A20004C2C1343C1F8BC30A36C73B12168D1F88E
:104A3000BC3023F07003E26C14A800EB820252F841
:104A40004C2C43EA0213C1F8BC30236D73B12168CA
:104A5000D1F8BC3023F4E063626D14A800EB82024D
:104A600052F84C2C43EA0223C1F8BC302268184BA0
:104A70009A4222D00023C4F89430C4F89C30012319
:104A800084F898302046FFF7AFFD07E72268936966
:104A900043F02003936188E7A36A013BE26A013A8D
:104AA00043EA0223226B013A43EA0213626A013AA3
:104AB000216843EA0243CB608BE76268936823F086
:104AC00003039360D6E70120E8E600BFD8CD0008D5
:104AD00000A0004090F89830013BDBB2012B07D9D1
:104AE000D0F89C3043F00203C0F89C30012070479E
:104AF000CB680A68D2B9072B0ED08A68DB0643EA76
:104B000082730A6943EA02434A691343C26E4968E1
:104B100042F82130002070470A69CB691B0243EA42
:104B200002438A69134343F06053EFE710B40A6904
:104B300042EA4372072B0ED08C684B6943EA8473B8
:104B4000006F496800EBC10440F831206360002029
:104B50005DF8044B70478B69F2E710B490F8984009
:104B6000E4B2012C09D0D0F89C3043F00403C0F823
:104B70009C3001205DF8044B7047920042EA01121C
:104B800042EA4302036801990A43C3F880200020E7
:104B9000F0E790F89830DBB2012B07D0D0F89C30CA
:104BA00043F00403C0F89C3001207047022380F8D2
:104BB00098300268936923F0010393610023C0F8E1
:104BC0009C301846704738B5044690F89830DBB2F0
:104BD000022B2BD10368D3F8C00010F07C5F0CD0FF
:104BE000D3F8C40010F4001F0FD0D4F89C3043F465
:104BF0000073C4F89C3001201FE0D4F89C3043F0CF
:104C00002003C4F89C30012017E0D3F8C450C5F34A
:104C100004452B462046FFF7D3FD22680123AB4015
:104C2000C2F8D030C4F89430002006E0D0F89C30B0
:104C300043F00803C0F89C30012038BDF0B490F870
:104C40009840E4B2022C40F0D28040290CD0412997
:104C50003CD0046D8C426BD8D0F89C3043F02003DC
:104C6000C0F89C300120C9E00468D4F8A05015F4C5
:104C7000FE0F0CD0D4F8A45015F07F0F0FD1D0F850
:104C80009C3043F48073C0F89C300120B6E0D0F82B
:104C90009C3043F02003C0F89C300120AEE0D4F8F3
:104CA000A450C5F3006C15F0807F03D0D4F8A05059
:104CB0004FF0000CD4F8A440C4F30524A444446F7E
:104CC000456C0CFB05F504EB850439E00468D4F869
:104CD000B05015F4FE0F0CD0D4F8B45015F07F0F7F
:104CE0000FD1D0F89C3043F48073C0F89C30012081
:104CF00084E0D0F89C3043F02003C0F89C300120C1
:104D00007CE0D4F8B450C5F3006C15F0807F03D07C
:104D1000D4F8B0504FF0000CD4F8B440C4F30524DC
:104D2000A444846FC56C0CFB05F504EB850407E017
:104D3000C46F456D01FB05F504EB85044FF0000CD5
:104D4000256805F080455560002D2CD12568C5F3F8
:104D50008A451560256805F000559560256805F0C1
:104D600000451561A588D561656805F47025D56095
:104D7000656805F480155561656805F40015956151
:104D8000E57905F07F0515626568ED0F556204F160
:104D900008050024D6891A4FBE5DA64208D92E5DAB
:104DA0001E550134F6E7256825F060451560D1E70A
:104DB00040290AD041290DD01F290FD802680123AC
:104DC00003FA01F1C2F8981002E00368C3F8A8C022
:104DD000002013E00368C3F8B8C0F9E701F01F0131
:104DE0000268012303FA01F1C2F89C10F0E7D0F841
:104DF0009C3043F00803C0F89C300120F0BC7047A1
:104E0000C0D6000890F89830013BDBB2012B07D9DF
:104E1000D0F89C3043F00203C0F89C30012070476A
:104E200010B403689C6D0C4224D1DC6D44F0010485
:104E3000DC6511F4007F05D00468D4F8E03013433A
:104E4000C4F8E03011F4806F05D00468D4F8E43081
:104E50001A43C4F8E4200068436D0C4A0A40134327
:104E600043650B4A536943EA9171516100205DF833
:104E7000044B70479C6D31EA040402D00324DC65C6
:104E8000D7E7DC6D44F00204DC65D2E7FFFFCF3FDB
:104E900000A80040704770477047704770477047E0
:104EA000704770477047704770477047704770474A
:104EB000704700002DE9F04F83B00446B74B1A69E4
:104EC0005B699B0703EA8273019303681A6D02F41E
:104ED000704A5A6D0AEA020A1A6D02F00F095A6DF9
:104EE00009EA02091A6D02F0F0085A6D08EA020890
:104EF0001E6D06F071565A6D16401F6D07F06077F3
:104F00005A6D17405D6DD3F850B015F4807F02D014
:104F10001BF4807F64D115F4806F02D01BF4806F86
:104F200067D1019B002B74D1BAF1000F7CD1B9F18C
:104F3000000F40F08580B8F1000F40F08D8015F42F
:104F4000006F03D01BF4006F40F0928015F4007FD7
:104F500003D01BF4007F40F0968015F4002F03D09F
:104F60001BF4002F40F09F8015F4803F03D01BF40A
:104F7000803F40F0A38015F4802F03D01BF4802FD6
:104F800040F0A78015F4003F0FD01BF4003F0CD079
:104F900023684FF400321A65804B00221A61D4F85E
:104FA0009C3043F08003C4F89C30002F40F09C807C
:104FB0004EB123681E65B20F784B1A61D4F89C304D
:104FC0001E43C4F89C602268754B9A4200F096809C
:104FD000D4F89C30002B40F0F88003B0BDE8F08F8F
:104FE0004FF480721A656D4B00221A61FFF75AFF69
:104FF00091E72368D3F8DC10D3F8E4204FF4806005
:105000001865664B0020186111402046FFF746FFE7
:1050100087E7236800221A6501998A0F5F4B1A619E
:105020002046FFF737FF7FE72368C3F850A04FEA19
:105030009A725A4B1A6151462046FFF72CFF76E7C9
:105040002368C3F850904FEA9972544B1A6149464D
:10505000204606F037FE6EE72368C3F850804FEA1B
:1050600098724E4B1A614146204606F06DFE66E787
:1050700023684FF400621A65484B00221A612046EB
:10508000FFF70AFF62E72368D3F8D810D3F8E020CF
:105090004FF400701865414B002018611140204604
:1050A000FFF7FBFE59E723684FF400221A653B4BDC
:1050B00000221A612046FFF7F2FE55E723684FF4FD
:1050C00080321A65354B00221A612046FFF7E8FE50
:1050D00051E723684FF480221A65304B00221A6191
:1050E0002046FFF7DEFE4DE723681F65BA0F2B4B06
:1050F0001A6139462046FFF7D7FE59E763689A6878
:1051000012F0030F3FF464AF196A01F00F015A6AFD
:10511000186A00F03008586A08EA00081F6A07F4A5
:10512000C077586A07401E6A06F4FC46586A064073
:105130001D6A05F4F025586A0540D3F82490D3F889
:1051400020A011401CD1B8F1000F1ED119F0400F62
:1051500002D01AF0400F25D187BB36B163681E62BA
:10516000D4F89C301E43C4F89C60002D3FF430AF4F
:1051700063681D62D4F89C301D43C4F89C5027E737
:1051800019622046FFF791FEDDE76368C3F82080CF
:1051900041462046FFF78AFED8E700BF00A800403E
:1051A00000A000406368D96BDA6B4020186202F0FF
:1051B0003F02090C2046FFF77AFECDE763681F62C5
:1051C00039462046FFF774FEC7E72046FFF76BFE1F
:1051D00003E700BFF0B482B000235FE086685F00A1
:1051E0000325BD4026EA0506CD68BD4035438560F0
:1051F000466826EA04064D68C5F300149C40344313
:10520000446059E0DD08083550F8257003F00704C4
:10521000A6000F24B44027EA04070C69B4403C43BD
:1052200040F825405CE0092400E00024B4403C4301
:1052300002355C4E46F825404FF0B0442568D44313
:1052400025EA02064F6817F4801F01D042EA0506DE
:105250004FF0B0452E606E6804EA06054F6817F4FB
:10526000001F01D042EA06054FF0B04675604E4D72
:105270006D6804EA05064F6817F4003F01D042EA62
:105280000506494D6E602D682C404E6816F4803F2F
:1052900001D042EA0504444A146001330A6832FA34
:1052A00003F47BD001249C402240F6D04D6805F0E9
:1052B0000305013D012D91D94C6804F00304032C32
:1052C00009D0C5685E000324B44025EA04058C6853
:1052D000B4402C43C4604C6804F00304022C91D009
:1052E00005685E000324B44025EA04054C6804F018
:1052F0000304B4402C4304604C6814F4403FCCD009
:105300002A4CD4F8F45045F00205C4F8F450D4F80F
:10531000F44004F002040194019C9D08AE1C214C51
:1053200054F8267003F00304A6000F24B44027EAC3
:1053300004071F4CA0423FF478AF04F58064A042FC
:105340001ED004F58064A0421CD004F58064A04205
:105350001AD004F58064A04218D004F58064A042FD
:1053600016D004F58064A04214D004F58064A042F5
:1053700012D004F50064A0423FF455AF0A2455E76B
:10538000012453E7022451E703244FE704244DE7A7
:1053900005244BE7062449E7072447E702B0F0BCA1
:1053A000704700BF000400588000005800440258B5
:1053B000000002580369194201D001207047002003
:1053C00070470AB18161704709048161704700002C
:1053D000134BDB6813F0040F07D1114BDB6803F0AC
:1053E000070383421AD00120704710B50C4AD368D6
:1053F00023F007031843D060FEF7B8F80446084BC3
:105400005B6813F4005F07D1FEF7B0F8001BB0F53E
:105410007A7FF4D9012000E0002010BD0020704701
:1054200000480258002800F0D78238B504460368C7
:1054300013F0010F25D0AA4A136903F03803926ACA
:10544000102B15D0182B0FD06368B3F5803F3FD0D9
:10545000002B53D1A24B1A6822F480321A601A68CA
:1054600022F480221A6038E002F00302022AEBD113
:105470009B4B1B6813F4003F03D06368002B00F0C4
:10548000AD82236813F0020F00F08880944A1369FC
:10549000926A13F038035AD0182B55D0E368002BCA
:1054A00000F0A9808E490A6822F0190213430B60AC
:1054B000FEF75CF805468A4B1B6813F0040F40F0BA
:1054C0009180FEF753F8401B0228F4D903208CE2A8
:1054D000834A136843F48033136063682BB3FEF789
:1054E00045F805467E4B1B6813F4003FC9D1FEF713
:1054F0003DF8401B6428F5D9032076E2B3F5A02FD0
:1055000009D0774B1A6822F480321A601A6822F4A4
:1055100080221A60E1E7724B1A6842F480221A6016
:105520001A6842F480321A60D7E7FEF71FF8054682
:105530006B4B1B6813F4003FA3D0FEF717F8401B1A
:105540006428F5D9032050E212F0030FA6D1644B72
:105550001B6813F0040F03D0E368002B00F04082B7
:105560005F4A136823F01903E1680B431360FDF7EA
:10557000FDFF05465A4B1B6813F0040F06D1FDF7DB
:10558000F5FF401B0228F5D903202EE2544A536848
:1055900023F0FE43216943EA01635360236813F05B
:1055A000100F51D04E4A136903F03803926A082B4A
:1055B00039D0182B33D0E369002B68D0484A1368E0
:1055C00043F080031360FDF7D1FF0546444B1B6891
:1055D00013F4807F52D1FDF7C9FF401B0228F5D993
:1055E000032002E23E4A536823F0FE43216943EA66
:1055F00001635360D2E73A4A136823F00103136052
:10560000FDF7B4FF0546364B1B6813F0040FC5D0F9
:10561000FDF7ACFF401B0228F5D90320E5E102F0BD
:105620000302012AC7D12E4B1B6813F4807F03D0DD
:10563000E369802B40F0D681294AD36823F07C535C
:10564000216A43EA0163D360236813F0080F49D04D
:10565000636983B3224A536F43F001035367FDF735
:1056600085FF05461E4B5B6F13F0020F3AD1FDF725
:105670007DFF401B0228F5D90320B6E1184AD36804
:1056800023F07C53216A43EA0163D360DCE7144AC8
:10569000136823F080031360FDF768FF0546104B85
:1056A0001B6813F4807FCFD0FDF760FF401B0228FA
:1056B000F5D9032099E10A4A536F23F00103536798
:1056C000FDF754FF0546064B5B6F13F0020F09D040
:1056D000FDF74CFF401B0228F5D9032085E100BFF0
:1056E00000440258236813F0200F29D0A3699BB10E
:1056F000A84A136843F480531360FDF737FF05464B
:10570000A44B1B6813F4005F1AD1FDF72FFF401B59
:105710000228F5D9032068E19E4A136823F48053D8
:105720001360FDF723FF05469A4B1B6813F4005FD7
:1057300006D0FDF71BFF401B0228F5D9032054E1DA
:10574000236813F0040F21D1636A002B00F04C8111
:10575000904A126902F03802182A00F0EA80022BFF
:1057600075D08C4A136823F080731360FDF7FEFE3A
:105770000446884B1B6813F0007F00F0D880FDF7CB
:10578000F5FE001B0228F4D903202EE1824A13689B
:1057900043F480731360FDF7E9FE05467E4B1B68FA
:1057A00013F4807F06D1FDF7E1FE401B6428F5D994
:1057B00003201AE1A368012B0AD00BBB754B1A6FAB
:1057C00022F001021A671A6F22F004021A6704E03D
:1057D000704A136F43F001031367A36833B3FDF7F7
:1057E000C5FE05466B4B1B6F13F0020FACD1FDF7E6
:1057F000BDFE401B41F288339842F3D90320F4E008
:10580000052B09D0634B1A6F22F001021A671A6F39
:1058100022F004021A67E0E75E4B1A6F42F00402BE
:105820001A671A6F42F001021A67D6E7FDF79EFE6B
:105830000546584B1B6F13F0020F85D0FDF796FEFF
:10584000401B41F288339842F3D90320CDE0514AFE
:10585000136823F080731360FDF788FE05464D4BF7
:105860001B6813F0007F06D0FDF780FE401B022866
:10587000F5D90320B9E0474B996A484A0A40A16A22
:10588000E06A41EA00110A439A62226B013AC2F3CC
:105890000802616B0139490289B20A43A16B0139DF
:1058A000090401F4FE010A43E16B0139090601F024
:1058B000FE410A431A63DA6A22F00102DA62596B86
:1058C000374A0A40A16C42EAC1025A63DA6A22F0FE
:1058D0000C02216C0A43DA62DA6A22F00202616C7D
:1058E0000A43DA62DA6A42F48032DA62DA6A42F44D
:1058F0000032DA62DA6A42F48022DA62DA6A42F06C
:105900000102DA621A6842F080721A60FDF72EFE18
:105910000446204B1B6813F0007F06D1FDF726FEDE
:10592000001B0228F5D903205FE000205DE0002085
:105930005BE018498A6A086B012B57D002F0030319
:10594000A16A8B4254D1C2F30512E36A9A4251D143
:10595000C0F30802236B013B9A424DD1C0F34622AB
:10596000636B013B9A4249D1C0F30642A36B013BF2
:105970009A4245D1C0F30660E36B013B984241D1A6
:10598000044B5B6BC3F3CC03A26C9A420AD1002098
:105990002BE000BF00440258004802580CFCFFFFF7
:1059A0000700FFFF184AD36A23F00103D362FDF713
:1059B000DDFD0546FDF7DAFDA842FBD0124A516B2A
:1059C000124B0B40A16C43EAC1035363D36A43F00B
:1059D0000103D362002008E001207047012004E0A9
:1059E000012002E0012000E0002038BD0120FCE79A
:1059F0000120FAE70120F8E70120F6E70120F4E7AB
:105A00000120F2E70120F0E7004402580700FFFF01
:105A1000744B1B6903F03803102B00F0DF80182B48
:105A200010D00BB1704870476E4B1B6813F0200FFD
:105A300000F0D6806B4B1868C0F3C1006B4B23FAA3
:105A400000F0704710B4674A916A01F00301946A4C
:105A5000C4F30510D36A03F00103526BC2F3CC0206
:105A600003FB02F307EE903AF8EE677A14F47C7FBA
:105A700000F09480012966D0022900F09280E1B103
:105A800007EE100AF8EE476A9FED596A86EE267A0D
:105A9000544B1B6BC3F3080306EE903AF8EE666AAC
:105AA0009FED546A67EE867A76EEA77AF7EE006A83
:105AB00077EEA67A27EE277A61E04A4B1B6813F04F
:105AC000200F23D047490A68C2F3C102474BD34095
:105AD00007EE103AF8EE476A07EE100AB8EE476A8A
